ARM GAS  C:\Users\Usuario\AppData\Local\Temp\ccPrHsje.s 			page 1


   1              		.syntax unified
   2              		.cpu cortex-m0plus
   3              		.fpu softvfp
   4              		.eabi_attribute 20, 1
   5              		.eabi_attribute 21, 1
   6              		.eabi_attribute 23, 3
   7              		.eabi_attribute 24, 1
   8              		.eabi_attribute 25, 1
   9              		.eabi_attribute 26, 1
  10              		.eabi_attribute 30, 1
  11              		.eabi_attribute 34, 0
  12              		.eabi_attribute 18, 4
  13              		.thumb
  14              		.syntax unified
  15              		.file	"capsense_Structure.c"
  16              		.text
  17              	.Ltext0:
  18              		.cfi_sections	.debug_frame
  19              		.section	.text.DsParseParamId,"ax",%progbits
  20              		.align	2
  21              		.code	16
  22              		.thumb_func
  23              		.type	DsParseParamId, %function
  24              	DsParseParamId:
  25              	.LFB2:
  26              		.file 1 "Generated_Source\\PSoC4\\capsense_Structure.c"
   1:Generated_Source\PSoC4/capsense_Structure.c **** /***************************************************************************//**
   2:Generated_Source\PSoC4/capsense_Structure.c **** * \file capsense_Structure.c
   3:Generated_Source\PSoC4/capsense_Structure.c **** * \version 7.10
   4:Generated_Source\PSoC4/capsense_Structure.c **** *
   5:Generated_Source\PSoC4/capsense_Structure.c **** * \brief
   6:Generated_Source\PSoC4/capsense_Structure.c **** *   This file defines the data structure global variables and provides implementation
   7:Generated_Source\PSoC4/capsense_Structure.c **** *   for the high-level and low-level APIs of the Data Structure module.
   8:Generated_Source\PSoC4/capsense_Structure.c **** *
   9:Generated_Source\PSoC4/capsense_Structure.c **** * \see capsense v7.10 Datasheet
  10:Generated_Source\PSoC4/capsense_Structure.c **** *
  11:Generated_Source\PSoC4/capsense_Structure.c **** *//*****************************************************************************
  12:Generated_Source\PSoC4/capsense_Structure.c **** * Copyright (2016-2019), Cypress Semiconductor Corporation.
  13:Generated_Source\PSoC4/capsense_Structure.c **** ********************************************************************************
  14:Generated_Source\PSoC4/capsense_Structure.c **** * This software is owned by Cypress Semiconductor Corporation (Cypress) and is
  15:Generated_Source\PSoC4/capsense_Structure.c **** * protected by and subject to worldwide patent protection (United States and
  16:Generated_Source\PSoC4/capsense_Structure.c **** * foreign), United States copyright laws and international treaty provisions.
  17:Generated_Source\PSoC4/capsense_Structure.c **** * Cypress hereby grants to licensee a personal, non-exclusive, non-transferable
  18:Generated_Source\PSoC4/capsense_Structure.c **** * license to copy, use, modify, create derivative works of, and compile the
  19:Generated_Source\PSoC4/capsense_Structure.c **** * Cypress Source Code and derivative works for the sole purpose of creating
  20:Generated_Source\PSoC4/capsense_Structure.c **** * custom software in support of licensee product to be used only in conjunction
  21:Generated_Source\PSoC4/capsense_Structure.c **** * with a Cypress integrated circuit as specified in the applicable agreement.
  22:Generated_Source\PSoC4/capsense_Structure.c **** * Any reproduction, modification, translation, compilation, or representation of
  23:Generated_Source\PSoC4/capsense_Structure.c **** * this software except as specified above is prohibited without the express
  24:Generated_Source\PSoC4/capsense_Structure.c **** * written permission of Cypress.
  25:Generated_Source\PSoC4/capsense_Structure.c **** *
  26:Generated_Source\PSoC4/capsense_Structure.c **** * Disclaimer: CYPRESS MAKES NO WARRANTY OF ANY KIND, EXPRESS OR IMPLIED, WITH
  27:Generated_Source\PSoC4/capsense_Structure.c **** * REGARD TO THIS MATERIAL, INCLUDING, BUT NOT LIMITED TO, THE IMPLIED
  28:Generated_Source\PSoC4/capsense_Structure.c **** * WARRANTIES OF MERCHANTABILITY AND FITNESS FOR A PARTICULAR PURPOSE.
  29:Generated_Source\PSoC4/capsense_Structure.c **** * Cypress reserves the right to make changes without further notice to the
  30:Generated_Source\PSoC4/capsense_Structure.c **** * materials described herein. Cypress does not assume any liability arising out
  31:Generated_Source\PSoC4/capsense_Structure.c **** * of the application or use of any product or circuit described herein. Cypress
ARM GAS  C:\Users\Usuario\AppData\Local\Temp\ccPrHsje.s 			page 2


  32:Generated_Source\PSoC4/capsense_Structure.c **** * does not authorize its products for use as critical components in life-support
  33:Generated_Source\PSoC4/capsense_Structure.c **** * systems where a malfunction or failure may reasonably be expected to result in
  34:Generated_Source\PSoC4/capsense_Structure.c **** * significant injury to the user. The inclusion of Cypress' product in a life-
  35:Generated_Source\PSoC4/capsense_Structure.c **** * support systems application implies that the manufacturer assumes all risk of
  36:Generated_Source\PSoC4/capsense_Structure.c **** * such use and in doing so indemnifies Cypress against all charges. Use may be
  37:Generated_Source\PSoC4/capsense_Structure.c **** * limited by and subject to the applicable Cypress software license agreement.
  38:Generated_Source\PSoC4/capsense_Structure.c **** *******************************************************************************/
  39:Generated_Source\PSoC4/capsense_Structure.c **** 
  40:Generated_Source\PSoC4/capsense_Structure.c **** #include <cytypes.h>
  41:Generated_Source\PSoC4/capsense_Structure.c **** #include "CyLib.h"
  42:Generated_Source\PSoC4/capsense_Structure.c **** #include "capsense_Structure.h"
  43:Generated_Source\PSoC4/capsense_Structure.c **** #include "capsense_Configuration.h"
  44:Generated_Source\PSoC4/capsense_Structure.c **** 
  45:Generated_Source\PSoC4/capsense_Structure.c **** #if (0u != capsense_ADC_EN)
  46:Generated_Source\PSoC4/capsense_Structure.c ****     #include "capsense_Adc.h"
  47:Generated_Source\PSoC4/capsense_Structure.c **** #endif /* (0u != capsense_ADC_EN) */
  48:Generated_Source\PSoC4/capsense_Structure.c **** 
  49:Generated_Source\PSoC4/capsense_Structure.c **** #if (capsense_ENABLE == capsense_SELF_TEST_EN)
  50:Generated_Source\PSoC4/capsense_Structure.c ****     #include "capsense_SelfTest.h"
  51:Generated_Source\PSoC4/capsense_Structure.c **** #endif
  52:Generated_Source\PSoC4/capsense_Structure.c **** 
  53:Generated_Source\PSoC4/capsense_Structure.c **** #if (capsense_ENABLE == capsense_CENTROID_5X5_CSD_EN)
  54:Generated_Source\PSoC4/capsense_Structure.c ****     #include "capsense_AdvancedCentroid_LL.h"
  55:Generated_Source\PSoC4/capsense_Structure.c **** #endif
  56:Generated_Source\PSoC4/capsense_Structure.c **** 
  57:Generated_Source\PSoC4/capsense_Structure.c **** #if (capsense_ENABLE == capsense_GES_GLOBAL_EN)
  58:Generated_Source\PSoC4/capsense_Structure.c ****     #include "capsense_Gesture.h"
  59:Generated_Source\PSoC4/capsense_Structure.c **** #endif /* (capsense_ENABLE == capsense_GES_GLOBAL_EN) */
  60:Generated_Source\PSoC4/capsense_Structure.c **** 
  61:Generated_Source\PSoC4/capsense_Structure.c **** /*******************************************************************************
  62:Generated_Source\PSoC4/capsense_Structure.c **** * Defines the RAM Data Structure variables and their init data in flash
  63:Generated_Source\PSoC4/capsense_Structure.c **** *******************************************************************************/
  64:Generated_Source\PSoC4/capsense_Structure.c **** /**
  65:Generated_Source\PSoC4/capsense_Structure.c **** * \cond SECTION_GLOBAL_VARIABLES
  66:Generated_Source\PSoC4/capsense_Structure.c **** * \addtogroup group_global_variables
  67:Generated_Source\PSoC4/capsense_Structure.c **** * \{
  68:Generated_Source\PSoC4/capsense_Structure.c **** */
  69:Generated_Source\PSoC4/capsense_Structure.c **** 
  70:Generated_Source\PSoC4/capsense_Structure.c **** /**
  71:Generated_Source\PSoC4/capsense_Structure.c **** * The variable that contains the capsense configuration, settings and
  72:Generated_Source\PSoC4/capsense_Structure.c **** * scanning results. capsense_dsRam represents RAM Data Structure.
  73:Generated_Source\PSoC4/capsense_Structure.c **** */
  74:Generated_Source\PSoC4/capsense_Structure.c **** capsense_RAM_STRUCT capsense_dsRam;
  75:Generated_Source\PSoC4/capsense_Structure.c **** /** \}
  76:Generated_Source\PSoC4/capsense_Structure.c **** * \endcond */
  77:Generated_Source\PSoC4/capsense_Structure.c **** 
  78:Generated_Source\PSoC4/capsense_Structure.c **** /*******************************************************************************
  79:Generated_Source\PSoC4/capsense_Structure.c **** * Declares Widget's De-bounce Counters
  80:Generated_Source\PSoC4/capsense_Structure.c **** *******************************************************************************/
  81:Generated_Source\PSoC4/capsense_Structure.c **** static uint8 capsense_debounceBTN0[capsense_BTN0_NUM_SENSORS];
  82:Generated_Source\PSoC4/capsense_Structure.c **** static uint8 capsense_debounceBTN1[capsense_BTN1_NUM_SENSORS];
  83:Generated_Source\PSoC4/capsense_Structure.c **** static uint8 capsense_debounceBTN2[capsense_BTN2_NUM_SENSORS];
  84:Generated_Source\PSoC4/capsense_Structure.c **** static uint8 capsense_debounceLinearSlider[1u];
  85:Generated_Source\PSoC4/capsense_Structure.c **** 
  86:Generated_Source\PSoC4/capsense_Structure.c **** 
  87:Generated_Source\PSoC4/capsense_Structure.c **** /*******************************************************************************
  88:Generated_Source\PSoC4/capsense_Structure.c **** * Defines and initializes the Flash Data Structure
ARM GAS  C:\Users\Usuario\AppData\Local\Temp\ccPrHsje.s 			page 3


  89:Generated_Source\PSoC4/capsense_Structure.c **** *******************************************************************************/
  90:Generated_Source\PSoC4/capsense_Structure.c **** 
  91:Generated_Source\PSoC4/capsense_Structure.c **** 
  92:Generated_Source\PSoC4/capsense_Structure.c **** 
  93:Generated_Source\PSoC4/capsense_Structure.c **** /**
  94:Generated_Source\PSoC4/capsense_Structure.c **** * \cond SECTION_API_CONSTANTS
  95:Generated_Source\PSoC4/capsense_Structure.c **** * \addtogroup group_api_constants
  96:Generated_Source\PSoC4/capsense_Structure.c **** * \{
  97:Generated_Source\PSoC4/capsense_Structure.c **** */
  98:Generated_Source\PSoC4/capsense_Structure.c **** /**
  99:Generated_Source\PSoC4/capsense_Structure.c **** * Constant for the FLASH Data Structure
 100:Generated_Source\PSoC4/capsense_Structure.c **** */
 101:Generated_Source\PSoC4/capsense_Structure.c **** const capsense_FLASH_STRUCT capsense_dsFlash =
 102:Generated_Source\PSoC4/capsense_Structure.c **** {
 103:Generated_Source\PSoC4/capsense_Structure.c ****     /* Flash Widget Initialization Data */
 104:Generated_Source\PSoC4/capsense_Structure.c ****     {
 105:Generated_Source\PSoC4/capsense_Structure.c ****         { /* BTN0 */
 106:Generated_Source\PSoC4/capsense_Structure.c ****             &capsense_ioList[0u],
 107:Generated_Source\PSoC4/capsense_Structure.c ****             (void *)&capsense_dsRam.wdgtList.btn0,
 108:Generated_Source\PSoC4/capsense_Structure.c ****             capsense_dsRam.snsList.btn0,
 109:Generated_Source\PSoC4/capsense_Structure.c ****             (void *)0u,
 110:Generated_Source\PSoC4/capsense_Structure.c ****             capsense_debounceBTN0,
 111:Generated_Source\PSoC4/capsense_Structure.c ****             capsense_BTN0_STATIC_CONFIG,
 112:Generated_Source\PSoC4/capsense_Structure.c ****             capsense_BTN0_NUM_SENSORS,
 113:Generated_Source\PSoC4/capsense_Structure.c ****             (uint8)capsense_WD_BUTTON_E,
 114:Generated_Source\PSoC4/capsense_Structure.c ****             (uint8)capsense_SENSE_METHOD_CSX_E,
 115:Generated_Source\PSoC4/capsense_Structure.c ****             capsense_BTN0_NUM_SENSORS,
 116:Generated_Source\PSoC4/capsense_Structure.c ****             1u,
 117:Generated_Source\PSoC4/capsense_Structure.c ****             0u,
 118:Generated_Source\PSoC4/capsense_Structure.c ****             0u,
 119:Generated_Source\PSoC4/capsense_Structure.c ****             0u,
 120:Generated_Source\PSoC4/capsense_Structure.c ****         },
 121:Generated_Source\PSoC4/capsense_Structure.c ****         { /* BTN1 */
 122:Generated_Source\PSoC4/capsense_Structure.c ****             &capsense_ioList[2u],
 123:Generated_Source\PSoC4/capsense_Structure.c ****             (void *)&capsense_dsRam.wdgtList.btn1,
 124:Generated_Source\PSoC4/capsense_Structure.c ****             capsense_dsRam.snsList.btn1,
 125:Generated_Source\PSoC4/capsense_Structure.c ****             (void *)0u,
 126:Generated_Source\PSoC4/capsense_Structure.c ****             capsense_debounceBTN1,
 127:Generated_Source\PSoC4/capsense_Structure.c ****             capsense_BTN1_STATIC_CONFIG,
 128:Generated_Source\PSoC4/capsense_Structure.c ****             capsense_BTN1_NUM_SENSORS,
 129:Generated_Source\PSoC4/capsense_Structure.c ****             (uint8)capsense_WD_BUTTON_E,
 130:Generated_Source\PSoC4/capsense_Structure.c ****             (uint8)capsense_SENSE_METHOD_CSX_E,
 131:Generated_Source\PSoC4/capsense_Structure.c ****             capsense_BTN1_NUM_SENSORS,
 132:Generated_Source\PSoC4/capsense_Structure.c ****             1u,
 133:Generated_Source\PSoC4/capsense_Structure.c ****             0u,
 134:Generated_Source\PSoC4/capsense_Structure.c ****             0u,
 135:Generated_Source\PSoC4/capsense_Structure.c ****             0u,
 136:Generated_Source\PSoC4/capsense_Structure.c ****         },
 137:Generated_Source\PSoC4/capsense_Structure.c ****         { /* BTN2 */
 138:Generated_Source\PSoC4/capsense_Structure.c ****             &capsense_ioList[4u],
 139:Generated_Source\PSoC4/capsense_Structure.c ****             (void *)&capsense_dsRam.wdgtList.btn2,
 140:Generated_Source\PSoC4/capsense_Structure.c ****             capsense_dsRam.snsList.btn2,
 141:Generated_Source\PSoC4/capsense_Structure.c ****             (void *)0u,
 142:Generated_Source\PSoC4/capsense_Structure.c ****             capsense_debounceBTN2,
 143:Generated_Source\PSoC4/capsense_Structure.c ****             capsense_BTN2_STATIC_CONFIG,
 144:Generated_Source\PSoC4/capsense_Structure.c ****             capsense_BTN2_NUM_SENSORS,
 145:Generated_Source\PSoC4/capsense_Structure.c ****             (uint8)capsense_WD_BUTTON_E,
ARM GAS  C:\Users\Usuario\AppData\Local\Temp\ccPrHsje.s 			page 4


 146:Generated_Source\PSoC4/capsense_Structure.c ****             (uint8)capsense_SENSE_METHOD_CSX_E,
 147:Generated_Source\PSoC4/capsense_Structure.c ****             capsense_BTN2_NUM_SENSORS,
 148:Generated_Source\PSoC4/capsense_Structure.c ****             1u,
 149:Generated_Source\PSoC4/capsense_Structure.c ****             0u,
 150:Generated_Source\PSoC4/capsense_Structure.c ****             0u,
 151:Generated_Source\PSoC4/capsense_Structure.c ****             0u,
 152:Generated_Source\PSoC4/capsense_Structure.c ****         },
 153:Generated_Source\PSoC4/capsense_Structure.c ****         { /* LinearSlider */
 154:Generated_Source\PSoC4/capsense_Structure.c ****             &capsense_ioList[6u],
 155:Generated_Source\PSoC4/capsense_Structure.c ****             (void *)&capsense_dsRam.wdgtList.linearslider,
 156:Generated_Source\PSoC4/capsense_Structure.c ****             capsense_dsRam.snsList.linearslider,
 157:Generated_Source\PSoC4/capsense_Structure.c ****             (void *)0u,
 158:Generated_Source\PSoC4/capsense_Structure.c ****             capsense_debounceLinearSlider,
 159:Generated_Source\PSoC4/capsense_Structure.c ****             capsense_LINEARSLIDER_STATIC_CONFIG,
 160:Generated_Source\PSoC4/capsense_Structure.c ****             capsense_LINEARSLIDER_NUM_SENSORS,
 161:Generated_Source\PSoC4/capsense_Structure.c ****             (uint8)capsense_WD_LINEAR_SLIDER_E,
 162:Generated_Source\PSoC4/capsense_Structure.c ****             (uint8)capsense_SENSE_METHOD_CSD_E,
 163:Generated_Source\PSoC4/capsense_Structure.c ****             capsense_LINEARSLIDER_NUM_SENSORS,
 164:Generated_Source\PSoC4/capsense_Structure.c ****             0u,
 165:Generated_Source\PSoC4/capsense_Structure.c ****             capsense_LINEARSLIDER_X_RESOLUTION,
 166:Generated_Source\PSoC4/capsense_Structure.c ****             capsense_LINEARSLIDER_X_CENT_MULT,
 167:Generated_Source\PSoC4/capsense_Structure.c ****             capsense_LINEARSLIDER_IIR_FILTER_COEFF,
 168:Generated_Source\PSoC4/capsense_Structure.c ****         },
 169:Generated_Source\PSoC4/capsense_Structure.c ****     },
 170:Generated_Source\PSoC4/capsense_Structure.c **** };
 171:Generated_Source\PSoC4/capsense_Structure.c **** 
 172:Generated_Source\PSoC4/capsense_Structure.c **** /**
 173:Generated_Source\PSoC4/capsense_Structure.c **** * The array of the pointers to the electrode specific register.
 174:Generated_Source\PSoC4/capsense_Structure.c **** */
 175:Generated_Source\PSoC4/capsense_Structure.c **** const capsense_FLASH_IO_STRUCT capsense_ioList[capsense_TOTAL_ELECTRODES] =
 176:Generated_Source\PSoC4/capsense_Structure.c **** {
 177:Generated_Source\PSoC4/capsense_Structure.c ****     { /* 0: BTN0_Rx0 */
 178:Generated_Source\PSoC4/capsense_Structure.c ****         (reg32 *)capsense_Rx__0__HSIOM,
 179:Generated_Source\PSoC4/capsense_Structure.c ****         (reg32 *)capsense_Rx__0__PC,
 180:Generated_Source\PSoC4/capsense_Structure.c ****         (reg32 *)capsense_Rx__0__DR,
 181:Generated_Source\PSoC4/capsense_Structure.c ****         (reg32 *)capsense_Rx__0__PS,
 182:Generated_Source\PSoC4/capsense_Structure.c ****         capsense_Rx__0__HSIOM_MASK,
 183:Generated_Source\PSoC4/capsense_Structure.c ****         capsense_Rx__0__MASK,
 184:Generated_Source\PSoC4/capsense_Structure.c ****         capsense_Rx__0__HSIOM_SHIFT,
 185:Generated_Source\PSoC4/capsense_Structure.c ****         (uint8)capsense_Rx__0__SHIFT,
 186:Generated_Source\PSoC4/capsense_Structure.c ****         (uint8)capsense_Rx__0__SHIFT * 3u,
 187:Generated_Source\PSoC4/capsense_Structure.c ****     },
 188:Generated_Source\PSoC4/capsense_Structure.c ****     { /* 1: BTN0_Tx */
 189:Generated_Source\PSoC4/capsense_Structure.c ****         (reg32 *)capsense_Tx__0__HSIOM,
 190:Generated_Source\PSoC4/capsense_Structure.c ****         (reg32 *)capsense_Tx__0__PC,
 191:Generated_Source\PSoC4/capsense_Structure.c ****         (reg32 *)capsense_Tx__0__DR,
 192:Generated_Source\PSoC4/capsense_Structure.c ****         (reg32 *)capsense_Tx__0__PS,
 193:Generated_Source\PSoC4/capsense_Structure.c ****         capsense_Tx__0__HSIOM_MASK,
 194:Generated_Source\PSoC4/capsense_Structure.c ****         capsense_Tx__0__MASK,
 195:Generated_Source\PSoC4/capsense_Structure.c ****         capsense_Tx__0__HSIOM_SHIFT,
 196:Generated_Source\PSoC4/capsense_Structure.c ****         (uint8)capsense_Tx__0__SHIFT,
 197:Generated_Source\PSoC4/capsense_Structure.c ****         (uint8)capsense_Tx__0__SHIFT * 3u,
 198:Generated_Source\PSoC4/capsense_Structure.c ****     },
 199:Generated_Source\PSoC4/capsense_Structure.c ****     { /* 2: BTN1_Rx0 */
 200:Generated_Source\PSoC4/capsense_Structure.c ****         (reg32 *)capsense_Rx__1__HSIOM,
 201:Generated_Source\PSoC4/capsense_Structure.c ****         (reg32 *)capsense_Rx__1__PC,
 202:Generated_Source\PSoC4/capsense_Structure.c ****         (reg32 *)capsense_Rx__1__DR,
ARM GAS  C:\Users\Usuario\AppData\Local\Temp\ccPrHsje.s 			page 5


 203:Generated_Source\PSoC4/capsense_Structure.c ****         (reg32 *)capsense_Rx__1__PS,
 204:Generated_Source\PSoC4/capsense_Structure.c ****         capsense_Rx__1__HSIOM_MASK,
 205:Generated_Source\PSoC4/capsense_Structure.c ****         capsense_Rx__1__MASK,
 206:Generated_Source\PSoC4/capsense_Structure.c ****         capsense_Rx__1__HSIOM_SHIFT,
 207:Generated_Source\PSoC4/capsense_Structure.c ****         (uint8)capsense_Rx__1__SHIFT,
 208:Generated_Source\PSoC4/capsense_Structure.c ****         (uint8)capsense_Rx__1__SHIFT * 3u,
 209:Generated_Source\PSoC4/capsense_Structure.c ****     },
 210:Generated_Source\PSoC4/capsense_Structure.c ****     { /* 3: BTN0_Tx ganged to BTN1_Tx */
 211:Generated_Source\PSoC4/capsense_Structure.c ****         (reg32 *)capsense_Tx__0__HSIOM,
 212:Generated_Source\PSoC4/capsense_Structure.c ****         (reg32 *)capsense_Tx__0__PC,
 213:Generated_Source\PSoC4/capsense_Structure.c ****         (reg32 *)capsense_Tx__0__DR,
 214:Generated_Source\PSoC4/capsense_Structure.c ****         (reg32 *)capsense_Tx__0__PS,
 215:Generated_Source\PSoC4/capsense_Structure.c ****         capsense_Tx__0__HSIOM_MASK,
 216:Generated_Source\PSoC4/capsense_Structure.c ****         capsense_Tx__0__MASK,
 217:Generated_Source\PSoC4/capsense_Structure.c ****         capsense_Tx__0__HSIOM_SHIFT,
 218:Generated_Source\PSoC4/capsense_Structure.c ****         (uint8)capsense_Tx__0__SHIFT,
 219:Generated_Source\PSoC4/capsense_Structure.c ****         (uint8)capsense_Tx__0__SHIFT * 3u,
 220:Generated_Source\PSoC4/capsense_Structure.c ****     },
 221:Generated_Source\PSoC4/capsense_Structure.c ****     { /* 4: BTN2_Rx0 */
 222:Generated_Source\PSoC4/capsense_Structure.c ****         (reg32 *)capsense_Rx__2__HSIOM,
 223:Generated_Source\PSoC4/capsense_Structure.c ****         (reg32 *)capsense_Rx__2__PC,
 224:Generated_Source\PSoC4/capsense_Structure.c ****         (reg32 *)capsense_Rx__2__DR,
 225:Generated_Source\PSoC4/capsense_Structure.c ****         (reg32 *)capsense_Rx__2__PS,
 226:Generated_Source\PSoC4/capsense_Structure.c ****         capsense_Rx__2__HSIOM_MASK,
 227:Generated_Source\PSoC4/capsense_Structure.c ****         capsense_Rx__2__MASK,
 228:Generated_Source\PSoC4/capsense_Structure.c ****         capsense_Rx__2__HSIOM_SHIFT,
 229:Generated_Source\PSoC4/capsense_Structure.c ****         (uint8)capsense_Rx__2__SHIFT,
 230:Generated_Source\PSoC4/capsense_Structure.c ****         (uint8)capsense_Rx__2__SHIFT * 3u,
 231:Generated_Source\PSoC4/capsense_Structure.c ****     },
 232:Generated_Source\PSoC4/capsense_Structure.c ****     { /* 5: BTN0_Tx ganged to BTN2_Tx */
 233:Generated_Source\PSoC4/capsense_Structure.c ****         (reg32 *)capsense_Tx__0__HSIOM,
 234:Generated_Source\PSoC4/capsense_Structure.c ****         (reg32 *)capsense_Tx__0__PC,
 235:Generated_Source\PSoC4/capsense_Structure.c ****         (reg32 *)capsense_Tx__0__DR,
 236:Generated_Source\PSoC4/capsense_Structure.c ****         (reg32 *)capsense_Tx__0__PS,
 237:Generated_Source\PSoC4/capsense_Structure.c ****         capsense_Tx__0__HSIOM_MASK,
 238:Generated_Source\PSoC4/capsense_Structure.c ****         capsense_Tx__0__MASK,
 239:Generated_Source\PSoC4/capsense_Structure.c ****         capsense_Tx__0__HSIOM_SHIFT,
 240:Generated_Source\PSoC4/capsense_Structure.c ****         (uint8)capsense_Tx__0__SHIFT,
 241:Generated_Source\PSoC4/capsense_Structure.c ****         (uint8)capsense_Tx__0__SHIFT * 3u,
 242:Generated_Source\PSoC4/capsense_Structure.c ****     },
 243:Generated_Source\PSoC4/capsense_Structure.c ****     { /* 6: LinearSlider_Sns0 */
 244:Generated_Source\PSoC4/capsense_Structure.c ****         (reg32 *)capsense_Sns__0__HSIOM,
 245:Generated_Source\PSoC4/capsense_Structure.c ****         (reg32 *)capsense_Sns__0__PC,
 246:Generated_Source\PSoC4/capsense_Structure.c ****         (reg32 *)capsense_Sns__0__DR,
 247:Generated_Source\PSoC4/capsense_Structure.c ****         (reg32 *)capsense_Sns__0__PS,
 248:Generated_Source\PSoC4/capsense_Structure.c ****         capsense_Sns__0__HSIOM_MASK,
 249:Generated_Source\PSoC4/capsense_Structure.c ****         capsense_Sns__0__MASK,
 250:Generated_Source\PSoC4/capsense_Structure.c ****         capsense_Sns__0__HSIOM_SHIFT,
 251:Generated_Source\PSoC4/capsense_Structure.c ****         (uint8)capsense_Sns__0__SHIFT,
 252:Generated_Source\PSoC4/capsense_Structure.c ****         (uint8)capsense_Sns__0__SHIFT * 3u,
 253:Generated_Source\PSoC4/capsense_Structure.c ****     },
 254:Generated_Source\PSoC4/capsense_Structure.c ****     { /* 7: LinearSlider_Sns1 */
 255:Generated_Source\PSoC4/capsense_Structure.c ****         (reg32 *)capsense_Sns__1__HSIOM,
 256:Generated_Source\PSoC4/capsense_Structure.c ****         (reg32 *)capsense_Sns__1__PC,
 257:Generated_Source\PSoC4/capsense_Structure.c ****         (reg32 *)capsense_Sns__1__DR,
 258:Generated_Source\PSoC4/capsense_Structure.c ****         (reg32 *)capsense_Sns__1__PS,
 259:Generated_Source\PSoC4/capsense_Structure.c ****         capsense_Sns__1__HSIOM_MASK,
ARM GAS  C:\Users\Usuario\AppData\Local\Temp\ccPrHsje.s 			page 6


 260:Generated_Source\PSoC4/capsense_Structure.c ****         capsense_Sns__1__MASK,
 261:Generated_Source\PSoC4/capsense_Structure.c ****         capsense_Sns__1__HSIOM_SHIFT,
 262:Generated_Source\PSoC4/capsense_Structure.c ****         (uint8)capsense_Sns__1__SHIFT,
 263:Generated_Source\PSoC4/capsense_Structure.c ****         (uint8)capsense_Sns__1__SHIFT * 3u,
 264:Generated_Source\PSoC4/capsense_Structure.c ****     },
 265:Generated_Source\PSoC4/capsense_Structure.c ****     { /* 8: LinearSlider_Sns2 */
 266:Generated_Source\PSoC4/capsense_Structure.c ****         (reg32 *)capsense_Sns__2__HSIOM,
 267:Generated_Source\PSoC4/capsense_Structure.c ****         (reg32 *)capsense_Sns__2__PC,
 268:Generated_Source\PSoC4/capsense_Structure.c ****         (reg32 *)capsense_Sns__2__DR,
 269:Generated_Source\PSoC4/capsense_Structure.c ****         (reg32 *)capsense_Sns__2__PS,
 270:Generated_Source\PSoC4/capsense_Structure.c ****         capsense_Sns__2__HSIOM_MASK,
 271:Generated_Source\PSoC4/capsense_Structure.c ****         capsense_Sns__2__MASK,
 272:Generated_Source\PSoC4/capsense_Structure.c ****         capsense_Sns__2__HSIOM_SHIFT,
 273:Generated_Source\PSoC4/capsense_Structure.c ****         (uint8)capsense_Sns__2__SHIFT,
 274:Generated_Source\PSoC4/capsense_Structure.c ****         (uint8)capsense_Sns__2__SHIFT * 3u,
 275:Generated_Source\PSoC4/capsense_Structure.c ****     },
 276:Generated_Source\PSoC4/capsense_Structure.c ****     { /* 9: LinearSlider_Sns3 */
 277:Generated_Source\PSoC4/capsense_Structure.c ****         (reg32 *)capsense_Sns__3__HSIOM,
 278:Generated_Source\PSoC4/capsense_Structure.c ****         (reg32 *)capsense_Sns__3__PC,
 279:Generated_Source\PSoC4/capsense_Structure.c ****         (reg32 *)capsense_Sns__3__DR,
 280:Generated_Source\PSoC4/capsense_Structure.c ****         (reg32 *)capsense_Sns__3__PS,
 281:Generated_Source\PSoC4/capsense_Structure.c ****         capsense_Sns__3__HSIOM_MASK,
 282:Generated_Source\PSoC4/capsense_Structure.c ****         capsense_Sns__3__MASK,
 283:Generated_Source\PSoC4/capsense_Structure.c ****         capsense_Sns__3__HSIOM_SHIFT,
 284:Generated_Source\PSoC4/capsense_Structure.c ****         (uint8)capsense_Sns__3__SHIFT,
 285:Generated_Source\PSoC4/capsense_Structure.c ****         (uint8)capsense_Sns__3__SHIFT * 3u,
 286:Generated_Source\PSoC4/capsense_Structure.c ****     },
 287:Generated_Source\PSoC4/capsense_Structure.c ****     { /* 10: LinearSlider_Sns4 */
 288:Generated_Source\PSoC4/capsense_Structure.c ****         (reg32 *)capsense_Sns__4__HSIOM,
 289:Generated_Source\PSoC4/capsense_Structure.c ****         (reg32 *)capsense_Sns__4__PC,
 290:Generated_Source\PSoC4/capsense_Structure.c ****         (reg32 *)capsense_Sns__4__DR,
 291:Generated_Source\PSoC4/capsense_Structure.c ****         (reg32 *)capsense_Sns__4__PS,
 292:Generated_Source\PSoC4/capsense_Structure.c ****         capsense_Sns__4__HSIOM_MASK,
 293:Generated_Source\PSoC4/capsense_Structure.c ****         capsense_Sns__4__MASK,
 294:Generated_Source\PSoC4/capsense_Structure.c ****         capsense_Sns__4__HSIOM_SHIFT,
 295:Generated_Source\PSoC4/capsense_Structure.c ****         (uint8)capsense_Sns__4__SHIFT,
 296:Generated_Source\PSoC4/capsense_Structure.c ****         (uint8)capsense_Sns__4__SHIFT * 3u,
 297:Generated_Source\PSoC4/capsense_Structure.c ****     },
 298:Generated_Source\PSoC4/capsense_Structure.c **** };
 299:Generated_Source\PSoC4/capsense_Structure.c **** 
 300:Generated_Source\PSoC4/capsense_Structure.c **** 
 301:Generated_Source\PSoC4/capsense_Structure.c **** 
 302:Generated_Source\PSoC4/capsense_Structure.c **** /** \}
 303:Generated_Source\PSoC4/capsense_Structure.c **** * \endcond */
 304:Generated_Source\PSoC4/capsense_Structure.c **** 
 305:Generated_Source\PSoC4/capsense_Structure.c **** /* Initialization data for RAM widget list */
 306:Generated_Source\PSoC4/capsense_Structure.c **** const capsense_RAM_WD_LIST_STRUCT capsense_ramWidgetInit =
 307:Generated_Source\PSoC4/capsense_Structure.c **** {
 308:Generated_Source\PSoC4/capsense_Structure.c ****     { /* BTN0 */
 309:Generated_Source\PSoC4/capsense_Structure.c ****         capsense_BTN0_RESOLUTION,
 310:Generated_Source\PSoC4/capsense_Structure.c ****         capsense_BTN0_FINGER_TH,
 311:Generated_Source\PSoC4/capsense_Structure.c ****         capsense_BTN0_NOISE_TH,
 312:Generated_Source\PSoC4/capsense_Structure.c ****         capsense_BTN0_NNOISE_TH,
 313:Generated_Source\PSoC4/capsense_Structure.c ****         capsense_BTN0_HYSTERESIS,
 314:Generated_Source\PSoC4/capsense_Structure.c ****         capsense_BTN0_ON_DEBOUNCE,
 315:Generated_Source\PSoC4/capsense_Structure.c ****         capsense_BTN0_LOW_BSLN_RST,
 316:Generated_Source\PSoC4/capsense_Structure.c ****         {
ARM GAS  C:\Users\Usuario\AppData\Local\Temp\ccPrHsje.s 			page 7


 317:Generated_Source\PSoC4/capsense_Structure.c ****             capsense_BTN0_IDAC_MOD0,
 318:Generated_Source\PSoC4/capsense_Structure.c ****         },
 319:Generated_Source\PSoC4/capsense_Structure.c ****         capsense_BTN0_IDAC_GAIN_INDEX,
 320:Generated_Source\PSoC4/capsense_Structure.c ****         capsense_BTN0_SNS_CLK,
 321:Generated_Source\PSoC4/capsense_Structure.c ****         capsense_BTN0_SNS_CLK_SOURCE,
 322:Generated_Source\PSoC4/capsense_Structure.c ****     },
 323:Generated_Source\PSoC4/capsense_Structure.c ****     { /* BTN1 */
 324:Generated_Source\PSoC4/capsense_Structure.c ****         capsense_BTN1_RESOLUTION,
 325:Generated_Source\PSoC4/capsense_Structure.c ****         capsense_BTN1_FINGER_TH,
 326:Generated_Source\PSoC4/capsense_Structure.c ****         capsense_BTN1_NOISE_TH,
 327:Generated_Source\PSoC4/capsense_Structure.c ****         capsense_BTN1_NNOISE_TH,
 328:Generated_Source\PSoC4/capsense_Structure.c ****         capsense_BTN1_HYSTERESIS,
 329:Generated_Source\PSoC4/capsense_Structure.c ****         capsense_BTN1_ON_DEBOUNCE,
 330:Generated_Source\PSoC4/capsense_Structure.c ****         capsense_BTN1_LOW_BSLN_RST,
 331:Generated_Source\PSoC4/capsense_Structure.c ****         {
 332:Generated_Source\PSoC4/capsense_Structure.c ****             capsense_BTN1_IDAC_MOD0,
 333:Generated_Source\PSoC4/capsense_Structure.c ****         },
 334:Generated_Source\PSoC4/capsense_Structure.c ****         capsense_BTN1_IDAC_GAIN_INDEX,
 335:Generated_Source\PSoC4/capsense_Structure.c ****         capsense_BTN1_SNS_CLK,
 336:Generated_Source\PSoC4/capsense_Structure.c ****         capsense_BTN1_SNS_CLK_SOURCE,
 337:Generated_Source\PSoC4/capsense_Structure.c ****     },
 338:Generated_Source\PSoC4/capsense_Structure.c ****     { /* BTN2 */
 339:Generated_Source\PSoC4/capsense_Structure.c ****         capsense_BTN2_RESOLUTION,
 340:Generated_Source\PSoC4/capsense_Structure.c ****         capsense_BTN2_FINGER_TH,
 341:Generated_Source\PSoC4/capsense_Structure.c ****         capsense_BTN2_NOISE_TH,
 342:Generated_Source\PSoC4/capsense_Structure.c ****         capsense_BTN2_NNOISE_TH,
 343:Generated_Source\PSoC4/capsense_Structure.c ****         capsense_BTN2_HYSTERESIS,
 344:Generated_Source\PSoC4/capsense_Structure.c ****         capsense_BTN2_ON_DEBOUNCE,
 345:Generated_Source\PSoC4/capsense_Structure.c ****         capsense_BTN2_LOW_BSLN_RST,
 346:Generated_Source\PSoC4/capsense_Structure.c ****         {
 347:Generated_Source\PSoC4/capsense_Structure.c ****             capsense_BTN2_IDAC_MOD0,
 348:Generated_Source\PSoC4/capsense_Structure.c ****         },
 349:Generated_Source\PSoC4/capsense_Structure.c ****         capsense_BTN2_IDAC_GAIN_INDEX,
 350:Generated_Source\PSoC4/capsense_Structure.c ****         capsense_BTN2_SNS_CLK,
 351:Generated_Source\PSoC4/capsense_Structure.c ****         capsense_BTN2_SNS_CLK_SOURCE,
 352:Generated_Source\PSoC4/capsense_Structure.c ****     },
 353:Generated_Source\PSoC4/capsense_Structure.c ****     { /* LinearSlider */
 354:Generated_Source\PSoC4/capsense_Structure.c ****         capsense_LINEARSLIDER_RESOLUTION,
 355:Generated_Source\PSoC4/capsense_Structure.c ****         capsense_LINEARSLIDER_FINGER_TH,
 356:Generated_Source\PSoC4/capsense_Structure.c ****         capsense_LINEARSLIDER_NOISE_TH,
 357:Generated_Source\PSoC4/capsense_Structure.c ****         capsense_LINEARSLIDER_NNOISE_TH,
 358:Generated_Source\PSoC4/capsense_Structure.c ****         capsense_LINEARSLIDER_HYSTERESIS,
 359:Generated_Source\PSoC4/capsense_Structure.c ****         capsense_LINEARSLIDER_ON_DEBOUNCE,
 360:Generated_Source\PSoC4/capsense_Structure.c ****         capsense_LINEARSLIDER_LOW_BSLN_RST,
 361:Generated_Source\PSoC4/capsense_Structure.c ****         {
 362:Generated_Source\PSoC4/capsense_Structure.c ****             capsense_LINEARSLIDER_IDAC_MOD0,
 363:Generated_Source\PSoC4/capsense_Structure.c ****         },
 364:Generated_Source\PSoC4/capsense_Structure.c ****         capsense_LINEARSLIDER_IDAC_GAIN_INDEX,
 365:Generated_Source\PSoC4/capsense_Structure.c ****         capsense_LINEARSLIDER_SNS_CLK,
 366:Generated_Source\PSoC4/capsense_Structure.c ****         capsense_LINEARSLIDER_SNS_CLK_SOURCE,
 367:Generated_Source\PSoC4/capsense_Structure.c ****         {
 368:Generated_Source\PSoC4/capsense_Structure.c ****             capsense_LINEARSLIDER_POSITION,
 369:Generated_Source\PSoC4/capsense_Structure.c ****         },
 370:Generated_Source\PSoC4/capsense_Structure.c ****     },
 371:Generated_Source\PSoC4/capsense_Structure.c **** };
 372:Generated_Source\PSoC4/capsense_Structure.c **** 
 373:Generated_Source\PSoC4/capsense_Structure.c **** 
ARM GAS  C:\Users\Usuario\AppData\Local\Temp\ccPrHsje.s 			page 8


 374:Generated_Source\PSoC4/capsense_Structure.c **** /* IDAC Initialization Data */
 375:Generated_Source\PSoC4/capsense_Structure.c **** const uint8 capsense_ramIdacInit[capsense_TOTAL_SENSORS] =
 376:Generated_Source\PSoC4/capsense_Structure.c **** {
 377:Generated_Source\PSoC4/capsense_Structure.c ****     /* BTN0 */
 378:Generated_Source\PSoC4/capsense_Structure.c ****     capsense_BTN0_RX0_IDAC_COMP0,
 379:Generated_Source\PSoC4/capsense_Structure.c **** 
 380:Generated_Source\PSoC4/capsense_Structure.c ****     /* BTN1 */
 381:Generated_Source\PSoC4/capsense_Structure.c ****     capsense_BTN1_RX0_IDAC_COMP0,
 382:Generated_Source\PSoC4/capsense_Structure.c **** 
 383:Generated_Source\PSoC4/capsense_Structure.c ****     /* BTN2 */
 384:Generated_Source\PSoC4/capsense_Structure.c ****     capsense_BTN2_RX0_IDAC_COMP0,
 385:Generated_Source\PSoC4/capsense_Structure.c **** 
 386:Generated_Source\PSoC4/capsense_Structure.c ****     /* LinearSlider */
 387:Generated_Source\PSoC4/capsense_Structure.c ****     capsense_LINEARSLIDER_SNS0_IDAC_COMP0,
 388:Generated_Source\PSoC4/capsense_Structure.c ****     capsense_LINEARSLIDER_SNS1_IDAC_COMP0,
 389:Generated_Source\PSoC4/capsense_Structure.c ****     capsense_LINEARSLIDER_SNS2_IDAC_COMP0,
 390:Generated_Source\PSoC4/capsense_Structure.c ****     capsense_LINEARSLIDER_SNS3_IDAC_COMP0,
 391:Generated_Source\PSoC4/capsense_Structure.c ****     capsense_LINEARSLIDER_SNS4_IDAC_COMP0,
 392:Generated_Source\PSoC4/capsense_Structure.c **** };
 393:Generated_Source\PSoC4/capsense_Structure.c **** 
 394:Generated_Source\PSoC4/capsense_Structure.c **** 
 395:Generated_Source\PSoC4/capsense_Structure.c **** 
 396:Generated_Source\PSoC4/capsense_Structure.c **** 
 397:Generated_Source\PSoC4/capsense_Structure.c **** 
 398:Generated_Source\PSoC4/capsense_Structure.c **** /*******************************************************************************
 399:Generated_Source\PSoC4/capsense_Structure.c **** * Defines internal data types and statements
 400:Generated_Source\PSoC4/capsense_Structure.c **** *******************************************************************************/
 401:Generated_Source\PSoC4/capsense_Structure.c **** #define PARAM_TYPE_OFFSET       (30u)
 402:Generated_Source\PSoC4/capsense_Structure.c **** #define PARAM_TYPE_MASK         (3Lu << PARAM_TYPE_OFFSET)
 403:Generated_Source\PSoC4/capsense_Structure.c **** #define PARAM_RWBIT_OFFSET      (29u)
 404:Generated_Source\PSoC4/capsense_Structure.c **** #define PARAM_RWBIT_MASK        (1Lu << PARAM_RWBIT_OFFSET)
 405:Generated_Source\PSoC4/capsense_Structure.c **** #define PARAM_FBIT_OFFSET       (28u)
 406:Generated_Source\PSoC4/capsense_Structure.c **** #define PARAM_FBIT_MASK         (1Lu << PARAM_FBIT_OFFSET)
 407:Generated_Source\PSoC4/capsense_Structure.c **** #define PARAM_UBIT_OFFSET       (23u)
 408:Generated_Source\PSoC4/capsense_Structure.c **** #define PARAM_UBIT_MASK         (1Lu << PARAM_UBIT_OFFSET)
 409:Generated_Source\PSoC4/capsense_Structure.c **** #define PARAM_WDID_OFFSET       (16u)
 410:Generated_Source\PSoC4/capsense_Structure.c **** #define PARAM_WDID_MASK         (0x7FLu << PARAM_WDID_OFFSET)
 411:Generated_Source\PSoC4/capsense_Structure.c **** #define PARAM_CRC_OFFSET        (24u)
 412:Generated_Source\PSoC4/capsense_Structure.c **** #define PARAM_CRC_MASK          (0x0FLu << PARAM_CRC_OFFSET)
 413:Generated_Source\PSoC4/capsense_Structure.c **** 
 414:Generated_Source\PSoC4/capsense_Structure.c **** /* Defines align masks for uint16 and uint32 */
 415:Generated_Source\PSoC4/capsense_Structure.c **** #define UINT16_ALIGN_MASK       (1Lu)
 416:Generated_Source\PSoC4/capsense_Structure.c **** #define UINT32_ALIGN_MASK       (3Lu)
 417:Generated_Source\PSoC4/capsense_Structure.c **** 
 418:Generated_Source\PSoC4/capsense_Structure.c **** /* Defines supported parameter types */
 419:Generated_Source\PSoC4/capsense_Structure.c **** #define DS_PARAM_TYPE_UINT8     (0x01u)
 420:Generated_Source\PSoC4/capsense_Structure.c **** #define DS_PARAM_TYPE_UINT16    (0x02u)
 421:Generated_Source\PSoC4/capsense_Structure.c **** #define DS_PARAM_TYPE_UINT32    (0x03u)
 422:Generated_Source\PSoC4/capsense_Structure.c **** 
 423:Generated_Source\PSoC4/capsense_Structure.c **** 
 424:Generated_Source\PSoC4/capsense_Structure.c **** /* Defines PARAM_ID structure */
 425:Generated_Source\PSoC4/capsense_Structure.c **** typedef struct
 426:Generated_Source\PSoC4/capsense_Structure.c **** {
 427:Generated_Source\PSoC4/capsense_Structure.c ****     uint16 offset;      /* parameter offset */
 428:Generated_Source\PSoC4/capsense_Structure.c ****     uint8  widgetId;    /* widget Id parameter belongs to */
 429:Generated_Source\PSoC4/capsense_Structure.c ****     uint8  affectsCrc;  /* parameter affects widget CRC */
 430:Generated_Source\PSoC4/capsense_Structure.c ****     uint8  crc;         /* parameter CRC */
ARM GAS  C:\Users\Usuario\AppData\Local\Temp\ccPrHsje.s 			page 9


 431:Generated_Source\PSoC4/capsense_Structure.c ****     uint8  flash;       /* parameter located in FLASH flag */
 432:Generated_Source\PSoC4/capsense_Structure.c ****     uint8  rw;          /* parameter is read/write flag */
 433:Generated_Source\PSoC4/capsense_Structure.c ****     uint8  type;        /* parameter type: uint8/uint16/uint32 */
 434:Generated_Source\PSoC4/capsense_Structure.c **** } PARAM_ID_STRUCT;
 435:Generated_Source\PSoC4/capsense_Structure.c **** 
 436:Generated_Source\PSoC4/capsense_Structure.c **** 
 437:Generated_Source\PSoC4/capsense_Structure.c **** /*******************************************************************************
 438:Generated_Source\PSoC4/capsense_Structure.c **** * Static Function Prototypes
 439:Generated_Source\PSoC4/capsense_Structure.c **** *******************************************************************************/
 440:Generated_Source\PSoC4/capsense_Structure.c **** /**
 441:Generated_Source\PSoC4/capsense_Structure.c **** * \cond SECTION_C_INTERNAL
 442:Generated_Source\PSoC4/capsense_Structure.c **** * \addtogroup group_c_internal
 443:Generated_Source\PSoC4/capsense_Structure.c **** * \{
 444:Generated_Source\PSoC4/capsense_Structure.c **** */
 445:Generated_Source\PSoC4/capsense_Structure.c **** 
 446:Generated_Source\PSoC4/capsense_Structure.c **** 
 447:Generated_Source\PSoC4/capsense_Structure.c **** 
 448:Generated_Source\PSoC4/capsense_Structure.c **** static cystatus DsParseParamId(uint32 paramId, PARAM_ID_STRUCT *pData);
 449:Generated_Source\PSoC4/capsense_Structure.c **** 
 450:Generated_Source\PSoC4/capsense_Structure.c **** /** \}
 451:Generated_Source\PSoC4/capsense_Structure.c **** * \endcond */
 452:Generated_Source\PSoC4/capsense_Structure.c **** 
 453:Generated_Source\PSoC4/capsense_Structure.c **** 
 454:Generated_Source\PSoC4/capsense_Structure.c **** /*******************************************************************************
 455:Generated_Source\PSoC4/capsense_Structure.c **** * Function Name: capsense_DsInitialize
 456:Generated_Source\PSoC4/capsense_Structure.c **** ****************************************************************************//**
 457:Generated_Source\PSoC4/capsense_Structure.c **** *
 458:Generated_Source\PSoC4/capsense_Structure.c **** * \brief
 459:Generated_Source\PSoC4/capsense_Structure.c **** *   This function initializes the Data Structure storage.
 460:Generated_Source\PSoC4/capsense_Structure.c **** *
 461:Generated_Source\PSoC4/capsense_Structure.c **** * \details
 462:Generated_Source\PSoC4/capsense_Structure.c **** *   This function copies the default widget configuration parameters
 463:Generated_Source\PSoC4/capsense_Structure.c **** *   from the Flash storage into the RAM Data Structure.
 464:Generated_Source\PSoC4/capsense_Structure.c **** *
 465:Generated_Source\PSoC4/capsense_Structure.c **** *******************************************************************************/
 466:Generated_Source\PSoC4/capsense_Structure.c **** void capsense_DsInitialize(void)
 467:Generated_Source\PSoC4/capsense_Structure.c **** {
 468:Generated_Source\PSoC4/capsense_Structure.c ****     #if ((capsense_ENABLE == capsense_CSX_EN) || \
 469:Generated_Source\PSoC4/capsense_Structure.c ****          (capsense_ENABLE == capsense_CSD_IDAC_COMP_EN) || \
 470:Generated_Source\PSoC4/capsense_Structure.c ****         ((capsense_ENABLE == capsense_CSX_EN) && \
 471:Generated_Source\PSoC4/capsense_Structure.c ****          (capsense_ENABLE == capsense_CSX_SKIP_OVSMPL_SPECIFIC_NODES)))
 472:Generated_Source\PSoC4/capsense_Structure.c ****         uint32 snsId;
 473:Generated_Source\PSoC4/capsense_Structure.c ****         uint32 wdgtId;
 474:Generated_Source\PSoC4/capsense_Structure.c ****         capsense_RAM_SNS_STRUCT * ptrSnsTmp;
 475:Generated_Source\PSoC4/capsense_Structure.c ****         capsense_FLASH_WD_STRUCT const * ptrFlashWdgt;
 476:Generated_Source\PSoC4/capsense_Structure.c ****     #endif
 477:Generated_Source\PSoC4/capsense_Structure.c **** 
 478:Generated_Source\PSoC4/capsense_Structure.c ****     #if ((capsense_ENABLE == capsense_CSX_EN) && \
 479:Generated_Source\PSoC4/capsense_Structure.c ****          (capsense_ENABLE == capsense_CSX_SKIP_OVSMPL_SPECIFIC_NODES))
 480:Generated_Source\PSoC4/capsense_Structure.c ****         uint16 subConvNumber;
 481:Generated_Source\PSoC4/capsense_Structure.c ****     #endif
 482:Generated_Source\PSoC4/capsense_Structure.c **** 
 483:Generated_Source\PSoC4/capsense_Structure.c ****     #if ((0u != capsense_CSX_EN) || (0 != capsense_CSD_IDAC_COMP_EN))
 484:Generated_Source\PSoC4/capsense_Structure.c ****         uint8 const * ptrIdacInit = capsense_ramIdacInit;
 485:Generated_Source\PSoC4/capsense_Structure.c ****     #endif
 486:Generated_Source\PSoC4/capsense_Structure.c **** 
 487:Generated_Source\PSoC4/capsense_Structure.c ****     /* Reset RAM data structure content */
ARM GAS  C:\Users\Usuario\AppData\Local\Temp\ccPrHsje.s 			page 10


 488:Generated_Source\PSoC4/capsense_Structure.c ****     (void)memset(&capsense_dsRam, 0, sizeof(capsense_dsRam));
 489:Generated_Source\PSoC4/capsense_Structure.c **** 
 490:Generated_Source\PSoC4/capsense_Structure.c ****     /* Initialize configId, deviceId and hwClock registers */
 491:Generated_Source\PSoC4/capsense_Structure.c ****     capsense_dsRam.configId = capsense_CONFIG_ID;
 492:Generated_Source\PSoC4/capsense_Structure.c ****     capsense_dsRam.deviceId = capsense_DEVICE_ID;
 493:Generated_Source\PSoC4/capsense_Structure.c ****     capsense_dsRam.hwClock = capsense_HW_CLOCK;
 494:Generated_Source\PSoC4/capsense_Structure.c **** 
 495:Generated_Source\PSoC4/capsense_Structure.c ****     /* Initialize global RAM data */
 496:Generated_Source\PSoC4/capsense_Structure.c ****     capsense_dsRam.csd0Config = capsense_CSD0_CONFIG;
 497:Generated_Source\PSoC4/capsense_Structure.c **** 
 498:Generated_Source\PSoC4/capsense_Structure.c ****     capsense_dsRam.scanCurrentISC = capsense_SNS_CONNECTION_UNDEFINED;
 499:Generated_Source\PSoC4/capsense_Structure.c ****     #if (0u != capsense_TOTAL_CSD_WIDGETS)
 500:Generated_Source\PSoC4/capsense_Structure.c ****         capsense_dsRam.modCsdClk = capsense_CSD_SCANSPEED_DIVIDER;
 501:Generated_Source\PSoC4/capsense_Structure.c ****         capsense_dsRam.scanCsdISC = capsense_CSD_INACTIVE_SNS_CONNECTION;
 502:Generated_Source\PSoC4/capsense_Structure.c **** 
 503:Generated_Source\PSoC4/capsense_Structure.c ****         #if (0u != capsense_CSD_COMMON_SNS_CLK_EN)
 504:Generated_Source\PSoC4/capsense_Structure.c ****             capsense_dsRam.snsCsdClk = capsense_CSD_SNS_CLK_DIVIDER;
 505:Generated_Source\PSoC4/capsense_Structure.c ****         #endif /* #if (0u != capsense_CSD_COMMON_SNS_CLK_EN) */
 506:Generated_Source\PSoC4/capsense_Structure.c ****     #endif /* #if (0u != capsense_TOTAL_CSD_WIDGETS) */
 507:Generated_Source\PSoC4/capsense_Structure.c **** 
 508:Generated_Source\PSoC4/capsense_Structure.c ****     #if (capsense_ENABLE == capsense_CSX_EN)
 509:Generated_Source\PSoC4/capsense_Structure.c ****         capsense_dsRam.modCsxClk = capsense_CSX_SCANSPEED_DIVIDER;
 510:Generated_Source\PSoC4/capsense_Structure.c ****         capsense_dsRam.scanCsxISC = capsense_CSX_INACTIVE_SNS_CONNECTION;
 511:Generated_Source\PSoC4/capsense_Structure.c **** 
 512:Generated_Source\PSoC4/capsense_Structure.c ****         #if (0u != capsense_CSX_COMMON_TX_CLK_EN)
 513:Generated_Source\PSoC4/capsense_Structure.c ****             capsense_dsRam.snsCsxClk = capsense_CSX_TX_CLK_DIVIDER;
 514:Generated_Source\PSoC4/capsense_Structure.c ****         #endif /* #if (0u != capsense_CSX_COMMON_TX_CLK_EN) */
 515:Generated_Source\PSoC4/capsense_Structure.c ****     #endif /* #if (capsense_ENABLE == capsense_CSX_EN) */
 516:Generated_Source\PSoC4/capsense_Structure.c **** 
 517:Generated_Source\PSoC4/capsense_Structure.c ****     #if (capsense_ENABLE == capsense_ISX_EN)
 518:Generated_Source\PSoC4/capsense_Structure.c ****         capsense_dsRam.modIsxClk = capsense_ISX_SCANSPEED_DIVIDER;
 519:Generated_Source\PSoC4/capsense_Structure.c ****     #endif /* #if (0u != capsense_ISX_EN) */
 520:Generated_Source\PSoC4/capsense_Structure.c **** 
 521:Generated_Source\PSoC4/capsense_Structure.c ****     #if (0u != capsense_SELF_TEST_EN)
 522:Generated_Source\PSoC4/capsense_Structure.c **** 
 523:Generated_Source\PSoC4/capsense_Structure.c ****         capsense_dsRam.glbCrc = capsense_GLB_CRC;
 524:Generated_Source\PSoC4/capsense_Structure.c ****         capsense_dsRam.selfTestConfig.fineInitTime = (uint8)capsense_TST_FINE_INIT_TIME;
 525:Generated_Source\PSoC4/capsense_Structure.c ****         capsense_dsRam.selfTestConfig.startupDelay = capsense_TST_ANALOG_STARTUP_DELAY_US;
 526:Generated_Source\PSoC4/capsense_Structure.c **** 
 527:Generated_Source\PSoC4/capsense_Structure.c ****         #if (0u != capsense_TST_SNS_SHORT_EN)
 528:Generated_Source\PSoC4/capsense_Structure.c ****             capsense_dsRam.selfTestConfig.snsShortTimeUs = capsense_TST_SNS_SHORT_TIME;
 529:Generated_Source\PSoC4/capsense_Structure.c ****         #endif
 530:Generated_Source\PSoC4/capsense_Structure.c **** 
 531:Generated_Source\PSoC4/capsense_Structure.c ****         #if ((0u != capsense_TST_SNS_CAP_EN) ||\
 532:Generated_Source\PSoC4/capsense_Structure.c ****              (0u != capsense_TST_SH_CAP_EN))
 533:Generated_Source\PSoC4/capsense_Structure.c ****             capsense_dsRam.selfTestConfig.snsCapSnsClkDivider = capsense_TST_SNS_CAP_SNS_CLK_DIVIDE
 534:Generated_Source\PSoC4/capsense_Structure.c ****             capsense_dsRam.selfTestConfig.snsCapSnsClkHz = capsense_TST_SNS_CAP_SNS_CLK_HZ;
 535:Generated_Source\PSoC4/capsense_Structure.c ****             capsense_dsRam.selfTestConfig.snsCapResolution = capsense_TST_SNS_CAP_RESOLUTION;
 536:Generated_Source\PSoC4/capsense_Structure.c ****             capsense_dsRam.selfTestConfig.snsCapVrefGain = capsense_TST_SNS_CAP_VREF_GAIN ;
 537:Generated_Source\PSoC4/capsense_Structure.c ****             capsense_dsRam.selfTestConfig.snsCapVrefVoltage = capsense_TST_SNS_CAP_VREF_MV;
 538:Generated_Source\PSoC4/capsense_Structure.c ****             capsense_dsRam.selfTestConfig.snsCapModClkDivider = capsense_TST_MOD_CLK_DIVIDER ;
 539:Generated_Source\PSoC4/capsense_Structure.c ****             capsense_dsRam.selfTestConfig.snsCapModClkKHz = capsense_TST_MOD_CLK_KHZ ;
 540:Generated_Source\PSoC4/capsense_Structure.c ****         #endif /* ((0u != capsense_TST_SNS_CAP_EN) ||
 541:Generated_Source\PSoC4/capsense_Structure.c ****                    (0u != capsense_TST_SH_CAP_EN)) */
 542:Generated_Source\PSoC4/capsense_Structure.c **** 
 543:Generated_Source\PSoC4/capsense_Structure.c ****         #if (0u != capsense_TST_SNS_CAP_EN)
 544:Generated_Source\PSoC4/capsense_Structure.c ****             #if (0u != capsense_CSD_EN)
ARM GAS  C:\Users\Usuario\AppData\Local\Temp\ccPrHsje.s 			page 11


 545:Generated_Source\PSoC4/capsense_Structure.c ****                 capsense_dsRam.selfTestConfig.bistCsdSnsCapISC = capsense_SNS_CAP_CSD_INACTIVE_CONN
 546:Generated_Source\PSoC4/capsense_Structure.c ****             #endif /* (0u != capsense_CSD_EN) */
 547:Generated_Source\PSoC4/capsense_Structure.c ****             #if (0u != capsense_CSX_EN)
 548:Generated_Source\PSoC4/capsense_Structure.c ****                 capsense_dsRam.selfTestConfig.bistCsxSnsCapISC = capsense_SNS_CAP_CSX_INACTIVE_CONN
 549:Generated_Source\PSoC4/capsense_Structure.c ****             #endif /* (0u != capsense_CSX_EN) */
 550:Generated_Source\PSoC4/capsense_Structure.c ****         #endif /* (0u != capsense_TST_SNS_CAP_EN) */
 551:Generated_Source\PSoC4/capsense_Structure.c **** 
 552:Generated_Source\PSoC4/capsense_Structure.c ****         #if (0u != capsense_TST_SH_CAP_EN)
 553:Generated_Source\PSoC4/capsense_Structure.c ****             #if ((0u != capsense_CSD_EN) && (0u != capsense_CSD_SHIELD_EN))
 554:Generated_Source\PSoC4/capsense_Structure.c ****                 capsense_dsRam.selfTestConfig.bistCsdShCapISC = capsense_SHIELD_CAP_INACTIVE_CONNEC
 555:Generated_Source\PSoC4/capsense_Structure.c ****             #endif /* ((0u != capsense_CSD_EN) && (0u != capsense_CSD_SHIELD_EN)) */
 556:Generated_Source\PSoC4/capsense_Structure.c ****         #endif /* (0u != capsense_TST_SH_CAP_EN) */
 557:Generated_Source\PSoC4/capsense_Structure.c **** 
 558:Generated_Source\PSoC4/capsense_Structure.c ****         #if (0u != capsense_TST_EXTERNAL_CAP_EN)
 559:Generated_Source\PSoC4/capsense_Structure.c ****             capsense_dsRam.selfTestConfig.extCapVrefGain = capsense_TST_EXT_CAP_VREF_GAIN;
 560:Generated_Source\PSoC4/capsense_Structure.c ****             capsense_dsRam.selfTestConfig.extCapVrefVoltage = capsense_TST_EXT_CAP_VREF_MV;
 561:Generated_Source\PSoC4/capsense_Structure.c ****         #endif /* #if (0u != capsense_TST_EXTERNAL_CAP_EN) */
 562:Generated_Source\PSoC4/capsense_Structure.c **** 
 563:Generated_Source\PSoC4/capsense_Structure.c ****         #if (0u != capsense_TST_VDDA_EN)
 564:Generated_Source\PSoC4/capsense_Structure.c ****             capsense_dsRam.selfTestConfig.vddaResolution = capsense_TST_VDDA_RESOLUTION;
 565:Generated_Source\PSoC4/capsense_Structure.c ****             capsense_dsRam.selfTestConfig.vddaModClkDivider = capsense_TST_VDDA_MOD_CLK_DIVIDER;
 566:Generated_Source\PSoC4/capsense_Structure.c **** 
 567:Generated_Source\PSoC4/capsense_Structure.c ****             capsense_dsRam.selfTestConfig.vddaVrefGain = capsense_TST_VDDA_VREF_GAIN;
 568:Generated_Source\PSoC4/capsense_Structure.c ****             capsense_dsRam.selfTestConfig.vddaVrefVoltage = capsense_TST_VDDA_VREF_MV;
 569:Generated_Source\PSoC4/capsense_Structure.c ****         #endif /* #if (0u != capsense_TST_VDDA_EN) */
 570:Generated_Source\PSoC4/capsense_Structure.c **** 
 571:Generated_Source\PSoC4/capsense_Structure.c ****     #endif /* #if (0u != capsense_SELF_TEST_EN) */
 572:Generated_Source\PSoC4/capsense_Structure.c **** 
 573:Generated_Source\PSoC4/capsense_Structure.c ****     /* Initialize RAM widget data */
 574:Generated_Source\PSoC4/capsense_Structure.c ****     capsense_dsRam.wdgtList = capsense_ramWidgetInit;
 575:Generated_Source\PSoC4/capsense_Structure.c **** 
 576:Generated_Source\PSoC4/capsense_Structure.c ****     /* Initialize Gesture configuration structure */
 577:Generated_Source\PSoC4/capsense_Structure.c ****     #if ((0u != capsense_GES_GLOBAL_EN) || (0u != capsense_BALLISTIC_MULTIPLIER_EN))
 578:Generated_Source\PSoC4/capsense_Structure.c ****         capsense_dsRam.timestampInterval = capsense_TIMESTAMP_INTERVAL;
 579:Generated_Source\PSoC4/capsense_Structure.c ****     #endif /* ((0u != capsense_GES_GLOBAL_EN) || (0u != capsense_BALLISTIC_MULTIPLIER_EN)) */
 580:Generated_Source\PSoC4/capsense_Structure.c **** 
 581:Generated_Source\PSoC4/capsense_Structure.c ****     #if (0u != capsense_GES_GLOBAL_EN)
 582:Generated_Source\PSoC4/capsense_Structure.c ****         capsense_dsRam.gestures = capsense_ramGesturesInit;
 583:Generated_Source\PSoC4/capsense_Structure.c ****     #endif /* (0u != capsense_GES_GLOBAL_EN) */
 584:Generated_Source\PSoC4/capsense_Structure.c **** 
 585:Generated_Source\PSoC4/capsense_Structure.c ****     #if (0u != capsense_BALLISTIC_MULTIPLIER_EN)
 586:Generated_Source\PSoC4/capsense_Structure.c ****         capsense_dsRam.ballisticConfig = capsense_ramBallisticInit;
 587:Generated_Source\PSoC4/capsense_Structure.c ****     #endif /* (0u != capsense_BALLISTIC_MULTIPLIER_EN) */
 588:Generated_Source\PSoC4/capsense_Structure.c **** 
 589:Generated_Source\PSoC4/capsense_Structure.c ****     #if (0u != capsense_CSX_EN) || (0 != capsense_CSD_IDAC_COMP_EN)
 590:Generated_Source\PSoC4/capsense_Structure.c ****         /* Initialize IDAC data */
 591:Generated_Source\PSoC4/capsense_Structure.c ****         ptrFlashWdgt = capsense_dsFlash.wdgtArray;
 592:Generated_Source\PSoC4/capsense_Structure.c **** 
 593:Generated_Source\PSoC4/capsense_Structure.c ****         for (wdgtId = capsense_TOTAL_WIDGETS; wdgtId-- > 0u; )
 594:Generated_Source\PSoC4/capsense_Structure.c ****         {
 595:Generated_Source\PSoC4/capsense_Structure.c ****             ptrSnsTmp = ptrFlashWdgt->ptr2SnsRam;
 596:Generated_Source\PSoC4/capsense_Structure.c **** 
 597:Generated_Source\PSoC4/capsense_Structure.c ****             for (snsId = capsense_GET_SNS_CNT_BY_PTR(ptrFlashWdgt); snsId-- > 0u;)
 598:Generated_Source\PSoC4/capsense_Structure.c ****             {
 599:Generated_Source\PSoC4/capsense_Structure.c ****                 ptrSnsTmp->idacComp[0u] = *ptrIdacInit;
 600:Generated_Source\PSoC4/capsense_Structure.c ****                 ptrIdacInit++;
 601:Generated_Source\PSoC4/capsense_Structure.c **** 
ARM GAS  C:\Users\Usuario\AppData\Local\Temp\ccPrHsje.s 			page 12


 602:Generated_Source\PSoC4/capsense_Structure.c ****                 #if (0u != capsense_MULTI_FREQ_SCAN_EN)
 603:Generated_Source\PSoC4/capsense_Structure.c ****                     ptrSnsTmp->idacComp[1u] = *ptrIdacInit;
 604:Generated_Source\PSoC4/capsense_Structure.c ****                     ptrIdacInit++;
 605:Generated_Source\PSoC4/capsense_Structure.c **** 
 606:Generated_Source\PSoC4/capsense_Structure.c ****                     ptrSnsTmp->idacComp[2u] = *ptrIdacInit;
 607:Generated_Source\PSoC4/capsense_Structure.c ****                     ptrIdacInit++;
 608:Generated_Source\PSoC4/capsense_Structure.c ****                 #endif /* #if (0u != capsense_MULTI_FREQ_SCAN_EN) */
 609:Generated_Source\PSoC4/capsense_Structure.c **** 
 610:Generated_Source\PSoC4/capsense_Structure.c ****                 ptrSnsTmp++;
 611:Generated_Source\PSoC4/capsense_Structure.c ****             }
 612:Generated_Source\PSoC4/capsense_Structure.c **** 
 613:Generated_Source\PSoC4/capsense_Structure.c ****             ptrFlashWdgt++; /* Move to next widget */
 614:Generated_Source\PSoC4/capsense_Structure.c ****         }
 615:Generated_Source\PSoC4/capsense_Structure.c ****     #endif /*(0u != capsense_CSX_EN) || (0 != capsense_CSD_IDAC_COMP_EN)*/
 616:Generated_Source\PSoC4/capsense_Structure.c **** 
 617:Generated_Source\PSoC4/capsense_Structure.c ****     #if ((capsense_ENABLE == capsense_CSX_EN) && \
 618:Generated_Source\PSoC4/capsense_Structure.c ****          (capsense_ENABLE == capsense_CSX_SKIP_OVSMPL_SPECIFIC_NODES))
 619:Generated_Source\PSoC4/capsense_Structure.c ****         /* Initialize Sub-Conversion Number for each node of each CSX widget */
 620:Generated_Source\PSoC4/capsense_Structure.c ****         ptrFlashWdgt = capsense_dsFlash.wdgtArray;
 621:Generated_Source\PSoC4/capsense_Structure.c ****         for (wdgtId = capsense_TOTAL_WIDGETS; wdgtId-- > 0u;)
 622:Generated_Source\PSoC4/capsense_Structure.c ****         {
 623:Generated_Source\PSoC4/capsense_Structure.c ****             /* Check for widget sense method */
 624:Generated_Source\PSoC4/capsense_Structure.c ****             if (capsense_SENSE_METHOD_CSX_E == capsense_GET_SENSE_METHOD(ptrFlashWdgt))
 625:Generated_Source\PSoC4/capsense_Structure.c ****             {
 626:Generated_Source\PSoC4/capsense_Structure.c ****                 /* Take the sub-convesion number of a CSX widget and initialize each node of this w
 627:Generated_Source\PSoC4/capsense_Structure.c ****                 subConvNumber = ((capsense_RAM_WD_BASE_STRUCT *)(ptrFlashWdgt->ptr2WdgtRam))->resol
 628:Generated_Source\PSoC4/capsense_Structure.c ****                 ptrSnsTmp = ptrFlashWdgt->ptr2SnsRam;
 629:Generated_Source\PSoC4/capsense_Structure.c ****                 for (snsId = capsense_GET_SNS_CNT_BY_PTR(ptrFlashWdgt); snsId-- > 0u;)
 630:Generated_Source\PSoC4/capsense_Structure.c ****                 {
 631:Generated_Source\PSoC4/capsense_Structure.c ****                     ptrSnsTmp->subConvNum = subConvNumber;
 632:Generated_Source\PSoC4/capsense_Structure.c ****                     ptrSnsTmp++;
 633:Generated_Source\PSoC4/capsense_Structure.c ****                 }
 634:Generated_Source\PSoC4/capsense_Structure.c ****             }
 635:Generated_Source\PSoC4/capsense_Structure.c ****             /* Move to the next widget */
 636:Generated_Source\PSoC4/capsense_Structure.c ****             ptrFlashWdgt++;
 637:Generated_Source\PSoC4/capsense_Structure.c ****         }
 638:Generated_Source\PSoC4/capsense_Structure.c ****     #endif /* ((capsense_ENABLE == capsense_CSX_EN) && \
 639:Generated_Source\PSoC4/capsense_Structure.c ****                (capsense_ENABLE == capsense_CSX_SKIP_OVSMPL_SPECIFIC_NODES)) */
 640:Generated_Source\PSoC4/capsense_Structure.c **** 
 641:Generated_Source\PSoC4/capsense_Structure.c ****     #if (0u != capsense_ADC_EN)
 642:Generated_Source\PSoC4/capsense_Structure.c ****         capsense_AdcDsInitialize();
 643:Generated_Source\PSoC4/capsense_Structure.c ****     #endif /* (0u != capsense_ADC_EN) */
 644:Generated_Source\PSoC4/capsense_Structure.c **** }
 645:Generated_Source\PSoC4/capsense_Structure.c **** 
 646:Generated_Source\PSoC4/capsense_Structure.c **** 
 647:Generated_Source\PSoC4/capsense_Structure.c **** #if (0u != capsense_ADC_EN)
 648:Generated_Source\PSoC4/capsense_Structure.c ****     /*******************************************************************************
 649:Generated_Source\PSoC4/capsense_Structure.c ****     * Function Name: capsense_AdcDsInitialize
 650:Generated_Source\PSoC4/capsense_Structure.c ****     ****************************************************************************//**
 651:Generated_Source\PSoC4/capsense_Structure.c ****     *
 652:Generated_Source\PSoC4/capsense_Structure.c ****     * \brief
 653:Generated_Source\PSoC4/capsense_Structure.c ****     *   Configures the initial Adc datastructure members.
 654:Generated_Source\PSoC4/capsense_Structure.c ****     *
 655:Generated_Source\PSoC4/capsense_Structure.c ****     *******************************************************************************/
 656:Generated_Source\PSoC4/capsense_Structure.c ****     void capsense_AdcDsInitialize(void)
 657:Generated_Source\PSoC4/capsense_Structure.c ****     {
 658:Generated_Source\PSoC4/capsense_Structure.c ****         capsense_dsRam.adcResolution = capsense_ADC_RESOLUTION;
ARM GAS  C:\Users\Usuario\AppData\Local\Temp\ccPrHsje.s 			page 13


 659:Generated_Source\PSoC4/capsense_Structure.c ****         capsense_dsRam.adcIdac = (uint8)(capsense_ADC_IDAC_DEFAULT);
 660:Generated_Source\PSoC4/capsense_Structure.c ****         capsense_dsRam.adcActiveCh = capsense_AdcNO_CHANNEL;
 661:Generated_Source\PSoC4/capsense_Structure.c ****     }
 662:Generated_Source\PSoC4/capsense_Structure.c **** #endif /* (0u != capsense_ADC_EN) */
 663:Generated_Source\PSoC4/capsense_Structure.c **** 
 664:Generated_Source\PSoC4/capsense_Structure.c **** 
 665:Generated_Source\PSoC4/capsense_Structure.c **** /*******************************************************************************
 666:Generated_Source\PSoC4/capsense_Structure.c **** * Function Name: DsParseParamId
 667:Generated_Source\PSoC4/capsense_Structure.c **** ****************************************************************************//**
 668:Generated_Source\PSoC4/capsense_Structure.c **** *
 669:Generated_Source\PSoC4/capsense_Structure.c **** * \brief
 670:Generated_Source\PSoC4/capsense_Structure.c **** *   This function parses the parameter ID and checks its correctness.
 671:Generated_Source\PSoC4/capsense_Structure.c **** *
 672:Generated_Source\PSoC4/capsense_Structure.c **** * \details
 673:Generated_Source\PSoC4/capsense_Structure.c **** *   This function checks the parameter CRC if the self-test is enabled,
 674:Generated_Source\PSoC4/capsense_Structure.c **** *   validates the offset value and parameter type.
 675:Generated_Source\PSoC4/capsense_Structure.c **** *
 676:Generated_Source\PSoC4/capsense_Structure.c **** * \param paramId The parameter to parse.
 677:Generated_Source\PSoC4/capsense_Structure.c **** * \param pData   The pointer to the structure that will hold parsed data.
 678:Generated_Source\PSoC4/capsense_Structure.c **** *
 679:Generated_Source\PSoC4/capsense_Structure.c **** * \return CYRET_SUCCESS     If the parameter is valid
 680:Generated_Source\PSoC4/capsense_Structure.c **** *         CYRET_BAD_PARAM   If the parameter is invalid
 681:Generated_Source\PSoC4/capsense_Structure.c **** *
 682:Generated_Source\PSoC4/capsense_Structure.c **** *******************************************************************************/
 683:Generated_Source\PSoC4/capsense_Structure.c **** static cystatus DsParseParamId(uint32 paramId, PARAM_ID_STRUCT *pData)
 684:Generated_Source\PSoC4/capsense_Structure.c **** {
  27              		.loc 1 684 0
  28              		.cfi_startproc
  29              		@ args = 0, pretend = 0, frame = 0
  30              		@ frame_needed = 0, uses_anonymous_args = 0
  31              	.LVL0:
  32 0000 70B5     		push	{r4, r5, r6, lr}
  33              		.cfi_def_cfa_offset 16
  34              		.cfi_offset 4, -16
  35              		.cfi_offset 5, -12
  36              		.cfi_offset 6, -8
  37              		.cfi_offset 14, -4
  38              	.LVL1:
 685:Generated_Source\PSoC4/capsense_Structure.c ****     cystatus result = CYRET_SUCCESS;
 686:Generated_Source\PSoC4/capsense_Structure.c **** 
 687:Generated_Source\PSoC4/capsense_Structure.c ****     #if (0u != capsense_SELF_TEST_EN)
 688:Generated_Source\PSoC4/capsense_Structure.c ****         const uint8 crcTable[] =
 689:Generated_Source\PSoC4/capsense_Structure.c ****         {
 690:Generated_Source\PSoC4/capsense_Structure.c ****             0x00u, 0x09u, 0x0Bu, 0x02u, 0x0Fu, 0x06u, 0x04u, 0x0Du,
 691:Generated_Source\PSoC4/capsense_Structure.c ****             0x07u, 0x0Eu, 0x0Cu, 0x05u, 0x08u, 0x01u, 0x03u, 0x0Au
 692:Generated_Source\PSoC4/capsense_Structure.c ****         };
 693:Generated_Source\PSoC4/capsense_Structure.c **** 
 694:Generated_Source\PSoC4/capsense_Structure.c ****         uint32 i;
 695:Generated_Source\PSoC4/capsense_Structure.c ****         uint32 actualCrc = 0u;
 696:Generated_Source\PSoC4/capsense_Structure.c ****         uint32 crcIndex;
 697:Generated_Source\PSoC4/capsense_Structure.c ****     #endif /* #if (0u != capsense_SELF_TEST_EN) */
 698:Generated_Source\PSoC4/capsense_Structure.c **** 
 699:Generated_Source\PSoC4/capsense_Structure.c ****     /* Extract parameter data */
 700:Generated_Source\PSoC4/capsense_Structure.c ****     pData->offset     = LO16(paramId);
  39              		.loc 1 700 0
  40 0002 85B2     		uxth	r5, r0
  41 0004 0D80     		strh	r5, [r1]
ARM GAS  C:\Users\Usuario\AppData\Local\Temp\ccPrHsje.s 			page 14


 701:Generated_Source\PSoC4/capsense_Structure.c ****     pData->affectsCrc = LO8((paramId & PARAM_UBIT_MASK)  >> PARAM_UBIT_OFFSET);
  42              		.loc 1 701 0
  43 0006 C30D     		lsrs	r3, r0, #23
  44 0008 0124     		movs	r4, #1
  45 000a 2340     		ands	r3, r4
  46 000c CB70     		strb	r3, [r1, #3]
 702:Generated_Source\PSoC4/capsense_Structure.c ****     pData->widgetId   = LO8((paramId & PARAM_WDID_MASK)  >> PARAM_WDID_OFFSET);
  47              		.loc 1 702 0
  48 000e 030C     		lsrs	r3, r0, #16
  49 0010 7F22     		movs	r2, #127
  50 0012 1340     		ands	r3, r2
  51 0014 8B70     		strb	r3, [r1, #2]
 703:Generated_Source\PSoC4/capsense_Structure.c ****     pData->type       = LO8((paramId & PARAM_TYPE_MASK)  >> PARAM_TYPE_OFFSET);
  52              		.loc 1 703 0
  53 0016 860F     		lsrs	r6, r0, #30
  54 0018 CE71     		strb	r6, [r1, #7]
 704:Generated_Source\PSoC4/capsense_Structure.c ****     pData->flash      = LO8((paramId & PARAM_FBIT_MASK)  >> PARAM_FBIT_OFFSET);
  55              		.loc 1 704 0
  56 001a 030F     		lsrs	r3, r0, #28
  57 001c 2340     		ands	r3, r4
  58 001e 4B71     		strb	r3, [r1, #5]
 705:Generated_Source\PSoC4/capsense_Structure.c ****     pData->rw         = LO8((paramId & PARAM_RWBIT_MASK) >> PARAM_RWBIT_OFFSET);
  59              		.loc 1 705 0
  60 0020 420F     		lsrs	r2, r0, #29
  61 0022 2240     		ands	r2, r4
  62 0024 8A71     		strb	r2, [r1, #6]
 706:Generated_Source\PSoC4/capsense_Structure.c ****     pData->crc        = LO8((paramId & PARAM_CRC_MASK)   >> PARAM_CRC_OFFSET);
  63              		.loc 1 706 0
  64 0026 000E     		lsrs	r0, r0, #24
  65              	.LVL2:
  66 0028 0E34     		adds	r4, r4, #14
  67 002a 2040     		ands	r0, r4
  68 002c 0871     		strb	r0, [r1, #4]
 707:Generated_Source\PSoC4/capsense_Structure.c **** 
 708:Generated_Source\PSoC4/capsense_Structure.c ****     /* Check parameter CRC if self-test is enabled */
 709:Generated_Source\PSoC4/capsense_Structure.c ****     #if (0u != capsense_SELF_TEST_EN)
 710:Generated_Source\PSoC4/capsense_Structure.c **** 
 711:Generated_Source\PSoC4/capsense_Structure.c ****         /* Calculate CRC for bits 0..24.
 712:Generated_Source\PSoC4/capsense_Structure.c ****          * The CRC is calculated using nibbles (4-bits).
 713:Generated_Source\PSoC4/capsense_Structure.c ****          * So for 0..24 bits there are in total 6 nibbles. */
 714:Generated_Source\PSoC4/capsense_Structure.c ****         for (i = 6u; i > 0u; i--)
 715:Generated_Source\PSoC4/capsense_Structure.c ****         {
 716:Generated_Source\PSoC4/capsense_Structure.c ****             crcIndex = actualCrc ^ (paramId & 0x0Fu);
 717:Generated_Source\PSoC4/capsense_Structure.c ****             actualCrc = crcTable[crcIndex];
 718:Generated_Source\PSoC4/capsense_Structure.c ****             paramId >>= 4u;
 719:Generated_Source\PSoC4/capsense_Structure.c ****         }
 720:Generated_Source\PSoC4/capsense_Structure.c **** 
 721:Generated_Source\PSoC4/capsense_Structure.c ****         /* Add bits 28..32 */
 722:Generated_Source\PSoC4/capsense_Structure.c ****         crcIndex = actualCrc ^ ((paramId >> 4u) & 0x0Fu);
 723:Generated_Source\PSoC4/capsense_Structure.c ****         actualCrc = crcTable[crcIndex];
 724:Generated_Source\PSoC4/capsense_Structure.c **** 
 725:Generated_Source\PSoC4/capsense_Structure.c ****         /* Add bits 24..28 (CRC) */
 726:Generated_Source\PSoC4/capsense_Structure.c ****         crcIndex = actualCrc ^ (paramId & 0x0Fu);
 727:Generated_Source\PSoC4/capsense_Structure.c ****         actualCrc = crcTable[crcIndex];
 728:Generated_Source\PSoC4/capsense_Structure.c **** 
 729:Generated_Source\PSoC4/capsense_Structure.c ****         if (0u != actualCrc)
 730:Generated_Source\PSoC4/capsense_Structure.c ****         {
ARM GAS  C:\Users\Usuario\AppData\Local\Temp\ccPrHsje.s 			page 15


 731:Generated_Source\PSoC4/capsense_Structure.c ****             /* CRC mismatch */
 732:Generated_Source\PSoC4/capsense_Structure.c ****             result = CYRET_BAD_PARAM;
 733:Generated_Source\PSoC4/capsense_Structure.c ****         }
 734:Generated_Source\PSoC4/capsense_Structure.c **** 
 735:Generated_Source\PSoC4/capsense_Structure.c ****         if ((CYRET_SUCCESS == result) &&
 736:Generated_Source\PSoC4/capsense_Structure.c ****             (0u != pData->affectsCrc) && (pData->widgetId >= capsense_TOTAL_WIDGETS ))
 737:Generated_Source\PSoC4/capsense_Structure.c ****         {
 738:Generated_Source\PSoC4/capsense_Structure.c ****             /* Wrong widgetId for protected parameter */
 739:Generated_Source\PSoC4/capsense_Structure.c ****             result = CYRET_BAD_PARAM;
 740:Generated_Source\PSoC4/capsense_Structure.c ****         }
 741:Generated_Source\PSoC4/capsense_Structure.c **** 
 742:Generated_Source\PSoC4/capsense_Structure.c ****         /* Check offset value range */
 743:Generated_Source\PSoC4/capsense_Structure.c ****         if (CYRET_SUCCESS == result)
 744:Generated_Source\PSoC4/capsense_Structure.c ****         {
 745:Generated_Source\PSoC4/capsense_Structure.c ****             if (0u == pData->flash)
 746:Generated_Source\PSoC4/capsense_Structure.c ****             {
 747:Generated_Source\PSoC4/capsense_Structure.c ****                 /* Check offset for RAM Data Structure range */
 748:Generated_Source\PSoC4/capsense_Structure.c ****                 if (pData->offset >= sizeof(capsense_dsRam))
 749:Generated_Source\PSoC4/capsense_Structure.c ****                 {
 750:Generated_Source\PSoC4/capsense_Structure.c ****                     result = CYRET_BAD_PARAM;
 751:Generated_Source\PSoC4/capsense_Structure.c ****                 }
 752:Generated_Source\PSoC4/capsense_Structure.c ****             }
 753:Generated_Source\PSoC4/capsense_Structure.c ****             else
 754:Generated_Source\PSoC4/capsense_Structure.c ****             {
 755:Generated_Source\PSoC4/capsense_Structure.c ****                 /* Check offset for Flash Data Structure range */
 756:Generated_Source\PSoC4/capsense_Structure.c ****                 if (pData->offset >= sizeof(capsense_dsFlash))
 757:Generated_Source\PSoC4/capsense_Structure.c ****                 {
 758:Generated_Source\PSoC4/capsense_Structure.c ****                     result = CYRET_BAD_PARAM;
 759:Generated_Source\PSoC4/capsense_Structure.c ****                 }
 760:Generated_Source\PSoC4/capsense_Structure.c **** 
 761:Generated_Source\PSoC4/capsense_Structure.c ****                 /* Check if it is marked as Read Only */
 762:Generated_Source\PSoC4/capsense_Structure.c ****                 if (0u != pData->rw)
 763:Generated_Source\PSoC4/capsense_Structure.c ****                 {
 764:Generated_Source\PSoC4/capsense_Structure.c ****                     result = CYRET_BAD_PARAM;
 765:Generated_Source\PSoC4/capsense_Structure.c ****                 }
 766:Generated_Source\PSoC4/capsense_Structure.c ****             }
 767:Generated_Source\PSoC4/capsense_Structure.c ****         }
 768:Generated_Source\PSoC4/capsense_Structure.c ****     #else /* #if (0u != capsense_SELF_TEST_EN) */
 769:Generated_Source\PSoC4/capsense_Structure.c ****         /* Check offset value range */
 770:Generated_Source\PSoC4/capsense_Structure.c ****         if (0u == pData->flash)
  69              		.loc 1 770 0
  70 002e 002B     		cmp	r3, #0
  71 0030 03D1     		bne	.L2
 771:Generated_Source\PSoC4/capsense_Structure.c ****         {
 772:Generated_Source\PSoC4/capsense_Structure.c ****             /* Check offset for RAM Data Structure range */
 773:Generated_Source\PSoC4/capsense_Structure.c ****             if (pData->offset >= sizeof(capsense_dsRam))
  72              		.loc 1 773 0
  73 0032 BB2D     		cmp	r5, #187
  74 0034 09D8     		bhi	.L9
 685:Generated_Source\PSoC4/capsense_Structure.c **** 
  75              		.loc 1 685 0
  76 0036 0020     		movs	r0, #0
  77 0038 0AE0     		b	.L3
  78              	.L2:
 774:Generated_Source\PSoC4/capsense_Structure.c ****             {
 775:Generated_Source\PSoC4/capsense_Structure.c ****                 result = CYRET_BAD_PARAM;
 776:Generated_Source\PSoC4/capsense_Structure.c ****             }
ARM GAS  C:\Users\Usuario\AppData\Local\Temp\ccPrHsje.s 			page 16


 777:Generated_Source\PSoC4/capsense_Structure.c ****         }
 778:Generated_Source\PSoC4/capsense_Structure.c ****         else
 779:Generated_Source\PSoC4/capsense_Structure.c ****         {
 780:Generated_Source\PSoC4/capsense_Structure.c ****             /* Check offset for Flash Data Structure range */
 781:Generated_Source\PSoC4/capsense_Structure.c ****             if (pData->offset >= sizeof(capsense_dsFlash))
  79              		.loc 1 781 0
  80 003a 9F2D     		cmp	r5, #159
  81 003c 01D8     		bhi	.L10
 685:Generated_Source\PSoC4/capsense_Structure.c **** 
  82              		.loc 1 685 0
  83 003e 0020     		movs	r0, #0
  84 0040 00E0     		b	.L4
  85              	.L10:
 782:Generated_Source\PSoC4/capsense_Structure.c ****             {
 783:Generated_Source\PSoC4/capsense_Structure.c ****                 result = CYRET_BAD_PARAM;
  86              		.loc 1 783 0
  87 0042 0120     		movs	r0, #1
  88              	.L4:
  89              	.LVL3:
 784:Generated_Source\PSoC4/capsense_Structure.c ****             }
 785:Generated_Source\PSoC4/capsense_Structure.c **** 
 786:Generated_Source\PSoC4/capsense_Structure.c ****             /* Check if it is marked as Read Only */
 787:Generated_Source\PSoC4/capsense_Structure.c ****             if (0u != pData->rw)
  90              		.loc 1 787 0
  91 0044 002A     		cmp	r2, #0
  92 0046 02D1     		bne	.L11
  93 0048 02E0     		b	.L3
  94              	.LVL4:
  95              	.L9:
 775:Generated_Source\PSoC4/capsense_Structure.c ****             }
  96              		.loc 1 775 0
  97 004a 0120     		movs	r0, #1
  98 004c 00E0     		b	.L3
  99              	.LVL5:
 100              	.L11:
 788:Generated_Source\PSoC4/capsense_Structure.c ****             {
 789:Generated_Source\PSoC4/capsense_Structure.c ****                 result = CYRET_BAD_PARAM;
 101              		.loc 1 789 0
 102 004e 0120     		movs	r0, #1
 103              	.LVL6:
 104              	.L3:
 790:Generated_Source\PSoC4/capsense_Structure.c ****             }
 791:Generated_Source\PSoC4/capsense_Structure.c ****         }
 792:Generated_Source\PSoC4/capsense_Structure.c ****     #endif /* #if (0u != capsense_SELF_TEST_EN) */
 793:Generated_Source\PSoC4/capsense_Structure.c **** 
 794:Generated_Source\PSoC4/capsense_Structure.c ****     if (CYRET_SUCCESS == result)
 105              		.loc 1 794 0
 106 0050 0028     		cmp	r0, #0
 107 0052 11D1     		bne	.L5
 795:Generated_Source\PSoC4/capsense_Structure.c ****     {
 796:Generated_Source\PSoC4/capsense_Structure.c ****         /* Check parameter type, offset alignment */
 797:Generated_Source\PSoC4/capsense_Structure.c ****         switch (pData->type)
 108              		.loc 1 797 0
 109 0054 022E     		cmp	r6, #2
 110 0056 04D0     		beq	.L6
 111 0058 032E     		cmp	r6, #3
 112 005a 05D0     		beq	.L7
ARM GAS  C:\Users\Usuario\AppData\Local\Temp\ccPrHsje.s 			page 17


 113 005c 012E     		cmp	r6, #1
 114 005e 06D1     		bne	.L15
 115 0060 0AE0     		b	.L5
 116              	.L6:
 798:Generated_Source\PSoC4/capsense_Structure.c ****         {
 799:Generated_Source\PSoC4/capsense_Structure.c ****         case DS_PARAM_TYPE_UINT16:
 800:Generated_Source\PSoC4/capsense_Structure.c ****             if (0u != (pData->offset & UINT16_ALIGN_MASK))
 117              		.loc 1 800 0
 118 0062 EB07     		lsls	r3, r5, #31
 119 0064 05D4     		bmi	.L13
 120 0066 07E0     		b	.L5
 121              	.L7:
 801:Generated_Source\PSoC4/capsense_Structure.c ****             {
 802:Generated_Source\PSoC4/capsense_Structure.c ****                 result = CYRET_BAD_PARAM;
 803:Generated_Source\PSoC4/capsense_Structure.c ****             }
 804:Generated_Source\PSoC4/capsense_Structure.c ****             break;
 805:Generated_Source\PSoC4/capsense_Structure.c **** 
 806:Generated_Source\PSoC4/capsense_Structure.c ****         case DS_PARAM_TYPE_UINT32:
 807:Generated_Source\PSoC4/capsense_Structure.c ****             if (0u != (pData->offset & UINT32_ALIGN_MASK))
 122              		.loc 1 807 0
 123 0068 AB07     		lsls	r3, r5, #30
 124 006a 04D1     		bne	.L14
 125 006c 04E0     		b	.L5
 126              	.L15:
 808:Generated_Source\PSoC4/capsense_Structure.c ****             {
 809:Generated_Source\PSoC4/capsense_Structure.c ****                 result = CYRET_BAD_PARAM;
 810:Generated_Source\PSoC4/capsense_Structure.c ****             }
 811:Generated_Source\PSoC4/capsense_Structure.c ****             break;
 812:Generated_Source\PSoC4/capsense_Structure.c **** 
 813:Generated_Source\PSoC4/capsense_Structure.c ****         case DS_PARAM_TYPE_UINT8:
 814:Generated_Source\PSoC4/capsense_Structure.c ****             break;
 815:Generated_Source\PSoC4/capsense_Structure.c **** 
 816:Generated_Source\PSoC4/capsense_Structure.c ****         default:
 817:Generated_Source\PSoC4/capsense_Structure.c ****             result = CYRET_BAD_PARAM;
 127              		.loc 1 817 0
 128 006e 0120     		movs	r0, #1
 129              	.LVL7:
 130 0070 02E0     		b	.L5
 131              	.LVL8:
 132              	.L13:
 802:Generated_Source\PSoC4/capsense_Structure.c ****             }
 133              		.loc 1 802 0
 134 0072 0120     		movs	r0, #1
 135              	.LVL9:
 136 0074 00E0     		b	.L5
 137              	.LVL10:
 138              	.L14:
 809:Generated_Source\PSoC4/capsense_Structure.c ****             }
 139              		.loc 1 809 0
 140 0076 0120     		movs	r0, #1
 141              	.LVL11:
 142              	.L5:
 818:Generated_Source\PSoC4/capsense_Structure.c ****             break;
 819:Generated_Source\PSoC4/capsense_Structure.c ****         }
 820:Generated_Source\PSoC4/capsense_Structure.c ****     }
 821:Generated_Source\PSoC4/capsense_Structure.c **** 
 822:Generated_Source\PSoC4/capsense_Structure.c ****     return result;
ARM GAS  C:\Users\Usuario\AppData\Local\Temp\ccPrHsje.s 			page 18


 823:Generated_Source\PSoC4/capsense_Structure.c **** }
 143              		.loc 1 823 0
 144              		@ sp needed
 145 0078 70BD     		pop	{r4, r5, r6, pc}
 146              		.cfi_endproc
 147              	.LFE2:
 148              		.size	DsParseParamId, .-DsParseParamId
 149 007a C046     		.section	.text.capsense_DsInitialize,"ax",%progbits
 150              		.align	2
 151              		.global	capsense_DsInitialize
 152              		.code	16
 153              		.thumb_func
 154              		.type	capsense_DsInitialize, %function
 155              	capsense_DsInitialize:
 156              	.LFB1:
 467:Generated_Source\PSoC4/capsense_Structure.c ****     #if ((capsense_ENABLE == capsense_CSX_EN) || \
 157              		.loc 1 467 0
 158              		.cfi_startproc
 159              		@ args = 0, pretend = 0, frame = 0
 160              		@ frame_needed = 0, uses_anonymous_args = 0
 161 0000 70B5     		push	{r4, r5, r6, lr}
 162              		.cfi_def_cfa_offset 16
 163              		.cfi_offset 4, -16
 164              		.cfi_offset 5, -12
 165              		.cfi_offset 6, -8
 166              		.cfi_offset 14, -4
 167              	.LVL12:
 488:Generated_Source\PSoC4/capsense_Structure.c **** 
 168              		.loc 1 488 0
 169 0002 194C     		ldr	r4, .L21
 170 0004 BC22     		movs	r2, #188
 171 0006 0021     		movs	r1, #0
 172 0008 2000     		movs	r0, r4
 173 000a FFF7FEFF 		bl	memset
 174              	.LVL13:
 491:Generated_Source\PSoC4/capsense_Structure.c ****     capsense_dsRam.deviceId = capsense_DEVICE_ID;
 175              		.loc 1 491 0
 176 000e 174B     		ldr	r3, .L21+4
 177 0010 2380     		strh	r3, [r4]
 492:Generated_Source\PSoC4/capsense_Structure.c ****     capsense_dsRam.hwClock = capsense_HW_CLOCK;
 178              		.loc 1 492 0
 179 0012 9023     		movs	r3, #144
 180 0014 1B01     		lsls	r3, r3, #4
 181 0016 6380     		strh	r3, [r4, #2]
 493:Generated_Source\PSoC4/capsense_Structure.c **** 
 182              		.loc 1 493 0
 183 0018 154B     		ldr	r3, .L21+8
 184 001a A380     		strh	r3, [r4, #4]
 496:Generated_Source\PSoC4/capsense_Structure.c **** 
 185              		.loc 1 496 0
 186 001c 0823     		movs	r3, #8
 187 001e A383     		strh	r3, [r4, #28]
 498:Generated_Source\PSoC4/capsense_Structure.c ****     #if (0u != capsense_TOTAL_CSD_WIDGETS)
 188              		.loc 1 498 0
 189 0020 0322     		movs	r2, #3
 190 0022 B233     		adds	r3, r3, #178
 191 0024 E254     		strb	r2, [r4, r3]
ARM GAS  C:\Users\Usuario\AppData\Local\Temp\ccPrHsje.s 			page 19


 500:Generated_Source\PSoC4/capsense_Structure.c ****         capsense_dsRam.scanCsdISC = capsense_CSD_INACTIVE_SNS_CONNECTION;
 192              		.loc 1 500 0
 193 0026 B93B     		subs	r3, r3, #185
 194 0028 A377     		strb	r3, [r4, #30]
 509:Generated_Source\PSoC4/capsense_Structure.c ****         capsense_dsRam.scanCsxISC = capsense_CSX_INACTIVE_SNS_CONNECTION;
 195              		.loc 1 509 0
 196 002a E377     		strb	r3, [r4, #31]
 574:Generated_Source\PSoC4/capsense_Structure.c **** 
 197              		.loc 1 574 0
 198 002c 2000     		movs	r0, r4
 199 002e 2030     		adds	r0, r0, #32
 200 0030 3F32     		adds	r2, r2, #63
 201 0032 1049     		ldr	r1, .L21+12
 202 0034 2831     		adds	r1, r1, #40
 203 0036 FFF7FEFF 		bl	memcpy
 204              	.LVL14:
 484:Generated_Source\PSoC4/capsense_Structure.c ****     #endif
 205              		.loc 1 484 0
 206 003a 0F49     		ldr	r1, .L21+16
 591:Generated_Source\PSoC4/capsense_Structure.c **** 
 207              		.loc 1 591 0
 208 003c 0C00     		movs	r4, r1
 209 003e 0834     		adds	r4, r4, #8
 593:Generated_Source\PSoC4/capsense_Structure.c ****         {
 210              		.loc 1 593 0
 211 0040 0423     		movs	r3, #4
 212 0042 0CE0     		b	.L17
 213              	.LVL15:
 214              	.L20:
 595:Generated_Source\PSoC4/capsense_Structure.c **** 
 215              		.loc 1 595 0
 216 0044 A268     		ldr	r2, [r4, #8]
 217              	.LVL16:
 597:Generated_Source\PSoC4/capsense_Structure.c ****             {
 218              		.loc 1 597 0
 219 0046 238B     		ldrh	r3, [r4, #24]
 220              	.LVL17:
 221 0048 04E0     		b	.L18
 222              	.LVL18:
 223              	.L19:
 599:Generated_Source\PSoC4/capsense_Structure.c ****                 ptrIdacInit++;
 224              		.loc 1 599 0
 225 004a 0B78     		ldrb	r3, [r1]
 226 004c 5372     		strb	r3, [r2, #9]
 600:Generated_Source\PSoC4/capsense_Structure.c **** 
 227              		.loc 1 600 0
 228 004e 0131     		adds	r1, r1, #1
 229              	.LVL19:
 610:Generated_Source\PSoC4/capsense_Structure.c ****             }
 230              		.loc 1 610 0
 231 0050 0A32     		adds	r2, r2, #10
 232              	.LVL20:
 597:Generated_Source\PSoC4/capsense_Structure.c ****             {
 233              		.loc 1 597 0
 234 0052 0300     		movs	r3, r0
 235              	.LVL21:
 236              	.L18:
ARM GAS  C:\Users\Usuario\AppData\Local\Temp\ccPrHsje.s 			page 20


 597:Generated_Source\PSoC4/capsense_Structure.c ****             {
 237              		.loc 1 597 0 is_stmt 0 discriminator 1
 238 0054 581E     		subs	r0, r3, #1
 239              	.LVL22:
 240 0056 002B     		cmp	r3, #0
 241 0058 F7D1     		bne	.L19
 613:Generated_Source\PSoC4/capsense_Structure.c ****         }
 242              		.loc 1 613 0 is_stmt 1
 243 005a 2834     		adds	r4, r4, #40
 244              	.LVL23:
 593:Generated_Source\PSoC4/capsense_Structure.c ****         {
 245              		.loc 1 593 0
 246 005c 2B00     		movs	r3, r5
 247              	.LVL24:
 248              	.L17:
 593:Generated_Source\PSoC4/capsense_Structure.c ****         {
 249              		.loc 1 593 0 is_stmt 0 discriminator 1
 250 005e 5D1E     		subs	r5, r3, #1
 251              	.LVL25:
 252 0060 002B     		cmp	r3, #0
 253 0062 EFD1     		bne	.L20
 644:Generated_Source\PSoC4/capsense_Structure.c **** 
 254              		.loc 1 644 0 is_stmt 1
 255              		@ sp needed
 256              	.LVL26:
 257              	.LVL27:
 258 0064 70BD     		pop	{r4, r5, r6, pc}
 259              	.L22:
 260 0066 C046     		.align	2
 261              	.L21:
 262 0068 00000000 		.word	capsense_dsRam
 263 006c F0700000 		.word	28912
 264 0070 B80B0000 		.word	3000
 265 0074 80000000 		.word	.LANCHOR1
 266 0078 00000000 		.word	.LANCHOR0
 267              		.cfi_endproc
 268              	.LFE1:
 269              		.size	capsense_DsInitialize, .-capsense_DsInitialize
 270              		.section	.text.capsense_GetParam,"ax",%progbits
 271              		.align	2
 272              		.global	capsense_GetParam
 273              		.code	16
 274              		.thumb_func
 275              		.type	capsense_GetParam, %function
 276              	capsense_GetParam:
 277              	.LFB3:
 824:Generated_Source\PSoC4/capsense_Structure.c **** 
 825:Generated_Source\PSoC4/capsense_Structure.c **** /*******************************************************************************
 826:Generated_Source\PSoC4/capsense_Structure.c **** * Function Name: capsense_GetParam
 827:Generated_Source\PSoC4/capsense_Structure.c **** ****************************************************************************//**
 828:Generated_Source\PSoC4/capsense_Structure.c **** *
 829:Generated_Source\PSoC4/capsense_Structure.c **** * \brief
 830:Generated_Source\PSoC4/capsense_Structure.c **** *  Gets the specified parameter value from the \ref group_structures.
 831:Generated_Source\PSoC4/capsense_Structure.c **** *
 832:Generated_Source\PSoC4/capsense_Structure.c **** * \details
 833:Generated_Source\PSoC4/capsense_Structure.c **** *  This function gets the value of the specified parameter by the paramId
 834:Generated_Source\PSoC4/capsense_Structure.c **** *  argument. The paramId for each register is available in the
ARM GAS  C:\Users\Usuario\AppData\Local\Temp\ccPrHsje.s 			page 21


 835:Generated_Source\PSoC4/capsense_Structure.c **** *  capsense RegisterMap header file as
 836:Generated_Source\PSoC4/capsense_Structure.c **** *  capsense_<ParameterName>_PARAM_ID. The paramId is a special
 837:Generated_Source\PSoC4/capsense_Structure.c **** *  enumerated value generated by the customizer. The format of paramId is as
 838:Generated_Source\PSoC4/capsense_Structure.c **** *  follows:
 839:Generated_Source\PSoC4/capsense_Structure.c **** *    1. [ byte 3 byte 2 byte 1 byte 0 ]
 840:Generated_Source\PSoC4/capsense_Structure.c **** *    2. [ TTWFCCCC UIIIIIII MMMMMMMM LLLLLLLL ]
 841:Generated_Source\PSoC4/capsense_Structure.c **** *    3. T - encodes the parameter type:
 842:Generated_Source\PSoC4/capsense_Structure.c **** *      - 01b: uint8
 843:Generated_Source\PSoC4/capsense_Structure.c **** *      - 10b: uint16
 844:Generated_Source\PSoC4/capsense_Structure.c **** *      - 11b: uint32
 845:Generated_Source\PSoC4/capsense_Structure.c **** *    4. W - indicates whether the parameter is writable:
 846:Generated_Source\PSoC4/capsense_Structure.c **** *      - 0: ReadOnly
 847:Generated_Source\PSoC4/capsense_Structure.c **** *      - 1: Read/Write
 848:Generated_Source\PSoC4/capsense_Structure.c **** *    5. C - 4 bit CRC (X^3 + 1) of the whole paramId word, the C bits are
 849:Generated_Source\PSoC4/capsense_Structure.c **** *       filled with 0s when the CRC is calculated.
 850:Generated_Source\PSoC4/capsense_Structure.c **** *    6. U - indicates if the parameter affects the RAM Widget Object CRC.
 851:Generated_Source\PSoC4/capsense_Structure.c **** *    7. I - specifies that the widgetId parameter belongs to
 852:Generated_Source\PSoC4/capsense_Structure.c **** *    8. M,L - the parameter offset MSB and LSB accordingly in:
 853:Generated_Source\PSoC4/capsense_Structure.c **** *      - Flash Data Structure if W bit is 0.
 854:Generated_Source\PSoC4/capsense_Structure.c **** *      - RAM Data Structure if W bit is 1.
 855:Generated_Source\PSoC4/capsense_Structure.c **** *
 856:Generated_Source\PSoC4/capsense_Structure.c **** *  Refer to the \ref group_structures section for details of the data structure
 857:Generated_Source\PSoC4/capsense_Structure.c **** *  organization and examples of its register access.
 858:Generated_Source\PSoC4/capsense_Structure.c **** *
 859:Generated_Source\PSoC4/capsense_Structure.c **** * \param paramId
 860:Generated_Source\PSoC4/capsense_Structure.c **** *  Specifies the ID of parameter to get its value.
 861:Generated_Source\PSoC4/capsense_Structure.c **** *  A macro for the parameter ID can be found in the capsense RegisterMap header
 862:Generated_Source\PSoC4/capsense_Structure.c **** *  file defined as capsense_<ParameterName>_PARAM_ID.
 863:Generated_Source\PSoC4/capsense_Structure.c **** *
 864:Generated_Source\PSoC4/capsense_Structure.c **** * \param value
 865:Generated_Source\PSoC4/capsense_Structure.c **** *  The pointer to a variable to be updated with the obtained value.
 866:Generated_Source\PSoC4/capsense_Structure.c **** *
 867:Generated_Source\PSoC4/capsense_Structure.c **** * \return
 868:Generated_Source\PSoC4/capsense_Structure.c **** *  Returns the status of the operation:
 869:Generated_Source\PSoC4/capsense_Structure.c **** *    - CYRET_SUCCESS - The operation is successfully completed.
 870:Generated_Source\PSoC4/capsense_Structure.c **** *    - CYRET_BAD_PARAM - The input parameter is invalid.
 871:Generated_Source\PSoC4/capsense_Structure.c **** *
 872:Generated_Source\PSoC4/capsense_Structure.c **** *******************************************************************************/
 873:Generated_Source\PSoC4/capsense_Structure.c **** cystatus capsense_GetParam(uint32 paramId, uint32 *value)
 874:Generated_Source\PSoC4/capsense_Structure.c **** {
 278              		.loc 1 874 0
 279              		.cfi_startproc
 280              		@ args = 0, pretend = 0, frame = 8
 281              		@ frame_needed = 0, uses_anonymous_args = 0
 282              	.LVL28:
 283 0000 30B5     		push	{r4, r5, lr}
 284              		.cfi_def_cfa_offset 12
 285              		.cfi_offset 4, -12
 286              		.cfi_offset 5, -8
 287              		.cfi_offset 14, -4
 288 0002 83B0     		sub	sp, sp, #12
 289              		.cfi_def_cfa_offset 24
 290 0004 0D00     		movs	r5, r1
 875:Generated_Source\PSoC4/capsense_Structure.c ****     PARAM_ID_STRUCT pData;
 876:Generated_Source\PSoC4/capsense_Structure.c ****     cystatus result;
 877:Generated_Source\PSoC4/capsense_Structure.c **** 
 878:Generated_Source\PSoC4/capsense_Structure.c ****     union
ARM GAS  C:\Users\Usuario\AppData\Local\Temp\ccPrHsje.s 			page 22


 879:Generated_Source\PSoC4/capsense_Structure.c ****     {
 880:Generated_Source\PSoC4/capsense_Structure.c ****         volatile void   const * ptr;
 881:Generated_Source\PSoC4/capsense_Structure.c ****         volatile uint8  const * ptrUint8;
 882:Generated_Source\PSoC4/capsense_Structure.c ****         volatile uint16 const * ptrUint16;
 883:Generated_Source\PSoC4/capsense_Structure.c ****         volatile uint32 const * ptrUint32;
 884:Generated_Source\PSoC4/capsense_Structure.c ****     } ptrData;
 885:Generated_Source\PSoC4/capsense_Structure.c **** 
 886:Generated_Source\PSoC4/capsense_Structure.c ****     result = DsParseParamId(paramId, &pData);
 291              		.loc 1 886 0
 292 0006 6946     		mov	r1, sp
 293              	.LVL29:
 294 0008 FFF7FEFF 		bl	DsParseParamId
 295              	.LVL30:
 296 000c 041E     		subs	r4, r0, #0
 297              	.LVL31:
 887:Generated_Source\PSoC4/capsense_Structure.c **** 
 888:Generated_Source\PSoC4/capsense_Structure.c ****     /* Parse and validate paramId */
 889:Generated_Source\PSoC4/capsense_Structure.c ****     if (CYRET_SUCCESS == result)
 298              		.loc 1 889 0
 299 000e 1FD1     		bne	.L24
 890:Generated_Source\PSoC4/capsense_Structure.c ****     {
 891:Generated_Source\PSoC4/capsense_Structure.c ****         /* Get base address of parameter */
 892:Generated_Source\PSoC4/capsense_Structure.c ****         if (0u == pData.flash)
 300              		.loc 1 892 0
 301 0010 6B46     		mov	r3, sp
 302 0012 5B79     		ldrb	r3, [r3, #5]
 303 0014 002B     		cmp	r3, #0
 304 0016 01D1     		bne	.L25
 893:Generated_Source\PSoC4/capsense_Structure.c ****         {
 894:Generated_Source\PSoC4/capsense_Structure.c ****             ptrData.ptr = &capsense_dsRam;
 305              		.loc 1 894 0
 306 0018 0F4A     		ldr	r2, .L30
 307              	.LVL32:
 308 001a 02E0     		b	.L26
 309              	.L25:
 895:Generated_Source\PSoC4/capsense_Structure.c ****         }
 896:Generated_Source\PSoC4/capsense_Structure.c ****         else
 897:Generated_Source\PSoC4/capsense_Structure.c ****         {
 898:Generated_Source\PSoC4/capsense_Structure.c ****             ptrData.ptr = &capsense_dsFlash;
 310              		.loc 1 898 0
 311 001c 0F4B     		ldr	r3, .L30+4
 312 001e 0833     		adds	r3, r3, #8
 313 0020 1A00     		movs	r2, r3
 314              	.L26:
 899:Generated_Source\PSoC4/capsense_Structure.c ****         }
 900:Generated_Source\PSoC4/capsense_Structure.c **** 
 901:Generated_Source\PSoC4/capsense_Structure.c ****         /* Add offset to base address */
 902:Generated_Source\PSoC4/capsense_Structure.c ****         ptrData.ptrUint8 += pData.offset;
 315              		.loc 1 902 0
 316 0022 6B46     		mov	r3, sp
 317 0024 1B88     		ldrh	r3, [r3]
 318              	.LVL33:
 319 0026 D318     		adds	r3, r2, r3
 903:Generated_Source\PSoC4/capsense_Structure.c **** 
 904:Generated_Source\PSoC4/capsense_Structure.c ****         /* Read data */
 905:Generated_Source\PSoC4/capsense_Structure.c ****         if (DS_PARAM_TYPE_UINT8 == pData.type)
 320              		.loc 1 905 0
ARM GAS  C:\Users\Usuario\AppData\Local\Temp\ccPrHsje.s 			page 23


 321 0028 6A46     		mov	r2, sp
 322              	.LVL34:
 323 002a D279     		ldrb	r2, [r2, #7]
 324 002c 012A     		cmp	r2, #1
 325 002e 02D1     		bne	.L27
 906:Generated_Source\PSoC4/capsense_Structure.c ****         {
 907:Generated_Source\PSoC4/capsense_Structure.c ****             *value = (uint32) (*ptrData.ptrUint8);
 326              		.loc 1 907 0
 327 0030 1B78     		ldrb	r3, [r3]
 328 0032 2B60     		str	r3, [r5]
 329 0034 0CE0     		b	.L24
 330              	.L27:
 908:Generated_Source\PSoC4/capsense_Structure.c ****         }
 909:Generated_Source\PSoC4/capsense_Structure.c ****         else if (DS_PARAM_TYPE_UINT16 == pData.type)
 331              		.loc 1 909 0
 332 0036 022A     		cmp	r2, #2
 333 0038 02D1     		bne	.L28
 910:Generated_Source\PSoC4/capsense_Structure.c ****         {
 911:Generated_Source\PSoC4/capsense_Structure.c ****             *value = (uint32) (*ptrData.ptrUint16);
 334              		.loc 1 911 0
 335 003a 1B88     		ldrh	r3, [r3]
 336 003c 2B60     		str	r3, [r5]
 337 003e 07E0     		b	.L24
 338              	.L28:
 912:Generated_Source\PSoC4/capsense_Structure.c ****         }
 913:Generated_Source\PSoC4/capsense_Structure.c ****         else if (DS_PARAM_TYPE_UINT32 == pData.type)
 339              		.loc 1 913 0
 340 0040 032A     		cmp	r2, #3
 341 0042 02D1     		bne	.L29
 914:Generated_Source\PSoC4/capsense_Structure.c ****         {
 915:Generated_Source\PSoC4/capsense_Structure.c ****             *value = *ptrData.ptrUint32;
 342              		.loc 1 915 0
 343 0044 1B68     		ldr	r3, [r3]
 344 0046 2B60     		str	r3, [r5]
 345 0048 02E0     		b	.L24
 346              	.L29:
 916:Generated_Source\PSoC4/capsense_Structure.c ****         }
 917:Generated_Source\PSoC4/capsense_Structure.c ****         else
 918:Generated_Source\PSoC4/capsense_Structure.c ****         {
 919:Generated_Source\PSoC4/capsense_Structure.c ****             /* Parameter comes here already validated. */
 920:Generated_Source\PSoC4/capsense_Structure.c ****             CYASSERT(0u);
 347              		.loc 1 920 0 discriminator 1
 348 004a 0020     		movs	r0, #0
 349              	.LVL35:
 350 004c FFF7FEFF 		bl	CyHalt
 351              	.LVL36:
 352              	.L24:
 921:Generated_Source\PSoC4/capsense_Structure.c ****         }
 922:Generated_Source\PSoC4/capsense_Structure.c ****     }
 923:Generated_Source\PSoC4/capsense_Structure.c **** 
 924:Generated_Source\PSoC4/capsense_Structure.c ****     return result;
 925:Generated_Source\PSoC4/capsense_Structure.c **** }
 353              		.loc 1 925 0
 354 0050 2000     		movs	r0, r4
 355 0052 03B0     		add	sp, sp, #12
 356              		@ sp needed
 357              	.LVL37:
ARM GAS  C:\Users\Usuario\AppData\Local\Temp\ccPrHsje.s 			page 24


 358              	.LVL38:
 359 0054 30BD     		pop	{r4, r5, pc}
 360              	.L31:
 361 0056 C046     		.align	2
 362              	.L30:
 363 0058 00000000 		.word	capsense_dsRam
 364 005c 00000000 		.word	.LANCHOR0
 365              		.cfi_endproc
 366              	.LFE3:
 367              		.size	capsense_GetParam, .-capsense_GetParam
 368              		.section	.text.capsense_SetParam,"ax",%progbits
 369              		.align	2
 370              		.global	capsense_SetParam
 371              		.code	16
 372              		.thumb_func
 373              		.type	capsense_SetParam, %function
 374              	capsense_SetParam:
 375              	.LFB4:
 926:Generated_Source\PSoC4/capsense_Structure.c **** 
 927:Generated_Source\PSoC4/capsense_Structure.c **** 
 928:Generated_Source\PSoC4/capsense_Structure.c **** /*******************************************************************************
 929:Generated_Source\PSoC4/capsense_Structure.c **** * Function Name: capsense_SetParam
 930:Generated_Source\PSoC4/capsense_Structure.c **** ****************************************************************************//**
 931:Generated_Source\PSoC4/capsense_Structure.c **** *
 932:Generated_Source\PSoC4/capsense_Structure.c **** * \brief
 933:Generated_Source\PSoC4/capsense_Structure.c **** *  Sets a new value for the specified parameter in the \ref group_structures.
 934:Generated_Source\PSoC4/capsense_Structure.c **** *
 935:Generated_Source\PSoC4/capsense_Structure.c **** * \details
 936:Generated_Source\PSoC4/capsense_Structure.c **** *  This function sets the value of the specified parameter by the paramId
 937:Generated_Source\PSoC4/capsense_Structure.c **** *  argument. The paramId for each register is available in the
 938:Generated_Source\PSoC4/capsense_Structure.c **** *  capsense RegisterMap header file as
 939:Generated_Source\PSoC4/capsense_Structure.c **** *  capsense_<ParameterName>_PARAM_ID. The paramId is a special
 940:Generated_Source\PSoC4/capsense_Structure.c **** *  enumerated value generated by the customizer. The format of paramId is as
 941:Generated_Source\PSoC4/capsense_Structure.c **** *  follows:
 942:Generated_Source\PSoC4/capsense_Structure.c **** *    1. [ byte 3 byte 2 byte 1 byte 0 ]
 943:Generated_Source\PSoC4/capsense_Structure.c **** *    2. [ TTWFCCCC UIIIIIII MMMMMMMM LLLLLLLL ]
 944:Generated_Source\PSoC4/capsense_Structure.c **** *    3. T - encodes the parameter type:
 945:Generated_Source\PSoC4/capsense_Structure.c **** *      - 01b: uint8
 946:Generated_Source\PSoC4/capsense_Structure.c **** *      - 10b: uint16
 947:Generated_Source\PSoC4/capsense_Structure.c **** *      - 11b: uint32
 948:Generated_Source\PSoC4/capsense_Structure.c **** *    4. W - indicates whether the parameter is writable:
 949:Generated_Source\PSoC4/capsense_Structure.c **** *      - 0: ReadOnly
 950:Generated_Source\PSoC4/capsense_Structure.c **** *      - 1: Read/Write
 951:Generated_Source\PSoC4/capsense_Structure.c **** *    5. C - 4 bit CRC (X^3 + 1) of the whole paramId word, the C bits are
 952:Generated_Source\PSoC4/capsense_Structure.c **** *       filled with 0s when the CRC is calculated.
 953:Generated_Source\PSoC4/capsense_Structure.c **** *    6. U - indicates if the parameter affects the RAM Widget Object CRC.
 954:Generated_Source\PSoC4/capsense_Structure.c **** *    7. I - specifies that the widgetId parameter belongs to
 955:Generated_Source\PSoC4/capsense_Structure.c **** *    8. M,L - the parameter offset MSB and LSB accordingly in:
 956:Generated_Source\PSoC4/capsense_Structure.c **** *      - Flash Data Structure if W bit is 0.
 957:Generated_Source\PSoC4/capsense_Structure.c **** *      - RAM Data Structure if W bit is 1.
 958:Generated_Source\PSoC4/capsense_Structure.c **** *
 959:Generated_Source\PSoC4/capsense_Structure.c **** *  Refer to the \ref group_structures section for details of the data structure
 960:Generated_Source\PSoC4/capsense_Structure.c **** *  organization and examples of its register access.
 961:Generated_Source\PSoC4/capsense_Structure.c **** *
 962:Generated_Source\PSoC4/capsense_Structure.c **** *  This function writes specified value into the desired register without
 963:Generated_Source\PSoC4/capsense_Structure.c **** *  other registers update. It is application layer responsibility to keep all
 964:Generated_Source\PSoC4/capsense_Structure.c **** *  the data structure registers aligned. Repeated call of
ARM GAS  C:\Users\Usuario\AppData\Local\Temp\ccPrHsje.s 			page 25


 965:Generated_Source\PSoC4/capsense_Structure.c **** *  capsense_Start() function helps aligning dependent register values.
 966:Generated_Source\PSoC4/capsense_Structure.c **** *
 967:Generated_Source\PSoC4/capsense_Structure.c **** * \param paramId
 968:Generated_Source\PSoC4/capsense_Structure.c **** *  Specifies the ID of parameter to set its value.
 969:Generated_Source\PSoC4/capsense_Structure.c **** *  A macro for the parameter ID can be found in the capsense RegisterMap header
 970:Generated_Source\PSoC4/capsense_Structure.c **** *  file defined as capsense_<ParameterName>_PARAM_ID.
 971:Generated_Source\PSoC4/capsense_Structure.c **** 
 972:Generated_Source\PSoC4/capsense_Structure.c **** * \param value
 973:Generated_Source\PSoC4/capsense_Structure.c **** *  Specifies the new parameter's value.
 974:Generated_Source\PSoC4/capsense_Structure.c **** *
 975:Generated_Source\PSoC4/capsense_Structure.c **** * \return
 976:Generated_Source\PSoC4/capsense_Structure.c **** *  Returns the status of the operation:
 977:Generated_Source\PSoC4/capsense_Structure.c **** *    - CYRET_SUCCESS - The operation is successfully completed.
 978:Generated_Source\PSoC4/capsense_Structure.c **** *    - CYRET_BAD_PARAM - The input parameter is invalid.
 979:Generated_Source\PSoC4/capsense_Structure.c **** *
 980:Generated_Source\PSoC4/capsense_Structure.c **** *******************************************************************************/
 981:Generated_Source\PSoC4/capsense_Structure.c **** cystatus capsense_SetParam(uint32 paramId, uint32 value)
 982:Generated_Source\PSoC4/capsense_Structure.c **** {
 376              		.loc 1 982 0
 377              		.cfi_startproc
 378              		@ args = 0, pretend = 0, frame = 8
 379              		@ frame_needed = 0, uses_anonymous_args = 0
 380              	.LVL39:
 381 0000 30B5     		push	{r4, r5, lr}
 382              		.cfi_def_cfa_offset 12
 383              		.cfi_offset 4, -12
 384              		.cfi_offset 5, -8
 385              		.cfi_offset 14, -4
 386 0002 83B0     		sub	sp, sp, #12
 387              		.cfi_def_cfa_offset 24
 388 0004 0D00     		movs	r5, r1
 983:Generated_Source\PSoC4/capsense_Structure.c ****     cystatus result;
 984:Generated_Source\PSoC4/capsense_Structure.c ****     PARAM_ID_STRUCT pData;
 985:Generated_Source\PSoC4/capsense_Structure.c **** 
 986:Generated_Source\PSoC4/capsense_Structure.c ****     union
 987:Generated_Source\PSoC4/capsense_Structure.c ****     {
 988:Generated_Source\PSoC4/capsense_Structure.c ****         volatile void   * ptr;
 989:Generated_Source\PSoC4/capsense_Structure.c ****         volatile uint8  * ptrUint8;
 990:Generated_Source\PSoC4/capsense_Structure.c ****         volatile uint16 * ptrUint16;
 991:Generated_Source\PSoC4/capsense_Structure.c ****         volatile uint32 * ptrUint32;
 992:Generated_Source\PSoC4/capsense_Structure.c ****     } ptrData;
 993:Generated_Source\PSoC4/capsense_Structure.c **** 
 994:Generated_Source\PSoC4/capsense_Structure.c ****     result = DsParseParamId(paramId, &pData);
 389              		.loc 1 994 0
 390 0006 6946     		mov	r1, sp
 391              	.LVL40:
 392 0008 FFF7FEFF 		bl	DsParseParamId
 393              	.LVL41:
 394 000c 041E     		subs	r4, r0, #0
 395              	.LVL42:
 995:Generated_Source\PSoC4/capsense_Structure.c **** 
 996:Generated_Source\PSoC4/capsense_Structure.c ****     /* verify if parameter is writable */
 997:Generated_Source\PSoC4/capsense_Structure.c ****     if (CYRET_SUCCESS == result)
 396              		.loc 1 997 0
 397 000e 04D1     		bne	.L33
 998:Generated_Source\PSoC4/capsense_Structure.c ****     {
 999:Generated_Source\PSoC4/capsense_Structure.c ****         if (0u == pData.rw)
ARM GAS  C:\Users\Usuario\AppData\Local\Temp\ccPrHsje.s 			page 26


 398              		.loc 1 999 0
 399 0010 6B46     		mov	r3, sp
 400 0012 9B79     		ldrb	r3, [r3, #6]
 401 0014 002B     		cmp	r3, #0
 402 0016 00D1     		bne	.L33
1000:Generated_Source\PSoC4/capsense_Structure.c ****         {
1001:Generated_Source\PSoC4/capsense_Structure.c ****             result = CYRET_BAD_PARAM;
 403              		.loc 1 1001 0
 404 0018 0134     		adds	r4, r4, #1
 405              	.L33:
 406              	.LVL43:
1002:Generated_Source\PSoC4/capsense_Structure.c ****         }
1003:Generated_Source\PSoC4/capsense_Structure.c ****     }
1004:Generated_Source\PSoC4/capsense_Structure.c **** 
1005:Generated_Source\PSoC4/capsense_Structure.c ****     /* Parse and validate paramId */
1006:Generated_Source\PSoC4/capsense_Structure.c ****     if (CYRET_SUCCESS == result)
 407              		.loc 1 1006 0
 408 001a 002C     		cmp	r4, #0
 409 001c 16D1     		bne	.L34
1007:Generated_Source\PSoC4/capsense_Structure.c ****     {
1008:Generated_Source\PSoC4/capsense_Structure.c ****         /* Get base address of parameter */
1009:Generated_Source\PSoC4/capsense_Structure.c ****         ptrData.ptr = &capsense_dsRam;
1010:Generated_Source\PSoC4/capsense_Structure.c **** 
1011:Generated_Source\PSoC4/capsense_Structure.c ****         /* Add offset to base address */
1012:Generated_Source\PSoC4/capsense_Structure.c ****         ptrData.ptrUint8 += pData.offset;
 410              		.loc 1 1012 0
 411 001e 6B46     		mov	r3, sp
 412 0020 1A88     		ldrh	r2, [r3]
 413 0022 0C4B     		ldr	r3, .L39
 414 0024 D318     		adds	r3, r2, r3
1013:Generated_Source\PSoC4/capsense_Structure.c **** 
1014:Generated_Source\PSoC4/capsense_Structure.c ****         /* Write data */
1015:Generated_Source\PSoC4/capsense_Structure.c ****         if (DS_PARAM_TYPE_UINT8 == pData.type)
 415              		.loc 1 1015 0
 416 0026 6A46     		mov	r2, sp
 417 0028 D279     		ldrb	r2, [r2, #7]
 418 002a 012A     		cmp	r2, #1
 419 002c 02D1     		bne	.L35
1016:Generated_Source\PSoC4/capsense_Structure.c ****         {
1017:Generated_Source\PSoC4/capsense_Structure.c ****             *ptrData.ptrUint8 = LO8(value);
 420              		.loc 1 1017 0
 421 002e EDB2     		uxtb	r5, r5
 422              	.LVL44:
 423 0030 1D70     		strb	r5, [r3]
 424 0032 0BE0     		b	.L34
 425              	.LVL45:
 426              	.L35:
1018:Generated_Source\PSoC4/capsense_Structure.c ****         }
1019:Generated_Source\PSoC4/capsense_Structure.c ****         else if (DS_PARAM_TYPE_UINT16 == pData.type)
 427              		.loc 1 1019 0
 428 0034 022A     		cmp	r2, #2
 429 0036 02D1     		bne	.L36
1020:Generated_Source\PSoC4/capsense_Structure.c ****         {
1021:Generated_Source\PSoC4/capsense_Structure.c ****             *ptrData.ptrUint16 = LO16(value);
 430              		.loc 1 1021 0
 431 0038 ADB2     		uxth	r5, r5
 432              	.LVL46:
ARM GAS  C:\Users\Usuario\AppData\Local\Temp\ccPrHsje.s 			page 27


 433 003a 1D80     		strh	r5, [r3]
 434 003c 06E0     		b	.L34
 435              	.LVL47:
 436              	.L36:
1022:Generated_Source\PSoC4/capsense_Structure.c ****         }
1023:Generated_Source\PSoC4/capsense_Structure.c ****         else if (DS_PARAM_TYPE_UINT32 == pData.type)
 437              		.loc 1 1023 0
 438 003e 032A     		cmp	r2, #3
 439 0040 01D1     		bne	.L37
1024:Generated_Source\PSoC4/capsense_Structure.c ****         {
1025:Generated_Source\PSoC4/capsense_Structure.c ****             *ptrData.ptrUint32 = value;
 440              		.loc 1 1025 0
 441 0042 1D60     		str	r5, [r3]
 442 0044 02E0     		b	.L34
 443              	.L37:
1026:Generated_Source\PSoC4/capsense_Structure.c ****         }
1027:Generated_Source\PSoC4/capsense_Structure.c ****         else
1028:Generated_Source\PSoC4/capsense_Structure.c ****         {
1029:Generated_Source\PSoC4/capsense_Structure.c ****             /* Parameter comes here already validated. */
1030:Generated_Source\PSoC4/capsense_Structure.c ****             CYASSERT(0u);
 444              		.loc 1 1030 0 discriminator 1
 445 0046 0020     		movs	r0, #0
 446 0048 FFF7FEFF 		bl	CyHalt
 447              	.LVL48:
 448              	.L34:
1031:Generated_Source\PSoC4/capsense_Structure.c ****         }
1032:Generated_Source\PSoC4/capsense_Structure.c **** 
1033:Generated_Source\PSoC4/capsense_Structure.c ****         #if (capsense_ENABLE == (capsense_TST_WDGT_CRC_EN || capsense_TST_GLOBAL_CRC_EN))
1034:Generated_Source\PSoC4/capsense_Structure.c ****             /* Update widget or global CRC if self-test is enabled and parameter affects it */
1035:Generated_Source\PSoC4/capsense_Structure.c ****             if (0u != pData.affectsCrc)
1036:Generated_Source\PSoC4/capsense_Structure.c ****             {
1037:Generated_Source\PSoC4/capsense_Structure.c ****                 if ((ptrData.ptrUint16 >= &capsense_dsRam.csd0Config) &&
1038:Generated_Source\PSoC4/capsense_Structure.c ****                     (ptrData.ptrUint16 <  &capsense_dsRam.glbCrc))
1039:Generated_Source\PSoC4/capsense_Structure.c ****                 {
1040:Generated_Source\PSoC4/capsense_Structure.c **** 
1041:Generated_Source\PSoC4/capsense_Structure.c ****                     #if (capsense_ENABLE == capsense_TST_GLOBAL_CRC_EN)
1042:Generated_Source\PSoC4/capsense_Structure.c ****                         capsense_DsUpdateGlobalCrc();
1043:Generated_Source\PSoC4/capsense_Structure.c ****                     #endif /* (capsense_ENABLE == capsense_TST_GLOBAL_CRC_EN) */
1044:Generated_Source\PSoC4/capsense_Structure.c **** 
1045:Generated_Source\PSoC4/capsense_Structure.c ****                 }
1046:Generated_Source\PSoC4/capsense_Structure.c ****                 else
1047:Generated_Source\PSoC4/capsense_Structure.c ****                 {
1048:Generated_Source\PSoC4/capsense_Structure.c ****                     #if (capsense_ENABLE == capsense_TST_WDGT_CRC_EN)
1049:Generated_Source\PSoC4/capsense_Structure.c ****                         capsense_DsUpdateWidgetCrc((uint32)pData.widgetId);
1050:Generated_Source\PSoC4/capsense_Structure.c ****                     #endif /* (capsense_ENABLE == capsense_TST_WDGT_CRC_EN) */
1051:Generated_Source\PSoC4/capsense_Structure.c ****                 }
1052:Generated_Source\PSoC4/capsense_Structure.c ****             }
1053:Generated_Source\PSoC4/capsense_Structure.c ****         #endif /* (capsense_ENABLE == (capsense_TST_WDGT_CRC_EN || capsense_TST_GLOBAL_CRC_EN)) */
1054:Generated_Source\PSoC4/capsense_Structure.c ****     }
1055:Generated_Source\PSoC4/capsense_Structure.c **** 
1056:Generated_Source\PSoC4/capsense_Structure.c ****     return result;
1057:Generated_Source\PSoC4/capsense_Structure.c **** }
 449              		.loc 1 1057 0
 450 004c 2000     		movs	r0, r4
 451 004e 03B0     		add	sp, sp, #12
 452              		@ sp needed
 453              	.LVL49:
ARM GAS  C:\Users\Usuario\AppData\Local\Temp\ccPrHsje.s 			page 28


 454 0050 30BD     		pop	{r4, r5, pc}
 455              	.L40:
 456 0052 C046     		.align	2
 457              	.L39:
 458 0054 00000000 		.word	capsense_dsRam
 459              		.cfi_endproc
 460              	.LFE4:
 461              		.size	capsense_SetParam, .-capsense_SetParam
 462              		.section	.text.capsense_IsAnyWidgetActive,"ax",%progbits
 463              		.align	2
 464              		.global	capsense_IsAnyWidgetActive
 465              		.code	16
 466              		.thumb_func
 467              		.type	capsense_IsAnyWidgetActive, %function
 468              	capsense_IsAnyWidgetActive:
 469              	.LFB5:
1058:Generated_Source\PSoC4/capsense_Structure.c **** 
1059:Generated_Source\PSoC4/capsense_Structure.c **** /*******************************************************************************
1060:Generated_Source\PSoC4/capsense_Structure.c **** * Function Name: capsense_IsAnyWidgetActive
1061:Generated_Source\PSoC4/capsense_Structure.c **** ****************************************************************************//**
1062:Generated_Source\PSoC4/capsense_Structure.c **** *
1063:Generated_Source\PSoC4/capsense_Structure.c **** * \brief
1064:Generated_Source\PSoC4/capsense_Structure.c **** *  Reports if any widget has detected a touch.
1065:Generated_Source\PSoC4/capsense_Structure.c **** *
1066:Generated_Source\PSoC4/capsense_Structure.c **** * \details
1067:Generated_Source\PSoC4/capsense_Structure.c **** *  This function reports if any widget has detected a touch or not by extracting
1068:Generated_Source\PSoC4/capsense_Structure.c **** *  information from the wdgtStatus registers
1069:Generated_Source\PSoC4/capsense_Structure.c **** *  (capsense_WDGT_STATUS<X>_VALUE). This function does not process a
1070:Generated_Source\PSoC4/capsense_Structure.c **** *  widget but extracts processed results from the \ref group_structures.
1071:Generated_Source\PSoC4/capsense_Structure.c **** *
1072:Generated_Source\PSoC4/capsense_Structure.c **** * \return
1073:Generated_Source\PSoC4/capsense_Structure.c **** *   Returns the touch detection status of all the widgets:
1074:Generated_Source\PSoC4/capsense_Structure.c **** *     - Zero - No touch is detected in all the widgets or sensors.
1075:Generated_Source\PSoC4/capsense_Structure.c **** *     - Non-zero - At least one widget or sensor detected a touch.
1076:Generated_Source\PSoC4/capsense_Structure.c **** *
1077:Generated_Source\PSoC4/capsense_Structure.c **** *******************************************************************************/
1078:Generated_Source\PSoC4/capsense_Structure.c **** uint32 capsense_IsAnyWidgetActive(void)
1079:Generated_Source\PSoC4/capsense_Structure.c **** {
 470              		.loc 1 1079 0
 471              		.cfi_startproc
 472              		@ args = 0, pretend = 0, frame = 0
 473              		@ frame_needed = 0, uses_anonymous_args = 0
 474              		@ link register save eliminated.
 475              	.LVL50:
1080:Generated_Source\PSoC4/capsense_Structure.c ****     uint32 result = 0Lu;
1081:Generated_Source\PSoC4/capsense_Structure.c ****     uint32 wdWord;
1082:Generated_Source\PSoC4/capsense_Structure.c **** 
1083:Generated_Source\PSoC4/capsense_Structure.c ****     for (wdWord = capsense_WDGT_STATUS_WORDS; wdWord-- > 0u;)
 476              		.loc 1 1083 0
 477 0000 0123     		movs	r3, #1
1080:Generated_Source\PSoC4/capsense_Structure.c ****     uint32 result = 0Lu;
 478              		.loc 1 1080 0
 479 0002 0020     		movs	r0, #0
 480              		.loc 1 1083 0
 481 0004 06E0     		b	.L42
 482              	.LVL51:
 483              	.L43:
ARM GAS  C:\Users\Usuario\AppData\Local\Temp\ccPrHsje.s 			page 29


1084:Generated_Source\PSoC4/capsense_Structure.c ****     {
1085:Generated_Source\PSoC4/capsense_Structure.c ****         result |= capsense_dsRam.wdgtStatus[wdWord];
 484              		.loc 1 1085 0
 485 0006 131D     		adds	r3, r2, #4
 486 0008 9B00     		lsls	r3, r3, #2
 487 000a 0449     		ldr	r1, .L44
 488 000c CB18     		adds	r3, r1, r3
 489 000e 5B68     		ldr	r3, [r3, #4]
 490 0010 1843     		orrs	r0, r3
 491              	.LVL52:
1083:Generated_Source\PSoC4/capsense_Structure.c ****     {
 492              		.loc 1 1083 0
 493 0012 1300     		movs	r3, r2
 494              	.LVL53:
 495              	.L42:
1083:Generated_Source\PSoC4/capsense_Structure.c ****     {
 496              		.loc 1 1083 0 is_stmt 0 discriminator 1
 497 0014 5A1E     		subs	r2, r3, #1
 498              	.LVL54:
 499 0016 002B     		cmp	r3, #0
 500 0018 F5D1     		bne	.L43
1086:Generated_Source\PSoC4/capsense_Structure.c ****     }
1087:Generated_Source\PSoC4/capsense_Structure.c **** 
1088:Generated_Source\PSoC4/capsense_Structure.c ****     return result;
1089:Generated_Source\PSoC4/capsense_Structure.c **** }
 501              		.loc 1 1089 0 is_stmt 1
 502              		@ sp needed
 503 001a 7047     		bx	lr
 504              	.L45:
 505              		.align	2
 506              	.L44:
 507 001c 00000000 		.word	capsense_dsRam
 508              		.cfi_endproc
 509              	.LFE5:
 510              		.size	capsense_IsAnyWidgetActive, .-capsense_IsAnyWidgetActive
 511              		.section	.text.capsense_IsWidgetActive,"ax",%progbits
 512              		.align	2
 513              		.global	capsense_IsWidgetActive
 514              		.code	16
 515              		.thumb_func
 516              		.type	capsense_IsWidgetActive, %function
 517              	capsense_IsWidgetActive:
 518              	.LFB6:
1090:Generated_Source\PSoC4/capsense_Structure.c **** 
1091:Generated_Source\PSoC4/capsense_Structure.c **** 
1092:Generated_Source\PSoC4/capsense_Structure.c **** /*******************************************************************************
1093:Generated_Source\PSoC4/capsense_Structure.c **** * Function Name: capsense_IsWidgetActive
1094:Generated_Source\PSoC4/capsense_Structure.c **** ****************************************************************************//**
1095:Generated_Source\PSoC4/capsense_Structure.c **** *
1096:Generated_Source\PSoC4/capsense_Structure.c **** * \brief
1097:Generated_Source\PSoC4/capsense_Structure.c **** *  Reports if the specified widget detects a touch on any of its sensors.
1098:Generated_Source\PSoC4/capsense_Structure.c **** *
1099:Generated_Source\PSoC4/capsense_Structure.c **** * \details
1100:Generated_Source\PSoC4/capsense_Structure.c **** *  This function reports if the specified widget has detected a touch or not by
1101:Generated_Source\PSoC4/capsense_Structure.c **** *  extracting information from the wdgtStatus registers
1102:Generated_Source\PSoC4/capsense_Structure.c **** *  (capsense_WDGT_STATUS<X>_VALUE). This function does not process the
1103:Generated_Source\PSoC4/capsense_Structure.c **** *  widget but extracts processed results from the \ref group_structures.
ARM GAS  C:\Users\Usuario\AppData\Local\Temp\ccPrHsje.s 			page 30


1104:Generated_Source\PSoC4/capsense_Structure.c **** *
1105:Generated_Source\PSoC4/capsense_Structure.c **** * \param widgetId
1106:Generated_Source\PSoC4/capsense_Structure.c **** *  Specifies the ID number of the widget to get its status.
1107:Generated_Source\PSoC4/capsense_Structure.c **** *  A macro for the widget ID can be found in the capsense Configuration header
1108:Generated_Source\PSoC4/capsense_Structure.c **** *  file defined as capsense_<WidgetName>_WDGT_ID.
1109:Generated_Source\PSoC4/capsense_Structure.c **** *
1110:Generated_Source\PSoC4/capsense_Structure.c **** * \return
1111:Generated_Source\PSoC4/capsense_Structure.c **** *  Returns the touch detection status of the specified widgets:
1112:Generated_Source\PSoC4/capsense_Structure.c **** *    - Zero - No touch is detected in the specified widget or a wrong widgetId
1113:Generated_Source\PSoC4/capsense_Structure.c **** *      is specified.
1114:Generated_Source\PSoC4/capsense_Structure.c **** *    - Non-zero if at least one sensor of the specified widget is active, i.e.
1115:Generated_Source\PSoC4/capsense_Structure.c **** *      a touch is detected.
1116:Generated_Source\PSoC4/capsense_Structure.c **** *
1117:Generated_Source\PSoC4/capsense_Structure.c **** *******************************************************************************/
1118:Generated_Source\PSoC4/capsense_Structure.c **** uint32 capsense_IsWidgetActive(uint32 widgetId)
1119:Generated_Source\PSoC4/capsense_Structure.c **** {
 519              		.loc 1 1119 0
 520              		.cfi_startproc
 521              		@ args = 0, pretend = 0, frame = 0
 522              		@ frame_needed = 0, uses_anonymous_args = 0
 523              		@ link register save eliminated.
 524              	.LVL55:
1120:Generated_Source\PSoC4/capsense_Structure.c ****     uint32 result = 0Lu;
1121:Generated_Source\PSoC4/capsense_Structure.c **** 
1122:Generated_Source\PSoC4/capsense_Structure.c ****     if (widgetId < capsense_TOTAL_WIDGETS)
 525              		.loc 1 1122 0
 526 0000 0328     		cmp	r0, #3
 527 0002 0BD8     		bhi	.L48
1123:Generated_Source\PSoC4/capsense_Structure.c ****     {
1124:Generated_Source\PSoC4/capsense_Structure.c ****         result = capsense_GET_WIDGET_ACTIVE_STATUS(widgetId);
 528              		.loc 1 1124 0
 529 0004 1F23     		movs	r3, #31
 530 0006 0340     		ands	r3, r0
 531 0008 0122     		movs	r2, #1
 532 000a 9A40     		lsls	r2, r2, r3
 533 000c 4009     		lsrs	r0, r0, #5
 534              	.LVL56:
 535 000e 031D     		adds	r3, r0, #4
 536 0010 9B00     		lsls	r3, r3, #2
 537 0012 0348     		ldr	r0, .L49
 538 0014 C318     		adds	r3, r0, r3
 539 0016 5868     		ldr	r0, [r3, #4]
 540 0018 1040     		ands	r0, r2
 541              	.LVL57:
 542 001a 00E0     		b	.L47
 543              	.LVL58:
 544              	.L48:
1120:Generated_Source\PSoC4/capsense_Structure.c ****     uint32 result = 0Lu;
 545              		.loc 1 1120 0
 546 001c 0020     		movs	r0, #0
 547              	.LVL59:
 548              	.L47:
1125:Generated_Source\PSoC4/capsense_Structure.c ****     }
1126:Generated_Source\PSoC4/capsense_Structure.c ****     return result;
1127:Generated_Source\PSoC4/capsense_Structure.c **** }
 549              		.loc 1 1127 0
 550              		@ sp needed
ARM GAS  C:\Users\Usuario\AppData\Local\Temp\ccPrHsje.s 			page 31


 551 001e 7047     		bx	lr
 552              	.L50:
 553              		.align	2
 554              	.L49:
 555 0020 00000000 		.word	capsense_dsRam
 556              		.cfi_endproc
 557              	.LFE6:
 558              		.size	capsense_IsWidgetActive, .-capsense_IsWidgetActive
 559              		.section	.text.capsense_IsSensorActive,"ax",%progbits
 560              		.align	2
 561              		.global	capsense_IsSensorActive
 562              		.code	16
 563              		.thumb_func
 564              		.type	capsense_IsSensorActive, %function
 565              	capsense_IsSensorActive:
 566              	.LFB7:
1128:Generated_Source\PSoC4/capsense_Structure.c **** 
1129:Generated_Source\PSoC4/capsense_Structure.c **** 
1130:Generated_Source\PSoC4/capsense_Structure.c **** /*******************************************************************************
1131:Generated_Source\PSoC4/capsense_Structure.c **** * Function Name: capsense_IsSensorActive
1132:Generated_Source\PSoC4/capsense_Structure.c **** ****************************************************************************//**
1133:Generated_Source\PSoC4/capsense_Structure.c **** *
1134:Generated_Source\PSoC4/capsense_Structure.c **** * \brief
1135:Generated_Source\PSoC4/capsense_Structure.c **** *  Reports if the specified sensor in the widget detects a touch.
1136:Generated_Source\PSoC4/capsense_Structure.c **** *
1137:Generated_Source\PSoC4/capsense_Structure.c **** * \details
1138:Generated_Source\PSoC4/capsense_Structure.c **** *  This function reports if the specified sensor in the widget has detected a
1139:Generated_Source\PSoC4/capsense_Structure.c **** *  touch or not by extracting information from the wdgtStatus registers
1140:Generated_Source\PSoC4/capsense_Structure.c **** *  (capsense_WDGT_STATUS<X>_VALUE). This function does not process the
1141:Generated_Source\PSoC4/capsense_Structure.c **** *  widget or sensor but extracts processed results from the \ref group_structures.
1142:Generated_Source\PSoC4/capsense_Structure.c **** *
1143:Generated_Source\PSoC4/capsense_Structure.c **** *  For proximity sensors, this function returns the proximity detection status. To
1144:Generated_Source\PSoC4/capsense_Structure.c **** *  get the finger touch status of proximity sensors, use the
1145:Generated_Source\PSoC4/capsense_Structure.c **** *  capsense_IsProximitySensorActive() function.
1146:Generated_Source\PSoC4/capsense_Structure.c **** *
1147:Generated_Source\PSoC4/capsense_Structure.c **** * \param widgetId
1148:Generated_Source\PSoC4/capsense_Structure.c **** *  Specifies the ID number of the widget.
1149:Generated_Source\PSoC4/capsense_Structure.c **** *  A macro for the widget ID can be found in the capsense Configuration header
1150:Generated_Source\PSoC4/capsense_Structure.c **** *  file defined as capsense_<WidgetName>_WDGT_ID.
1151:Generated_Source\PSoC4/capsense_Structure.c **** 
1152:Generated_Source\PSoC4/capsense_Structure.c **** * \param sensorId
1153:Generated_Source\PSoC4/capsense_Structure.c **** *  Specifies the ID number of the sensor within the widget to get its touch
1154:Generated_Source\PSoC4/capsense_Structure.c **** *  detection status.
1155:Generated_Source\PSoC4/capsense_Structure.c **** *  A macro for the sensor ID within the specified widget can be found in the
1156:Generated_Source\PSoC4/capsense_Structure.c **** *  capsense Configuration header file defined as
1157:Generated_Source\PSoC4/capsense_Structure.c **** *  capsense_<WidgetName>_SNS<SensorNumber>_ID.
1158:Generated_Source\PSoC4/capsense_Structure.c **** *
1159:Generated_Source\PSoC4/capsense_Structure.c **** * \return
1160:Generated_Source\PSoC4/capsense_Structure.c **** *  Returns the touch detection status of the specified sensor / widget:
1161:Generated_Source\PSoC4/capsense_Structure.c **** *    - Zero if no touch is detected in the specified sensor / widget or a wrong
1162:Generated_Source\PSoC4/capsense_Structure.c **** *      widget ID / sensor ID is specified.
1163:Generated_Source\PSoC4/capsense_Structure.c **** *    - Non-zero if the specified sensor is active i.e. touch is detected. If the
1164:Generated_Source\PSoC4/capsense_Structure.c **** *      specific sensor belongs to a proximity widget, the proximity detection
1165:Generated_Source\PSoC4/capsense_Structure.c **** *      status is returned.
1166:Generated_Source\PSoC4/capsense_Structure.c **** *
1167:Generated_Source\PSoC4/capsense_Structure.c **** *******************************************************************************/
1168:Generated_Source\PSoC4/capsense_Structure.c **** uint32 capsense_IsSensorActive(uint32 widgetId, uint32 sensorId)
ARM GAS  C:\Users\Usuario\AppData\Local\Temp\ccPrHsje.s 			page 32


1169:Generated_Source\PSoC4/capsense_Structure.c **** {
 567              		.loc 1 1169 0
 568              		.cfi_startproc
 569              		@ args = 0, pretend = 0, frame = 0
 570              		@ frame_needed = 0, uses_anonymous_args = 0
 571              		@ link register save eliminated.
 572              	.LVL60:
1170:Generated_Source\PSoC4/capsense_Structure.c ****     uint32 result = 0Lu;
1171:Generated_Source\PSoC4/capsense_Structure.c **** 
1172:Generated_Source\PSoC4/capsense_Structure.c ****     if ((widgetId < capsense_TOTAL_WIDGETS) &&
 573              		.loc 1 1172 0
 574 0000 0328     		cmp	r0, #3
 575 0002 0ED8     		bhi	.L53
1173:Generated_Source\PSoC4/capsense_Structure.c ****         (sensorId < capsense_GET_SENSOR_COUNT(widgetId)))
 576              		.loc 1 1173 0 discriminator 1
 577 0004 8200     		lsls	r2, r0, #2
 578 0006 1218     		adds	r2, r2, r0
 579 0008 D300     		lsls	r3, r2, #3
 580 000a 084A     		ldr	r2, .L55
 581 000c D318     		adds	r3, r2, r3
 582 000e 1B8C     		ldrh	r3, [r3, #32]
1172:Generated_Source\PSoC4/capsense_Structure.c ****         (sensorId < capsense_GET_SENSOR_COUNT(widgetId)))
 583              		.loc 1 1172 0 discriminator 1
 584 0010 8B42     		cmp	r3, r1
 585 0012 08D9     		bls	.L54
1174:Generated_Source\PSoC4/capsense_Structure.c ****     {
1175:Generated_Source\PSoC4/capsense_Structure.c ****         #if (capsense_ENABLE == capsense_PROXIMITY_WIDGET_EN)
1176:Generated_Source\PSoC4/capsense_Structure.c ****             if (capsense_WD_PROXIMITY_E ==
1177:Generated_Source\PSoC4/capsense_Structure.c ****                 (capsense_WD_TYPE_ENUM)capsense_dsFlash.wdgtArray[widgetId].wdgtType)
1178:Generated_Source\PSoC4/capsense_Structure.c ****             {
1179:Generated_Source\PSoC4/capsense_Structure.c ****                 sensorId = capsense_PROX_STS_OFFSET(sensorId);
1180:Generated_Source\PSoC4/capsense_Structure.c ****             }
1181:Generated_Source\PSoC4/capsense_Structure.c ****         #endif /* (capsense_ENABLE != capsense_PROXIMITY_WIDGET_EN) */
1182:Generated_Source\PSoC4/capsense_Structure.c ****         result = capsense_dsRam.snsStatus[widgetId] & (1Lu << sensorId);
 586              		.loc 1 1182 0
 587 0014 064B     		ldr	r3, .L55+4
 588 0016 1818     		adds	r0, r3, r0
 589              	.LVL61:
 590 0018 037E     		ldrb	r3, [r0, #24]
 591 001a 0120     		movs	r0, #1
 592 001c 8840     		lsls	r0, r0, r1
 593 001e 1840     		ands	r0, r3
 594              	.LVL62:
 595 0020 02E0     		b	.L52
 596              	.LVL63:
 597              	.L53:
1170:Generated_Source\PSoC4/capsense_Structure.c **** 
 598              		.loc 1 1170 0
 599 0022 0020     		movs	r0, #0
 600              	.LVL64:
 601 0024 00E0     		b	.L52
 602              	.LVL65:
 603              	.L54:
 604 0026 0020     		movs	r0, #0
 605              	.LVL66:
 606              	.L52:
1183:Generated_Source\PSoC4/capsense_Structure.c ****     }
ARM GAS  C:\Users\Usuario\AppData\Local\Temp\ccPrHsje.s 			page 33


1184:Generated_Source\PSoC4/capsense_Structure.c **** 
1185:Generated_Source\PSoC4/capsense_Structure.c ****     return result;
1186:Generated_Source\PSoC4/capsense_Structure.c **** }
 607              		.loc 1 1186 0
 608              		@ sp needed
 609 0028 7047     		bx	lr
 610              	.L56:
 611 002a C046     		.align	2
 612              	.L55:
 613 002c 00000000 		.word	.LANCHOR0
 614 0030 00000000 		.word	capsense_dsRam
 615              		.cfi_endproc
 616              	.LFE7:
 617              		.size	capsense_IsSensorActive, .-capsense_IsSensorActive
 618              		.section	.text.capsense_GetCentroidPos,"ax",%progbits
 619              		.align	2
 620              		.global	capsense_GetCentroidPos
 621              		.code	16
 622              		.thumb_func
 623              		.type	capsense_GetCentroidPos, %function
 624              	capsense_GetCentroidPos:
 625              	.LFB8:
1187:Generated_Source\PSoC4/capsense_Structure.c **** 
1188:Generated_Source\PSoC4/capsense_Structure.c **** #if (0u != capsense_MATRIX_WIDGET_EN)
1189:Generated_Source\PSoC4/capsense_Structure.c **** /*******************************************************************************
1190:Generated_Source\PSoC4/capsense_Structure.c **** * Function Name: capsense_IsMatrixButtonsActive
1191:Generated_Source\PSoC4/capsense_Structure.c **** ****************************************************************************//**
1192:Generated_Source\PSoC4/capsense_Structure.c **** *
1193:Generated_Source\PSoC4/capsense_Structure.c **** * \brief
1194:Generated_Source\PSoC4/capsense_Structure.c **** *  Reports the status of the specified matrix button widget.
1195:Generated_Source\PSoC4/capsense_Structure.c **** *
1196:Generated_Source\PSoC4/capsense_Structure.c **** * \details
1197:Generated_Source\PSoC4/capsense_Structure.c **** *  This function reports if the specified matrix widget has detected a touch or
1198:Generated_Source\PSoC4/capsense_Structure.c **** *  not by extracting information from the wdgtStatus registers
1199:Generated_Source\PSoC4/capsense_Structure.c **** *  (capsense_WDGT_STATUS<X>_VALUE for the CSD widgets and
1200:Generated_Source\PSoC4/capsense_Structure.c **** *  capsense_SNS_STATUS<WidgetId>_VALUE for CSX widget). In addition, the
1201:Generated_Source\PSoC4/capsense_Structure.c **** *  function provides details of the active sensor including active rows/columns
1202:Generated_Source\PSoC4/capsense_Structure.c **** *  for the CSD widgets. This function is used only with the matrix button
1203:Generated_Source\PSoC4/capsense_Structure.c **** *  widgets. This function does not process the widget but extracts
1204:Generated_Source\PSoC4/capsense_Structure.c **** *  processed results from the \ref group_structures.
1205:Generated_Source\PSoC4/capsense_Structure.c **** *
1206:Generated_Source\PSoC4/capsense_Structure.c **** * \param widgetId
1207:Generated_Source\PSoC4/capsense_Structure.c **** *  Specifies the ID number of the matrix button widget to check the status of its
1208:Generated_Source\PSoC4/capsense_Structure.c **** *  sensors.
1209:Generated_Source\PSoC4/capsense_Structure.c **** *  A macro for the widget ID can be found in the capsense Configuration header file
1210:Generated_Source\PSoC4/capsense_Structure.c **** *  defined as capsense_<WidgetName>_WDGT_ID
1211:Generated_Source\PSoC4/capsense_Structure.c **** *
1212:Generated_Source\PSoC4/capsense_Structure.c **** * \return
1213:Generated_Source\PSoC4/capsense_Structure.c **** *  Returns the touch detection status of the sensors in the specified matrix
1214:Generated_Source\PSoC4/capsense_Structure.c **** *  buttons widget. Zero indicates that no touch is detected in the specified
1215:Generated_Source\PSoC4/capsense_Structure.c **** *  widget or a wrong widgetId is specified.
1216:Generated_Source\PSoC4/capsense_Structure.c **** *    1. For the matrix buttons widgets with the CSD sensing mode:
1217:Generated_Source\PSoC4/capsense_Structure.c **** *      - Bit [31] if set, indicates that one or more sensors in the widget
1218:Generated_Source\PSoC4/capsense_Structure.c **** *        detected a touch.
1219:Generated_Source\PSoC4/capsense_Structure.c **** *      - Bits [30..24] are reserved
1220:Generated_Source\PSoC4/capsense_Structure.c **** *      - Bits [23..16] indicate the logical sensor number of the sensor that
1221:Generated_Source\PSoC4/capsense_Structure.c **** *        detected a touch. If more than one sensor detected a touch for the CSD
ARM GAS  C:\Users\Usuario\AppData\Local\Temp\ccPrHsje.s 			page 34


1222:Generated_Source\PSoC4/capsense_Structure.c **** *        widget, no status is reported because more than one touch is invalid for the
1223:Generated_Source\PSoC4/capsense_Structure.c **** *        CSD matrix buttons widgets.
1224:Generated_Source\PSoC4/capsense_Structure.c **** *      - Bits [15..8] indicate the active row number.
1225:Generated_Source\PSoC4/capsense_Structure.c **** *      - Bits [7..0] indicate the active column number.
1226:Generated_Source\PSoC4/capsense_Structure.c **** *    2. For the matrix buttons widgets with the CSX widgets, each bit (31..0)
1227:Generated_Source\PSoC4/capsense_Structure.c **** *      corresponds to the TX/RX intersection.
1228:Generated_Source\PSoC4/capsense_Structure.c **** *
1229:Generated_Source\PSoC4/capsense_Structure.c **** *******************************************************************************/
1230:Generated_Source\PSoC4/capsense_Structure.c **** uint32 capsense_IsMatrixButtonsActive(uint32 widgetId)
1231:Generated_Source\PSoC4/capsense_Structure.c **** {
1232:Generated_Source\PSoC4/capsense_Structure.c ****     uint32 result = 0Lu;
1233:Generated_Source\PSoC4/capsense_Structure.c ****     cystatus state = CYRET_SUCCESS;
1234:Generated_Source\PSoC4/capsense_Structure.c ****     capsense_FLASH_WD_STRUCT const *ptrFlashWdgt = 0u;
1235:Generated_Source\PSoC4/capsense_Structure.c **** 
1236:Generated_Source\PSoC4/capsense_Structure.c ****     #if (0u != capsense_CSD_MATRIX_WIDGET_EN)
1237:Generated_Source\PSoC4/capsense_Structure.c ****         capsense_RAM_WD_CSD_MATRIX_STRUCT *wdCsdMatrix;
1238:Generated_Source\PSoC4/capsense_Structure.c ****     #endif
1239:Generated_Source\PSoC4/capsense_Structure.c **** 
1240:Generated_Source\PSoC4/capsense_Structure.c ****     if (widgetId >= capsense_TOTAL_WIDGETS)
1241:Generated_Source\PSoC4/capsense_Structure.c ****     {
1242:Generated_Source\PSoC4/capsense_Structure.c ****         state = CYRET_BAD_PARAM;
1243:Generated_Source\PSoC4/capsense_Structure.c ****     }
1244:Generated_Source\PSoC4/capsense_Structure.c ****     else
1245:Generated_Source\PSoC4/capsense_Structure.c ****     {
1246:Generated_Source\PSoC4/capsense_Structure.c ****         ptrFlashWdgt = &capsense_dsFlash.wdgtArray[widgetId];
1247:Generated_Source\PSoC4/capsense_Structure.c **** 
1248:Generated_Source\PSoC4/capsense_Structure.c ****         if ((capsense_WD_TYPE_ENUM)ptrFlashWdgt->wdgtType != capsense_WD_MATRIX_BUTTON_E)
1249:Generated_Source\PSoC4/capsense_Structure.c ****         {
1250:Generated_Source\PSoC4/capsense_Structure.c ****             state = CYRET_BAD_PARAM;
1251:Generated_Source\PSoC4/capsense_Structure.c ****         }
1252:Generated_Source\PSoC4/capsense_Structure.c ****         else if (0u == capsense_GET_WIDGET_ACTIVE_STATUS(widgetId))
1253:Generated_Source\PSoC4/capsense_Structure.c ****         {
1254:Generated_Source\PSoC4/capsense_Structure.c ****             state = CYRET_BAD_PARAM;
1255:Generated_Source\PSoC4/capsense_Structure.c ****         }
1256:Generated_Source\PSoC4/capsense_Structure.c ****         else
1257:Generated_Source\PSoC4/capsense_Structure.c ****         {
1258:Generated_Source\PSoC4/capsense_Structure.c ****             /* input parameters are OK */
1259:Generated_Source\PSoC4/capsense_Structure.c ****         }
1260:Generated_Source\PSoC4/capsense_Structure.c ****     }
1261:Generated_Source\PSoC4/capsense_Structure.c **** 
1262:Generated_Source\PSoC4/capsense_Structure.c ****     if (CYRET_SUCCESS == state)
1263:Generated_Source\PSoC4/capsense_Structure.c ****     {
1264:Generated_Source\PSoC4/capsense_Structure.c ****         switch(capsense_GET_SENSE_METHOD(ptrFlashWdgt))
1265:Generated_Source\PSoC4/capsense_Structure.c ****         {
1266:Generated_Source\PSoC4/capsense_Structure.c ****         #if (0u != capsense_CSD_MATRIX_WIDGET_EN)
1267:Generated_Source\PSoC4/capsense_Structure.c ****             case capsense_SENSE_METHOD_CSD_E:
1268:Generated_Source\PSoC4/capsense_Structure.c ****                 wdCsdMatrix = ptrFlashWdgt->ptr2WdgtRam;
1269:Generated_Source\PSoC4/capsense_Structure.c **** 
1270:Generated_Source\PSoC4/capsense_Structure.c ****                 result = capsense_MATRIX_BUTTONS_TOUCHED |
1271:Generated_Source\PSoC4/capsense_Structure.c ****                          ((uint32)wdCsdMatrix->posSnsId << 16u)  |
1272:Generated_Source\PSoC4/capsense_Structure.c ****                          ((uint32)wdCsdMatrix->posRow   << 8u)   |
1273:Generated_Source\PSoC4/capsense_Structure.c ****                          (uint32)wdCsdMatrix->posCol;
1274:Generated_Source\PSoC4/capsense_Structure.c ****                 break;
1275:Generated_Source\PSoC4/capsense_Structure.c ****         #endif /* #if (0u != capsense_CSD_MATRIX_WIDGET_EN) */
1276:Generated_Source\PSoC4/capsense_Structure.c **** 
1277:Generated_Source\PSoC4/capsense_Structure.c ****         #if (0u != capsense_CSX_MATRIX_WIDGET_EN)
1278:Generated_Source\PSoC4/capsense_Structure.c ****             case capsense_SENSE_METHOD_CSX_E:
ARM GAS  C:\Users\Usuario\AppData\Local\Temp\ccPrHsje.s 			page 35


1279:Generated_Source\PSoC4/capsense_Structure.c ****                 result = capsense_dsRam.snsStatus[widgetId];
1280:Generated_Source\PSoC4/capsense_Structure.c ****                 break;
1281:Generated_Source\PSoC4/capsense_Structure.c ****         #endif /* #if (0u != capsense_CSX_MATRIX_WIDGET_EN) */
1282:Generated_Source\PSoC4/capsense_Structure.c **** 
1283:Generated_Source\PSoC4/capsense_Structure.c ****         default:
1284:Generated_Source\PSoC4/capsense_Structure.c ****             CYASSERT(0u);
1285:Generated_Source\PSoC4/capsense_Structure.c ****             break;
1286:Generated_Source\PSoC4/capsense_Structure.c ****         }
1287:Generated_Source\PSoC4/capsense_Structure.c ****     }
1288:Generated_Source\PSoC4/capsense_Structure.c **** 
1289:Generated_Source\PSoC4/capsense_Structure.c ****     return result;
1290:Generated_Source\PSoC4/capsense_Structure.c **** }
1291:Generated_Source\PSoC4/capsense_Structure.c **** #endif /* #if (0u != capsense_MATRIX_WIDGET_EN) */
1292:Generated_Source\PSoC4/capsense_Structure.c **** 
1293:Generated_Source\PSoC4/capsense_Structure.c **** #if (0u != capsense_PROXIMITY_WIDGET_EN)
1294:Generated_Source\PSoC4/capsense_Structure.c **** /*******************************************************************************
1295:Generated_Source\PSoC4/capsense_Structure.c **** * Function Name: capsense_IsProximitySensorActive
1296:Generated_Source\PSoC4/capsense_Structure.c **** ****************************************************************************//**
1297:Generated_Source\PSoC4/capsense_Structure.c **** *
1298:Generated_Source\PSoC4/capsense_Structure.c **** * \brief
1299:Generated_Source\PSoC4/capsense_Structure.c **** *  Reports the finger detection status of the specified proximity widget/sensor.
1300:Generated_Source\PSoC4/capsense_Structure.c **** *
1301:Generated_Source\PSoC4/capsense_Structure.c **** * \details
1302:Generated_Source\PSoC4/capsense_Structure.c **** *  This function reports if the specified proximity sensor has detected a touch
1303:Generated_Source\PSoC4/capsense_Structure.c **** *  or not by extracting information from the wdgtStatus registers
1304:Generated_Source\PSoC4/capsense_Structure.c **** *  (capsense_SNS_STATUS<WidgetId>_VALUE). This function is used
1305:Generated_Source\PSoC4/capsense_Structure.c **** *  only with proximity sensor widgets. This function does not process the
1306:Generated_Source\PSoC4/capsense_Structure.c **** *  widget but extracts processed results from the \ref group_structures.
1307:Generated_Source\PSoC4/capsense_Structure.c **** *
1308:Generated_Source\PSoC4/capsense_Structure.c **** * \param widgetId
1309:Generated_Source\PSoC4/capsense_Structure.c **** *  Specifies the ID number of the proximity widget.
1310:Generated_Source\PSoC4/capsense_Structure.c **** *  A macro for the widget ID can be found in the capsense Configuration header
1311:Generated_Source\PSoC4/capsense_Structure.c **** *  file defined as capsense_<WidgetName>_WDGT_ID
1312:Generated_Source\PSoC4/capsense_Structure.c **** *
1313:Generated_Source\PSoC4/capsense_Structure.c **** * \param proxId
1314:Generated_Source\PSoC4/capsense_Structure.c **** *  Specifies the ID number of the proximity sensor within the proximity widget to
1315:Generated_Source\PSoC4/capsense_Structure.c **** *  get its touch detection status.
1316:Generated_Source\PSoC4/capsense_Structure.c **** *  A macro for the proximity ID within a specified widget can be found in the
1317:Generated_Source\PSoC4/capsense_Structure.c **** *  capsense Configuration header file defined as
1318:Generated_Source\PSoC4/capsense_Structure.c **** *  capsense_<WidgetName>_SNS<SensorNumber>_ID
1319:Generated_Source\PSoC4/capsense_Structure.c **** *
1320:Generated_Source\PSoC4/capsense_Structure.c **** * \return
1321:Generated_Source\PSoC4/capsense_Structure.c **** *  Returns the status of the specified sensor of the proximity widget. Zero
1322:Generated_Source\PSoC4/capsense_Structure.c **** *  indicates that no touch is detected in the specified sensor / widget or a
1323:Generated_Source\PSoC4/capsense_Structure.c **** *  wrong widgetId / proxId is specified.
1324:Generated_Source\PSoC4/capsense_Structure.c **** *    - Bits [31..2] are reserved.
1325:Generated_Source\PSoC4/capsense_Structure.c **** *    - Bit [1] indicates that a touch is detected.
1326:Generated_Source\PSoC4/capsense_Structure.c **** *    - Bit [0] indicates that a proximity is detected.
1327:Generated_Source\PSoC4/capsense_Structure.c **** *
1328:Generated_Source\PSoC4/capsense_Structure.c **** *******************************************************************************/
1329:Generated_Source\PSoC4/capsense_Structure.c **** uint32 capsense_IsProximitySensorActive(uint32 widgetId, uint32 proxId)
1330:Generated_Source\PSoC4/capsense_Structure.c **** {
1331:Generated_Source\PSoC4/capsense_Structure.c ****     uint32 result = 0Lu;
1332:Generated_Source\PSoC4/capsense_Structure.c **** 
1333:Generated_Source\PSoC4/capsense_Structure.c ****     if ((widgetId < capsense_TOTAL_WIDGETS) && (proxId < capsense_GET_SENSOR_COUNT(widgetId)) &&
1334:Generated_Source\PSoC4/capsense_Structure.c ****         (capsense_WD_PROXIMITY_E ==
1335:Generated_Source\PSoC4/capsense_Structure.c ****             (capsense_WD_TYPE_ENUM)capsense_dsFlash.wdgtArray[widgetId].wdgtType))
ARM GAS  C:\Users\Usuario\AppData\Local\Temp\ccPrHsje.s 			page 36


1336:Generated_Source\PSoC4/capsense_Structure.c ****     {
1337:Generated_Source\PSoC4/capsense_Structure.c ****         result = capsense_dsRam.snsStatus[widgetId];
1338:Generated_Source\PSoC4/capsense_Structure.c ****         result >>= capsense_PROX_STS_OFFSET(proxId);
1339:Generated_Source\PSoC4/capsense_Structure.c ****         result &=  capsense_PROX_STS_MASK;
1340:Generated_Source\PSoC4/capsense_Structure.c ****     }
1341:Generated_Source\PSoC4/capsense_Structure.c **** 
1342:Generated_Source\PSoC4/capsense_Structure.c ****     return result;
1343:Generated_Source\PSoC4/capsense_Structure.c **** }
1344:Generated_Source\PSoC4/capsense_Structure.c **** #endif /* #if (0u != capsense_PROXIMITY_WIDGET_EN) */
1345:Generated_Source\PSoC4/capsense_Structure.c **** 
1346:Generated_Source\PSoC4/capsense_Structure.c **** 
1347:Generated_Source\PSoC4/capsense_Structure.c **** #if (0u != capsense_SLIDER_WIDGET_EN)
1348:Generated_Source\PSoC4/capsense_Structure.c **** /*******************************************************************************
1349:Generated_Source\PSoC4/capsense_Structure.c **** * Function Name: capsense_GetCentroidPos
1350:Generated_Source\PSoC4/capsense_Structure.c **** ****************************************************************************//**
1351:Generated_Source\PSoC4/capsense_Structure.c **** *
1352:Generated_Source\PSoC4/capsense_Structure.c **** * \brief
1353:Generated_Source\PSoC4/capsense_Structure.c **** *  Reports the centroid position for the specified slider widget.
1354:Generated_Source\PSoC4/capsense_Structure.c **** *
1355:Generated_Source\PSoC4/capsense_Structure.c **** * \details
1356:Generated_Source\PSoC4/capsense_Structure.c **** *  This function reports the centroid value of a specified radial or linear
1357:Generated_Source\PSoC4/capsense_Structure.c **** *  slider widget by extracting information from the wdgtStatus registers
1358:Generated_Source\PSoC4/capsense_Structure.c **** *  (capsense_<WidgetName>_POSITION<X>_VALUE). This function is
1359:Generated_Source\PSoC4/capsense_Structure.c **** *  used only with radial or linear slider widgets. This function does not
1360:Generated_Source\PSoC4/capsense_Structure.c **** *  process the widget but extracts processed results from the \ref group_structures.
1361:Generated_Source\PSoC4/capsense_Structure.c **** *
1362:Generated_Source\PSoC4/capsense_Structure.c **** * \param widgetId
1363:Generated_Source\PSoC4/capsense_Structure.c **** *  Specifies the ID number of a slider widget to get the centroid of the
1364:Generated_Source\PSoC4/capsense_Structure.c **** *  detected touch.
1365:Generated_Source\PSoC4/capsense_Structure.c **** *  A macro for the widget ID can be found in the
1366:Generated_Source\PSoC4/capsense_Structure.c **** *  capsense Configuration header file defined as
1367:Generated_Source\PSoC4/capsense_Structure.c **** *  capsense_<WidgetName>_WDGT_ID
1368:Generated_Source\PSoC4/capsense_Structure.c **** *
1369:Generated_Source\PSoC4/capsense_Structure.c **** * \return
1370:Generated_Source\PSoC4/capsense_Structure.c **** *  Returns the centroid position of a specified slider widget:
1371:Generated_Source\PSoC4/capsense_Structure.c **** *    - The centroid position if a touch is detected.
1372:Generated_Source\PSoC4/capsense_Structure.c **** *    - capsense_SLIDER_NO_TOUCH - No touch is detected or a wrong
1373:Generated_Source\PSoC4/capsense_Structure.c **** *      widgetId is specified.
1374:Generated_Source\PSoC4/capsense_Structure.c **** *
1375:Generated_Source\PSoC4/capsense_Structure.c **** *******************************************************************************/
1376:Generated_Source\PSoC4/capsense_Structure.c **** uint32 capsense_GetCentroidPos(uint32 widgetId)
1377:Generated_Source\PSoC4/capsense_Structure.c **** {
 626              		.loc 1 1377 0
 627              		.cfi_startproc
 628              		@ args = 0, pretend = 0, frame = 0
 629              		@ frame_needed = 0, uses_anonymous_args = 0
 630              		@ link register save eliminated.
 631              	.LVL67:
1378:Generated_Source\PSoC4/capsense_Structure.c ****     uint32 result = capsense_SLIDER_NO_TOUCH;
1379:Generated_Source\PSoC4/capsense_Structure.c ****     capsense_RAM_WD_SLIDER_STRUCT *wdSlider;
1380:Generated_Source\PSoC4/capsense_Structure.c **** 
1381:Generated_Source\PSoC4/capsense_Structure.c ****     if ((widgetId < capsense_TOTAL_WIDGETS) &&
 632              		.loc 1 1381 0
 633 0000 0328     		cmp	r0, #3
 634 0002 11D8     		bhi	.L59
1382:Generated_Source\PSoC4/capsense_Structure.c ****         ((capsense_WD_LINEAR_SLIDER_E ==
1383:Generated_Source\PSoC4/capsense_Structure.c ****             (capsense_WD_TYPE_ENUM)capsense_dsFlash.wdgtArray[widgetId].wdgtType) ||
ARM GAS  C:\Users\Usuario\AppData\Local\Temp\ccPrHsje.s 			page 37


 635              		.loc 1 1383 0 discriminator 1
 636 0004 8200     		lsls	r2, r0, #2
 637 0006 1218     		adds	r2, r2, r0
 638 0008 D300     		lsls	r3, r2, #3
 639 000a 094A     		ldr	r2, .L61
 640 000c D318     		adds	r3, r2, r3
 641 000e 2233     		adds	r3, r3, #34
 642 0010 1B78     		ldrb	r3, [r3]
 643 0012 023B     		subs	r3, r3, #2
 644 0014 DBB2     		uxtb	r3, r3
1381:Generated_Source\PSoC4/capsense_Structure.c ****         ((capsense_WD_LINEAR_SLIDER_E ==
 645              		.loc 1 1381 0 discriminator 1
 646 0016 012B     		cmp	r3, #1
 647 0018 08D8     		bhi	.L60
1384:Generated_Source\PSoC4/capsense_Structure.c ****          (capsense_WD_RADIAL_SLIDER_E ==
1385:Generated_Source\PSoC4/capsense_Structure.c ****             (capsense_WD_TYPE_ENUM)capsense_dsFlash.wdgtArray[widgetId].wdgtType)))
1386:Generated_Source\PSoC4/capsense_Structure.c ****     {
1387:Generated_Source\PSoC4/capsense_Structure.c ****         wdSlider = capsense_dsFlash.wdgtArray[widgetId].ptr2WdgtRam;
 648              		.loc 1 1387 0
 649 001a 8300     		lsls	r3, r0, #2
 650 001c 1818     		adds	r0, r3, r0
 651              	.LVL68:
 652 001e C300     		lsls	r3, r0, #3
 653 0020 D318     		adds	r3, r2, r3
 654 0022 DB68     		ldr	r3, [r3, #12]
 655              	.LVL69:
1388:Generated_Source\PSoC4/capsense_Structure.c ****         result = (uint32)wdSlider->position[0u];
 656              		.loc 1 1388 0
 657 0024 188A     		ldrh	r0, [r3, #16]
 658              	.LVL70:
 659 0026 02E0     		b	.L58
 660              	.LVL71:
 661              	.L59:
1378:Generated_Source\PSoC4/capsense_Structure.c ****     capsense_RAM_WD_SLIDER_STRUCT *wdSlider;
 662              		.loc 1 1378 0
 663 0028 0248     		ldr	r0, .L61+4
 664              	.LVL72:
 665 002a 00E0     		b	.L58
 666              	.LVL73:
 667              	.L60:
 668 002c 0148     		ldr	r0, .L61+4
 669              	.LVL74:
 670              	.L58:
1389:Generated_Source\PSoC4/capsense_Structure.c ****     }
1390:Generated_Source\PSoC4/capsense_Structure.c **** 
1391:Generated_Source\PSoC4/capsense_Structure.c ****     return result;
1392:Generated_Source\PSoC4/capsense_Structure.c **** }
 671              		.loc 1 1392 0
 672              		@ sp needed
 673 002e 7047     		bx	lr
 674              	.L62:
 675              		.align	2
 676              	.L61:
 677 0030 00000000 		.word	.LANCHOR0
 678 0034 FFFF0000 		.word	65535
 679              		.cfi_endproc
 680              	.LFE8:
ARM GAS  C:\Users\Usuario\AppData\Local\Temp\ccPrHsje.s 			page 38


 681              		.size	capsense_GetCentroidPos, .-capsense_GetCentroidPos
 682              		.global	capsense_ramIdacInit
 683              		.global	capsense_ramWidgetInit
 684              		.global	capsense_ioList
 685              		.global	capsense_dsFlash
 686              		.comm	capsense_dsRam,188,4
 687              		.section	.rodata
 688              		.align	2
 689              		.set	.LANCHOR0,. + 0
 690              		.set	.LANCHOR1,. + 128
 691              		.type	capsense_ramIdacInit, %object
 692              		.size	capsense_ramIdacInit, 8
 693              	capsense_ramIdacInit:
 694 0000 20       		.byte	32
 695 0001 20       		.byte	32
 696 0002 20       		.byte	32
 697 0003 20       		.byte	32
 698 0004 20       		.byte	32
 699 0005 20       		.byte	32
 700 0006 20       		.byte	32
 701 0007 20       		.byte	32
 702              		.type	capsense_dsFlash, %object
 703              		.size	capsense_dsFlash, 160
 704              	capsense_dsFlash:
 705 0008 00000000 		.word	capsense_ioList
 706 000c 20000000 		.word	capsense_dsRam+32
 707 0010 62000000 		.word	capsense_dsRam+98
 708 0014 00000000 		.word	0
 709 0018 0C000000 		.word	capsense_debounceBTN0
 710 001c 09280000 		.word	10249
 711 0020 0100     		.short	1
 712 0022 01       		.byte	1
 713 0023 02       		.byte	2
 714 0024 01       		.byte	1
 715 0025 01       		.byte	1
 716 0026 0000     		.short	0
 717 0028 00000000 		.word	0
 718 002c 00       		.byte	0
 719 002d 000000   		.space	3
 720 0030 38000000 		.word	capsense_ioList+56
 721 0034 30000000 		.word	capsense_dsRam+48
 722 0038 6C000000 		.word	capsense_dsRam+108
 723 003c 00000000 		.word	0
 724 0040 08000000 		.word	capsense_debounceBTN1
 725 0044 01280000 		.word	10241
 726 0048 0100     		.short	1
 727 004a 01       		.byte	1
 728 004b 02       		.byte	2
 729 004c 01       		.byte	1
 730 004d 01       		.byte	1
 731 004e 0000     		.short	0
 732 0050 00000000 		.word	0
 733 0054 00       		.byte	0
 734 0055 000000   		.space	3
 735 0058 70000000 		.word	capsense_ioList+112
 736 005c 40000000 		.word	capsense_dsRam+64
 737 0060 76000000 		.word	capsense_dsRam+118
ARM GAS  C:\Users\Usuario\AppData\Local\Temp\ccPrHsje.s 			page 39


 738 0064 00000000 		.word	0
 739 0068 04000000 		.word	capsense_debounceBTN2
 740 006c 01280000 		.word	10241
 741 0070 0100     		.short	1
 742 0072 01       		.byte	1
 743 0073 02       		.byte	2
 744 0074 01       		.byte	1
 745 0075 01       		.byte	1
 746 0076 0000     		.short	0
 747 0078 00000000 		.word	0
 748 007c 00       		.byte	0
 749 007d 000000   		.space	3
 750 0080 A8000000 		.word	capsense_ioList+168
 751 0084 50000000 		.word	capsense_dsRam+80
 752 0088 80000000 		.word	capsense_dsRam+128
 753 008c 00000000 		.word	0
 754 0090 00000000 		.word	capsense_debounceLinearSlider
 755 0094 01280000 		.word	10241
 756 0098 0500     		.short	5
 757 009a 02       		.byte	2
 758 009b 01       		.byte	1
 759 009c 05       		.byte	5
 760 009d 00       		.byte	0
 761 009e 6400     		.short	100
 762 00a0 00190000 		.word	6400
 763 00a4 80       		.byte	-128
 764 00a5 000000   		.space	3
 765              		.type	capsense_ramWidgetInit, %object
 766              		.size	capsense_ramWidgetInit, 66
 767              	capsense_ramWidgetInit:
 768 00a8 6400     		.short	100
 769 00aa 6400     		.short	100
 770 00ac 28       		.byte	40
 771 00ad 28       		.byte	40
 772 00ae 0A       		.byte	10
 773 00af 03       		.byte	3
 774 00b0 1E       		.byte	30
 775 00b1 20       		.byte	32
 776 00b2 02       		.byte	2
 777 00b3 00       		.space	1
 778 00b4 5000     		.short	80
 779 00b6 00       		.byte	0
 780 00b7 00       		.space	1
 781 00b8 6400     		.short	100
 782 00ba 6400     		.short	100
 783 00bc 28       		.byte	40
 784 00bd 28       		.byte	40
 785 00be 0A       		.byte	10
 786 00bf 03       		.byte	3
 787 00c0 1E       		.byte	30
 788 00c1 20       		.byte	32
 789 00c2 02       		.byte	2
 790 00c3 00       		.space	1
 791 00c4 5000     		.short	80
 792 00c6 00       		.byte	0
 793 00c7 00       		.space	1
 794 00c8 6400     		.short	100
ARM GAS  C:\Users\Usuario\AppData\Local\Temp\ccPrHsje.s 			page 40


 795 00ca 6400     		.short	100
 796 00cc 28       		.byte	40
 797 00cd 28       		.byte	40
 798 00ce 0A       		.byte	10
 799 00cf 03       		.byte	3
 800 00d0 1E       		.byte	30
 801 00d1 20       		.byte	32
 802 00d2 02       		.byte	2
 803 00d3 00       		.space	1
 804 00d4 5000     		.short	80
 805 00d6 00       		.byte	0
 806 00d7 00       		.space	1
 807 00d8 0C00     		.short	12
 808 00da 6400     		.short	100
 809 00dc 28       		.byte	40
 810 00dd 28       		.byte	40
 811 00de 0A       		.byte	10
 812 00df 03       		.byte	3
 813 00e0 1E       		.byte	30
 814 00e1 20       		.byte	32
 815 00e2 04       		.byte	4
 816 00e3 00       		.space	1
 817 00e4 0800     		.short	8
 818 00e6 00       		.byte	0
 819 00e7 00       		.space	1
 820 00e8 FFFF     		.short	-1
 821 00ea 0000     		.space	2
 822              		.type	capsense_ioList, %object
 823              		.size	capsense_ioList, 308
 824              	capsense_ioList:
 825 00ec 00010240 		.word	1073873152
 826 00f0 08010440 		.word	1074004232
 827 00f4 00010440 		.word	1074004224
 828 00f8 04010440 		.word	1074004228
 829 00fc 00000F00 		.word	983040
 830 0100 10000000 		.word	16
 831 0104 10       		.byte	16
 832 0105 04       		.byte	4
 833 0106 0C       		.byte	12
 834 0107 00       		.space	1
 835 0108 00010240 		.word	1073873152
 836 010c 08010440 		.word	1074004232
 837 0110 00010440 		.word	1074004224
 838 0114 04010440 		.word	1074004228
 839 0118 00F00000 		.word	61440
 840 011c 08000000 		.word	8
 841 0120 0C       		.byte	12
 842 0121 03       		.byte	3
 843 0122 09       		.byte	9
 844 0123 00       		.space	1
 845 0124 00010240 		.word	1073873152
 846 0128 08010440 		.word	1074004232
 847 012c 00010440 		.word	1074004224
 848 0130 04010440 		.word	1074004228
 849 0134 0000F000 		.word	15728640
 850 0138 20000000 		.word	32
 851 013c 14       		.byte	20
ARM GAS  C:\Users\Usuario\AppData\Local\Temp\ccPrHsje.s 			page 41


 852 013d 05       		.byte	5
 853 013e 0F       		.byte	15
 854 013f 00       		.space	1
 855 0140 00010240 		.word	1073873152
 856 0144 08010440 		.word	1074004232
 857 0148 00010440 		.word	1074004224
 858 014c 04010440 		.word	1074004228
 859 0150 00F00000 		.word	61440
 860 0154 08000000 		.word	8
 861 0158 0C       		.byte	12
 862 0159 03       		.byte	3
 863 015a 09       		.byte	9
 864 015b 00       		.space	1
 865 015c 00010240 		.word	1073873152
 866 0160 08010440 		.word	1074004232
 867 0164 00010440 		.word	1074004224
 868 0168 04010440 		.word	1074004228
 869 016c 0000000F 		.word	251658240
 870 0170 40000000 		.word	64
 871 0174 18       		.byte	24
 872 0175 06       		.byte	6
 873 0176 12       		.byte	18
 874 0177 00       		.space	1
 875 0178 00010240 		.word	1073873152
 876 017c 08010440 		.word	1074004232
 877 0180 00010440 		.word	1074004224
 878 0184 04010440 		.word	1074004228
 879 0188 00F00000 		.word	61440
 880 018c 08000000 		.word	8
 881 0190 0C       		.byte	12
 882 0191 03       		.byte	3
 883 0192 09       		.byte	9
 884 0193 00       		.space	1
 885 0194 00000240 		.word	1073872896
 886 0198 08000440 		.word	1074003976
 887 019c 00000440 		.word	1074003968
 888 01a0 04000440 		.word	1074003972
 889 01a4 0F000000 		.word	15
 890 01a8 01000000 		.word	1
 891 01ac 00       		.byte	0
 892 01ad 00       		.byte	0
 893 01ae 00       		.byte	0
 894 01af 00       		.space	1
 895 01b0 00000240 		.word	1073872896
 896 01b4 08000440 		.word	1074003976
 897 01b8 00000440 		.word	1074003968
 898 01bc 04000440 		.word	1074003972
 899 01c0 F0000000 		.word	240
 900 01c4 02000000 		.word	2
 901 01c8 04       		.byte	4
 902 01c9 01       		.byte	1
 903 01ca 03       		.byte	3
 904 01cb 00       		.space	1
 905 01cc 00000240 		.word	1073872896
 906 01d0 08000440 		.word	1074003976
 907 01d4 00000440 		.word	1074003968
 908 01d8 04000440 		.word	1074003972
ARM GAS  C:\Users\Usuario\AppData\Local\Temp\ccPrHsje.s 			page 42


 909 01dc 000F0000 		.word	3840
 910 01e0 04000000 		.word	4
 911 01e4 08       		.byte	8
 912 01e5 02       		.byte	2
 913 01e6 06       		.byte	6
 914 01e7 00       		.space	1
 915 01e8 00000240 		.word	1073872896
 916 01ec 08000440 		.word	1074003976
 917 01f0 00000440 		.word	1074003968
 918 01f4 04000440 		.word	1074003972
 919 01f8 00F00000 		.word	61440
 920 01fc 08000000 		.word	8
 921 0200 0C       		.byte	12
 922 0201 03       		.byte	3
 923 0202 09       		.byte	9
 924 0203 00       		.space	1
 925 0204 00000240 		.word	1073872896
 926 0208 08000440 		.word	1074003976
 927 020c 00000440 		.word	1074003968
 928 0210 04000440 		.word	1074003972
 929 0214 0000000F 		.word	251658240
 930 0218 40000000 		.word	64
 931 021c 18       		.byte	24
 932 021d 06       		.byte	6
 933 021e 12       		.byte	18
 934 021f 00       		.space	1
 935              		.bss
 936              		.align	2
 937              		.type	capsense_debounceLinearSlider, %object
 938              		.size	capsense_debounceLinearSlider, 1
 939              	capsense_debounceLinearSlider:
 940 0000 00       		.space	1
 941 0001 000000   		.space	3
 942              		.type	capsense_debounceBTN2, %object
 943              		.size	capsense_debounceBTN2, 1
 944              	capsense_debounceBTN2:
 945 0004 00       		.space	1
 946 0005 000000   		.space	3
 947              		.type	capsense_debounceBTN1, %object
 948              		.size	capsense_debounceBTN1, 1
 949              	capsense_debounceBTN1:
 950 0008 00       		.space	1
 951 0009 000000   		.space	3
 952              		.type	capsense_debounceBTN0, %object
 953              		.size	capsense_debounceBTN0, 1
 954              	capsense_debounceBTN0:
 955 000c 00       		.space	1
 956              		.text
 957              	.Letext0:
 958              		.file 2 "Generated_Source\\PSoC4/cytypes.h"
 959              		.file 3 "Generated_Source\\PSoC4\\capsense_Configuration.h"
 960              		.file 4 "Generated_Source\\PSoC4\\capsense_Structure.h"
 961              		.file 5 "Generated_Source\\PSoC4\\CyLib.h"
