ARM GAS  C:\Users\Usuario\AppData\Local\Temp\ccdKnzKN.s 			page 1


   1              		.syntax unified
   2              		.cpu cortex-m0
   3              		.fpu softvfp
   4              		.eabi_attribute 20, 1
   5              		.eabi_attribute 21, 1
   6              		.eabi_attribute 23, 3
   7              		.eabi_attribute 24, 1
   8              		.eabi_attribute 25, 1
   9              		.eabi_attribute 26, 1
  10              		.eabi_attribute 30, 1
  11              		.eabi_attribute 34, 0
  12              		.eabi_attribute 18, 4
  13              		.thumb
  14              		.syntax unified
  15              		.file	"adc_PM.c"
  16              		.text
  17              	.Ltext0:
  18              		.cfi_sections	.debug_frame
  19              		.section	.text.adc_SaveConfig,"ax",%progbits
  20              		.align	2
  21              		.global	adc_SaveConfig
  22              		.code	16
  23              		.thumb_func
  24              		.type	adc_SaveConfig, %function
  25              	adc_SaveConfig:
  26              	.LFB0:
  27              		.file 1 "Generated_Source\\PSoC4\\adc_PM.c"
   1:Generated_Source\PSoC4/adc_PM.c **** /*******************************************************************************
   2:Generated_Source\PSoC4/adc_PM.c **** * File Name: adc_PM.c
   3:Generated_Source\PSoC4/adc_PM.c **** * Version 2.50
   4:Generated_Source\PSoC4/adc_PM.c **** *
   5:Generated_Source\PSoC4/adc_PM.c **** * Description:
   6:Generated_Source\PSoC4/adc_PM.c **** *  This file provides Sleep/WakeUp APIs functionality.
   7:Generated_Source\PSoC4/adc_PM.c **** *
   8:Generated_Source\PSoC4/adc_PM.c **** * Note:
   9:Generated_Source\PSoC4/adc_PM.c **** *
  10:Generated_Source\PSoC4/adc_PM.c **** ********************************************************************************
  11:Generated_Source\PSoC4/adc_PM.c **** * Copyright 2008-2017, Cypress Semiconductor Corporation.  All rights reserved.
  12:Generated_Source\PSoC4/adc_PM.c **** * You may use this file only in accordance with the license, terms, conditions,
  13:Generated_Source\PSoC4/adc_PM.c **** * disclaimers, and limitations in the end user license agreement accompanying
  14:Generated_Source\PSoC4/adc_PM.c **** * the software package with which this file was provided.
  15:Generated_Source\PSoC4/adc_PM.c **** *******************************************************************************/
  16:Generated_Source\PSoC4/adc_PM.c **** 
  17:Generated_Source\PSoC4/adc_PM.c **** #include "adc.h"
  18:Generated_Source\PSoC4/adc_PM.c **** 
  19:Generated_Source\PSoC4/adc_PM.c **** 
  20:Generated_Source\PSoC4/adc_PM.c **** /***************************************
  21:Generated_Source\PSoC4/adc_PM.c **** * Local data allocation
  22:Generated_Source\PSoC4/adc_PM.c **** ***************************************/
  23:Generated_Source\PSoC4/adc_PM.c **** 
  24:Generated_Source\PSoC4/adc_PM.c **** static adc_BACKUP_STRUCT  adc_backup =
  25:Generated_Source\PSoC4/adc_PM.c **** {
  26:Generated_Source\PSoC4/adc_PM.c ****     adc_DISABLED,
  27:Generated_Source\PSoC4/adc_PM.c ****     0u    
  28:Generated_Source\PSoC4/adc_PM.c **** };
  29:Generated_Source\PSoC4/adc_PM.c **** 
  30:Generated_Source\PSoC4/adc_PM.c **** 
ARM GAS  C:\Users\Usuario\AppData\Local\Temp\ccdKnzKN.s 			page 2


  31:Generated_Source\PSoC4/adc_PM.c **** /*******************************************************************************
  32:Generated_Source\PSoC4/adc_PM.c **** * Function Name: adc_SaveConfig
  33:Generated_Source\PSoC4/adc_PM.c **** ********************************************************************************
  34:Generated_Source\PSoC4/adc_PM.c **** *
  35:Generated_Source\PSoC4/adc_PM.c **** * Summary:
  36:Generated_Source\PSoC4/adc_PM.c **** *  Saves the current user configuration.
  37:Generated_Source\PSoC4/adc_PM.c **** *
  38:Generated_Source\PSoC4/adc_PM.c **** * Parameters:
  39:Generated_Source\PSoC4/adc_PM.c **** *  None.
  40:Generated_Source\PSoC4/adc_PM.c **** *
  41:Generated_Source\PSoC4/adc_PM.c **** * Return:
  42:Generated_Source\PSoC4/adc_PM.c **** *  None.
  43:Generated_Source\PSoC4/adc_PM.c **** *
  44:Generated_Source\PSoC4/adc_PM.c **** *******************************************************************************/
  45:Generated_Source\PSoC4/adc_PM.c **** void adc_SaveConfig(void)
  46:Generated_Source\PSoC4/adc_PM.c **** {
  28              		.loc 1 46 0
  29              		.cfi_startproc
  30              		@ args = 0, pretend = 0, frame = 0
  31              		@ frame_needed = 0, uses_anonymous_args = 0
  32              		@ link register save eliminated.
  47:Generated_Source\PSoC4/adc_PM.c ****     /* All configuration registers are marked as [reset_all_retention] */
  48:Generated_Source\PSoC4/adc_PM.c **** }
  33              		.loc 1 48 0
  34              		@ sp needed
  35 0000 7047     		bx	lr
  36              		.cfi_endproc
  37              	.LFE0:
  38              		.size	adc_SaveConfig, .-adc_SaveConfig
  39 0002 C046     		.section	.text.adc_RestoreConfig,"ax",%progbits
  40              		.align	2
  41              		.global	adc_RestoreConfig
  42              		.code	16
  43              		.thumb_func
  44              		.type	adc_RestoreConfig, %function
  45              	adc_RestoreConfig:
  46              	.LFB1:
  49:Generated_Source\PSoC4/adc_PM.c **** 
  50:Generated_Source\PSoC4/adc_PM.c **** 
  51:Generated_Source\PSoC4/adc_PM.c **** /*******************************************************************************
  52:Generated_Source\PSoC4/adc_PM.c **** * Function Name: adc_RestoreConfig
  53:Generated_Source\PSoC4/adc_PM.c **** ********************************************************************************
  54:Generated_Source\PSoC4/adc_PM.c **** *
  55:Generated_Source\PSoC4/adc_PM.c **** * Summary:
  56:Generated_Source\PSoC4/adc_PM.c **** *  Restores the current user configuration.
  57:Generated_Source\PSoC4/adc_PM.c **** *
  58:Generated_Source\PSoC4/adc_PM.c **** * Parameters:
  59:Generated_Source\PSoC4/adc_PM.c **** *  None.
  60:Generated_Source\PSoC4/adc_PM.c **** *
  61:Generated_Source\PSoC4/adc_PM.c **** * Return:
  62:Generated_Source\PSoC4/adc_PM.c **** *  None.
  63:Generated_Source\PSoC4/adc_PM.c **** *
  64:Generated_Source\PSoC4/adc_PM.c **** *******************************************************************************/
  65:Generated_Source\PSoC4/adc_PM.c **** void adc_RestoreConfig(void)
  66:Generated_Source\PSoC4/adc_PM.c **** {
  47              		.loc 1 66 0
  48              		.cfi_startproc
ARM GAS  C:\Users\Usuario\AppData\Local\Temp\ccdKnzKN.s 			page 3


  49              		@ args = 0, pretend = 0, frame = 0
  50              		@ frame_needed = 0, uses_anonymous_args = 0
  51              		@ link register save eliminated.
  67:Generated_Source\PSoC4/adc_PM.c ****     /* All configuration registers are marked as [reset_all_retention] */
  68:Generated_Source\PSoC4/adc_PM.c **** }
  52              		.loc 1 68 0
  53              		@ sp needed
  54 0000 7047     		bx	lr
  55              		.cfi_endproc
  56              	.LFE1:
  57              		.size	adc_RestoreConfig, .-adc_RestoreConfig
  58 0002 C046     		.section	.text.adc_Sleep,"ax",%progbits
  59              		.align	2
  60              		.global	adc_Sleep
  61              		.code	16
  62              		.thumb_func
  63              		.type	adc_Sleep, %function
  64              	adc_Sleep:
  65              	.LFB2:
  69:Generated_Source\PSoC4/adc_PM.c **** 
  70:Generated_Source\PSoC4/adc_PM.c **** 
  71:Generated_Source\PSoC4/adc_PM.c **** /*******************************************************************************
  72:Generated_Source\PSoC4/adc_PM.c **** * Function Name: adc_Sleep
  73:Generated_Source\PSoC4/adc_PM.c **** ********************************************************************************
  74:Generated_Source\PSoC4/adc_PM.c **** *
  75:Generated_Source\PSoC4/adc_PM.c **** * Summary:
  76:Generated_Source\PSoC4/adc_PM.c **** *  Stops the ADC operation and saves the configuration registers and component
  77:Generated_Source\PSoC4/adc_PM.c **** *  enable state. Should be called just prior to entering sleep.
  78:Generated_Source\PSoC4/adc_PM.c **** *
  79:Generated_Source\PSoC4/adc_PM.c **** * Parameters:
  80:Generated_Source\PSoC4/adc_PM.c **** *  None.
  81:Generated_Source\PSoC4/adc_PM.c **** *
  82:Generated_Source\PSoC4/adc_PM.c **** * Return:
  83:Generated_Source\PSoC4/adc_PM.c **** *  None.
  84:Generated_Source\PSoC4/adc_PM.c **** *
  85:Generated_Source\PSoC4/adc_PM.c **** * Global Variables:
  86:Generated_Source\PSoC4/adc_PM.c **** *  adc_backup - modified.
  87:Generated_Source\PSoC4/adc_PM.c **** *
  88:Generated_Source\PSoC4/adc_PM.c **** *******************************************************************************/
  89:Generated_Source\PSoC4/adc_PM.c **** void adc_Sleep(void)
  90:Generated_Source\PSoC4/adc_PM.c **** {
  66              		.loc 1 90 0
  67              		.cfi_startproc
  68              		@ args = 0, pretend = 0, frame = 0
  69              		@ frame_needed = 0, uses_anonymous_args = 0
  70 0000 10B5     		push	{r4, lr}
  71              		.cfi_def_cfa_offset 8
  72              		.cfi_offset 4, -8
  73              		.cfi_offset 14, -4
  91:Generated_Source\PSoC4/adc_PM.c ****     /* During deepsleep/ hibernate mode keep SARMUX active, i.e. do not open
  92:Generated_Source\PSoC4/adc_PM.c ****     *   all switches (disconnect), to be used for ADFT
  93:Generated_Source\PSoC4/adc_PM.c ****     */
  94:Generated_Source\PSoC4/adc_PM.c ****     adc_backup.dftRegVal = adc_SAR_DFT_CTRL_REG & (uint32)~adc_ADFT_OVERRIDE;
  74              		.loc 1 94 0
  75 0002 184A     		ldr	r2, .L8
  76 0004 1368     		ldr	r3, [r2]
  77 0006 5B00     		lsls	r3, r3, #1
ARM GAS  C:\Users\Usuario\AppData\Local\Temp\ccdKnzKN.s 			page 4


  78 0008 5B08     		lsrs	r3, r3, #1
  79 000a 1749     		ldr	r1, .L8+4
  80 000c 4B60     		str	r3, [r1, #4]
  95:Generated_Source\PSoC4/adc_PM.c ****     adc_SAR_DFT_CTRL_REG |= adc_ADFT_OVERRIDE;
  81              		.loc 1 95 0
  82 000e 1368     		ldr	r3, [r2]
  83 0010 8021     		movs	r1, #128
  84 0012 0906     		lsls	r1, r1, #24
  85 0014 0B43     		orrs	r3, r1
  86 0016 1360     		str	r3, [r2]
  96:Generated_Source\PSoC4/adc_PM.c ****     if((adc_SAR_CTRL_REG  & adc_ENABLE) != 0u)
  87              		.loc 1 96 0
  88 0018 144B     		ldr	r3, .L8+8
  89 001a 1B68     		ldr	r3, [r3]
  90 001c 002B     		cmp	r3, #0
  91 001e 1DDA     		bge	.L4
  97:Generated_Source\PSoC4/adc_PM.c ****     {
  98:Generated_Source\PSoC4/adc_PM.c ****         if((adc_SAR_SAMPLE_CTRL_REG & adc_CONTINUOUS_EN) != 0u)
  92              		.loc 1 98 0
  93 0020 134B     		ldr	r3, .L8+12
  94 0022 1B68     		ldr	r3, [r3]
  95 0024 DB03     		lsls	r3, r3, #15
  96 0026 03D5     		bpl	.L5
  99:Generated_Source\PSoC4/adc_PM.c ****         {
 100:Generated_Source\PSoC4/adc_PM.c ****             adc_backup.enableState = adc_ENABLED | adc_STARTED;
  97              		.loc 1 100 0
  98 0028 0322     		movs	r2, #3
  99 002a 0F4B     		ldr	r3, .L8+4
 100 002c 1A70     		strb	r2, [r3]
 101 002e 02E0     		b	.L6
 102              	.L5:
 101:Generated_Source\PSoC4/adc_PM.c ****         }
 102:Generated_Source\PSoC4/adc_PM.c ****         else
 103:Generated_Source\PSoC4/adc_PM.c ****         {
 104:Generated_Source\PSoC4/adc_PM.c ****             adc_backup.enableState = adc_ENABLED;
 103              		.loc 1 104 0
 104 0030 0122     		movs	r2, #1
 105 0032 0D4B     		ldr	r3, .L8+4
 106 0034 1A70     		strb	r2, [r3]
 107              	.L6:
 105:Generated_Source\PSoC4/adc_PM.c ****         }
 106:Generated_Source\PSoC4/adc_PM.c ****         adc_StopConvert();
 108              		.loc 1 106 0
 109 0036 FFF7FEFF 		bl	adc_StopConvert
 110              	.LVL0:
 107:Generated_Source\PSoC4/adc_PM.c ****         adc_Stop();
 111              		.loc 1 107 0
 112 003a FFF7FEFF 		bl	adc_Stop
 113              	.LVL1:
 108:Generated_Source\PSoC4/adc_PM.c ****         
 109:Generated_Source\PSoC4/adc_PM.c ****         /* Disable the SAR internal pump before entering the chip low power mode */
 110:Generated_Source\PSoC4/adc_PM.c ****         if((adc_SAR_CTRL_REG & adc_BOOSTPUMP_EN) != 0u)
 114              		.loc 1 110 0
 115 003e 0B4B     		ldr	r3, .L8+8
 116 0040 1B68     		ldr	r3, [r3]
 117 0042 DB02     		lsls	r3, r3, #11
 118 0044 0DD5     		bpl	.L3
ARM GAS  C:\Users\Usuario\AppData\Local\Temp\ccdKnzKN.s 			page 5


 111:Generated_Source\PSoC4/adc_PM.c ****         {
 112:Generated_Source\PSoC4/adc_PM.c ****             adc_SAR_CTRL_REG &= (uint32)~adc_BOOSTPUMP_EN;
 119              		.loc 1 112 0
 120 0046 094A     		ldr	r2, .L8+8
 121 0048 1168     		ldr	r1, [r2]
 122 004a 0A4B     		ldr	r3, .L8+16
 123 004c 0B40     		ands	r3, r1
 124 004e 1360     		str	r3, [r2]
 113:Generated_Source\PSoC4/adc_PM.c ****             adc_backup.enableState |= adc_BOOSTPUMP_ENABLED;
 125              		.loc 1 113 0
 126 0050 054A     		ldr	r2, .L8+4
 127 0052 1178     		ldrb	r1, [r2]
 128 0054 0423     		movs	r3, #4
 129 0056 0B43     		orrs	r3, r1
 130 0058 1370     		strb	r3, [r2]
 131 005a 02E0     		b	.L3
 132              	.L4:
 114:Generated_Source\PSoC4/adc_PM.c ****         }
 115:Generated_Source\PSoC4/adc_PM.c ****     }
 116:Generated_Source\PSoC4/adc_PM.c ****     else
 117:Generated_Source\PSoC4/adc_PM.c ****     {
 118:Generated_Source\PSoC4/adc_PM.c ****         adc_backup.enableState = adc_DISABLED;
 133              		.loc 1 118 0
 134 005c 0022     		movs	r2, #0
 135 005e 024B     		ldr	r3, .L8+4
 136 0060 1A70     		strb	r2, [r3]
 137              	.L3:
 119:Generated_Source\PSoC4/adc_PM.c ****     }
 120:Generated_Source\PSoC4/adc_PM.c **** }
 138              		.loc 1 120 0
 139              		@ sp needed
 140 0062 10BD     		pop	{r4, pc}
 141              	.L9:
 142              		.align	2
 143              	.L8:
 144 0064 30001A40 		.word	1075445808
 145 0068 00000000 		.word	.LANCHOR0
 146 006c 00001A40 		.word	1075445760
 147 0070 04001A40 		.word	1075445764
 148 0074 FFFFEFFF 		.word	-1048577
 149              		.cfi_endproc
 150              	.LFE2:
 151              		.size	adc_Sleep, .-adc_Sleep
 152              		.section	.text.adc_Wakeup,"ax",%progbits
 153              		.align	2
 154              		.global	adc_Wakeup
 155              		.code	16
 156              		.thumb_func
 157              		.type	adc_Wakeup, %function
 158              	adc_Wakeup:
 159              	.LFB3:
 121:Generated_Source\PSoC4/adc_PM.c **** 
 122:Generated_Source\PSoC4/adc_PM.c **** 
 123:Generated_Source\PSoC4/adc_PM.c **** /*******************************************************************************
 124:Generated_Source\PSoC4/adc_PM.c **** * Function Name: adc_Wakeup
 125:Generated_Source\PSoC4/adc_PM.c **** ********************************************************************************
 126:Generated_Source\PSoC4/adc_PM.c **** *
ARM GAS  C:\Users\Usuario\AppData\Local\Temp\ccdKnzKN.s 			page 6


 127:Generated_Source\PSoC4/adc_PM.c **** * Summary:
 128:Generated_Source\PSoC4/adc_PM.c **** *  Restores the component enable state and configuration registers.
 129:Generated_Source\PSoC4/adc_PM.c **** *  This should be called just after awaking from sleep mode.
 130:Generated_Source\PSoC4/adc_PM.c **** *
 131:Generated_Source\PSoC4/adc_PM.c **** * Parameters:
 132:Generated_Source\PSoC4/adc_PM.c **** *  None.
 133:Generated_Source\PSoC4/adc_PM.c **** *
 134:Generated_Source\PSoC4/adc_PM.c **** * Return:
 135:Generated_Source\PSoC4/adc_PM.c **** *  None.
 136:Generated_Source\PSoC4/adc_PM.c **** *
 137:Generated_Source\PSoC4/adc_PM.c **** * Global Variables:
 138:Generated_Source\PSoC4/adc_PM.c **** *  adc_backup - used.
 139:Generated_Source\PSoC4/adc_PM.c **** *
 140:Generated_Source\PSoC4/adc_PM.c **** *******************************************************************************/
 141:Generated_Source\PSoC4/adc_PM.c **** void adc_Wakeup(void)
 142:Generated_Source\PSoC4/adc_PM.c **** {
 160              		.loc 1 142 0
 161              		.cfi_startproc
 162              		@ args = 0, pretend = 0, frame = 0
 163              		@ frame_needed = 0, uses_anonymous_args = 0
 164 0000 10B5     		push	{r4, lr}
 165              		.cfi_def_cfa_offset 8
 166              		.cfi_offset 4, -8
 167              		.cfi_offset 14, -4
 143:Generated_Source\PSoC4/adc_PM.c ****     adc_SAR_DFT_CTRL_REG = adc_backup.dftRegVal;
 168              		.loc 1 143 0
 169 0002 0C4B     		ldr	r3, .L13
 170 0004 0C4A     		ldr	r2, .L13+4
 171 0006 5968     		ldr	r1, [r3, #4]
 172 0008 1160     		str	r1, [r2]
 144:Generated_Source\PSoC4/adc_PM.c ****     if(adc_backup.enableState != adc_DISABLED)
 173              		.loc 1 144 0
 174 000a 1B78     		ldrb	r3, [r3]
 175 000c 002B     		cmp	r3, #0
 176 000e 0FD0     		beq	.L10
 145:Generated_Source\PSoC4/adc_PM.c ****     {
 146:Generated_Source\PSoC4/adc_PM.c ****         /* Enable the SAR internal pump  */
 147:Generated_Source\PSoC4/adc_PM.c ****         if((adc_backup.enableState & adc_BOOSTPUMP_ENABLED) != 0u)
 177              		.loc 1 147 0
 178 0010 5B07     		lsls	r3, r3, #29
 179 0012 05D5     		bpl	.L12
 148:Generated_Source\PSoC4/adc_PM.c ****         {
 149:Generated_Source\PSoC4/adc_PM.c ****             adc_SAR_CTRL_REG |= adc_BOOSTPUMP_EN;
 180              		.loc 1 149 0
 181 0014 094A     		ldr	r2, .L13+8
 182 0016 1368     		ldr	r3, [r2]
 183 0018 8021     		movs	r1, #128
 184 001a 4903     		lsls	r1, r1, #13
 185 001c 0B43     		orrs	r3, r1
 186 001e 1360     		str	r3, [r2]
 187              	.L12:
 150:Generated_Source\PSoC4/adc_PM.c ****         }
 151:Generated_Source\PSoC4/adc_PM.c ****         adc_Enable();
 188              		.loc 1 151 0
 189 0020 FFF7FEFF 		bl	adc_Enable
 190              	.LVL2:
 152:Generated_Source\PSoC4/adc_PM.c ****         if((adc_backup.enableState & adc_STARTED) != 0u)
ARM GAS  C:\Users\Usuario\AppData\Local\Temp\ccdKnzKN.s 			page 7


 191              		.loc 1 152 0
 192 0024 034B     		ldr	r3, .L13
 193 0026 1B78     		ldrb	r3, [r3]
 194 0028 9B07     		lsls	r3, r3, #30
 195 002a 01D5     		bpl	.L10
 153:Generated_Source\PSoC4/adc_PM.c ****         {
 154:Generated_Source\PSoC4/adc_PM.c ****             adc_StartConvert();
 196              		.loc 1 154 0
 197 002c FFF7FEFF 		bl	adc_StartConvert
 198              	.LVL3:
 199              	.L10:
 155:Generated_Source\PSoC4/adc_PM.c ****         }
 156:Generated_Source\PSoC4/adc_PM.c ****     }
 157:Generated_Source\PSoC4/adc_PM.c **** }
 200              		.loc 1 157 0
 201              		@ sp needed
 202 0030 10BD     		pop	{r4, pc}
 203              	.L14:
 204 0032 C046     		.align	2
 205              	.L13:
 206 0034 00000000 		.word	.LANCHOR0
 207 0038 30001A40 		.word	1075445808
 208 003c 00001A40 		.word	1075445760
 209              		.cfi_endproc
 210              	.LFE3:
 211              		.size	adc_Wakeup, .-adc_Wakeup
 212              		.bss
 213              		.align	2
 214              		.set	.LANCHOR0,. + 0
 215              		.type	adc_backup, %object
 216              		.size	adc_backup, 8
 217              	adc_backup:
 218 0000 00000000 		.space	8
 218      00000000 
 219              		.text
 220              	.Letext0:
 221              		.file 2 "Generated_Source\\PSoC4\\cytypes.h"
 222              		.file 3 "Generated_Source\\PSoC4\\adc.h"
