ARM GAS  C:\Users\Usuario\AppData\Local\Temp\ccPV47L5.s 			page 1


   1              		.syntax unified
   2              		.cpu cortex-m0
   3              		.fpu softvfp
   4              		.eabi_attribute 20, 1
   5              		.eabi_attribute 21, 1
   6              		.eabi_attribute 23, 3
   7              		.eabi_attribute 24, 1
   8              		.eabi_attribute 25, 1
   9              		.eabi_attribute 26, 1
  10              		.eabi_attribute 30, 1
  11              		.eabi_attribute 34, 0
  12              		.eabi_attribute 18, 4
  13              		.thumb
  14              		.syntax unified
  15              		.file	"di9.c"
  16              		.text
  17              	.Ltext0:
  18              		.cfi_sections	.debug_frame
  19              		.section	.text.di9_SetDriveMode,"ax",%progbits
  20              		.align	2
  21              		.global	di9_SetDriveMode
  22              		.code	16
  23              		.thumb_func
  24              		.type	di9_SetDriveMode, %function
  25              	di9_SetDriveMode:
  26              	.LFB0:
  27              		.file 1 "Generated_Source\\PSoC4\\di9.c"
   1:Generated_Source\PSoC4/di9.c **** /*******************************************************************************
   2:Generated_Source\PSoC4/di9.c **** * File Name: di9.c  
   3:Generated_Source\PSoC4/di9.c **** * Version 2.20
   4:Generated_Source\PSoC4/di9.c **** *
   5:Generated_Source\PSoC4/di9.c **** * Description:
   6:Generated_Source\PSoC4/di9.c **** *  This file contains API to enable firmware control of a Pins component.
   7:Generated_Source\PSoC4/di9.c **** *
   8:Generated_Source\PSoC4/di9.c **** ********************************************************************************
   9:Generated_Source\PSoC4/di9.c **** * Copyright 2008-2015, Cypress Semiconductor Corporation.  All rights reserved.
  10:Generated_Source\PSoC4/di9.c **** * You may use this file only in accordance with the license, terms, conditions, 
  11:Generated_Source\PSoC4/di9.c **** * disclaimers, and limitations in the end user license agreement accompanying 
  12:Generated_Source\PSoC4/di9.c **** * the software package with which this file was provided.
  13:Generated_Source\PSoC4/di9.c **** *******************************************************************************/
  14:Generated_Source\PSoC4/di9.c **** 
  15:Generated_Source\PSoC4/di9.c **** #include "cytypes.h"
  16:Generated_Source\PSoC4/di9.c **** #include "di9.h"
  17:Generated_Source\PSoC4/di9.c **** 
  18:Generated_Source\PSoC4/di9.c **** 
  19:Generated_Source\PSoC4/di9.c **** #if defined(di9__PC)
  20:Generated_Source\PSoC4/di9.c ****     #define di9_SetP4PinDriveMode(shift, mode)  \
  21:Generated_Source\PSoC4/di9.c ****     do { \
  22:Generated_Source\PSoC4/di9.c ****         di9_PC =   (di9_PC & \
  23:Generated_Source\PSoC4/di9.c ****                                 (uint32)(~(uint32)(di9_DRIVE_MODE_IND_MASK << \
  24:Generated_Source\PSoC4/di9.c ****                                 (di9_DRIVE_MODE_BITS * (shift))))) | \
  25:Generated_Source\PSoC4/di9.c ****                                 (uint32)((uint32)(mode) << \
  26:Generated_Source\PSoC4/di9.c ****                                 (di9_DRIVE_MODE_BITS * (shift))); \
  27:Generated_Source\PSoC4/di9.c ****     } while (0)
  28:Generated_Source\PSoC4/di9.c **** #else
  29:Generated_Source\PSoC4/di9.c ****     #if (CY_PSOC4_4200L)
  30:Generated_Source\PSoC4/di9.c ****         #define di9_SetP4PinDriveMode(shift, mode)  \
ARM GAS  C:\Users\Usuario\AppData\Local\Temp\ccPV47L5.s 			page 2


  31:Generated_Source\PSoC4/di9.c ****         do { \
  32:Generated_Source\PSoC4/di9.c ****             di9_USBIO_CTRL_REG = (di9_USBIO_CTRL_REG & \
  33:Generated_Source\PSoC4/di9.c ****                                     (uint32)(~(uint32)(di9_DRIVE_MODE_IND_MASK << \
  34:Generated_Source\PSoC4/di9.c ****                                     (di9_DRIVE_MODE_BITS * (shift))))) | \
  35:Generated_Source\PSoC4/di9.c ****                                     (uint32)((uint32)(mode) << \
  36:Generated_Source\PSoC4/di9.c ****                                     (di9_DRIVE_MODE_BITS * (shift))); \
  37:Generated_Source\PSoC4/di9.c ****         } while (0)
  38:Generated_Source\PSoC4/di9.c ****     #endif
  39:Generated_Source\PSoC4/di9.c **** #endif
  40:Generated_Source\PSoC4/di9.c ****   
  41:Generated_Source\PSoC4/di9.c **** 
  42:Generated_Source\PSoC4/di9.c **** #if defined(di9__PC) || (CY_PSOC4_4200L) 
  43:Generated_Source\PSoC4/di9.c ****     /*******************************************************************************
  44:Generated_Source\PSoC4/di9.c ****     * Function Name: di9_SetDriveMode
  45:Generated_Source\PSoC4/di9.c ****     ****************************************************************************//**
  46:Generated_Source\PSoC4/di9.c ****     *
  47:Generated_Source\PSoC4/di9.c ****     * \brief Sets the drive mode for each of the Pins component's pins.
  48:Generated_Source\PSoC4/di9.c ****     * 
  49:Generated_Source\PSoC4/di9.c ****     * <b>Note</b> This affects all pins in the Pins component instance. Use the
  50:Generated_Source\PSoC4/di9.c ****     * Per-Pin APIs if you wish to control individual pin's drive modes.
  51:Generated_Source\PSoC4/di9.c ****     *
  52:Generated_Source\PSoC4/di9.c ****     * <b>Note</b> USBIOs have limited drive functionality. Refer to the Drive Mode
  53:Generated_Source\PSoC4/di9.c ****     * parameter for more information.
  54:Generated_Source\PSoC4/di9.c ****     *
  55:Generated_Source\PSoC4/di9.c ****     * \param mode
  56:Generated_Source\PSoC4/di9.c ****     *  Mode for the selected signals. Valid options are documented in 
  57:Generated_Source\PSoC4/di9.c ****     *  \ref driveMode.
  58:Generated_Source\PSoC4/di9.c ****     *
  59:Generated_Source\PSoC4/di9.c ****     * \return
  60:Generated_Source\PSoC4/di9.c ****     *  None
  61:Generated_Source\PSoC4/di9.c ****     *
  62:Generated_Source\PSoC4/di9.c ****     * \sideeffect
  63:Generated_Source\PSoC4/di9.c ****     *  If you use read-modify-write operations that are not atomic, the ISR can
  64:Generated_Source\PSoC4/di9.c ****     *  cause corruption of this function. An ISR that interrupts this function 
  65:Generated_Source\PSoC4/di9.c ****     *  and performs writes to the Pins component Drive Mode registers can cause 
  66:Generated_Source\PSoC4/di9.c ****     *  corrupted port data. To avoid this issue, you should either use the Per-Pin
  67:Generated_Source\PSoC4/di9.c ****     *  APIs (primary method) or disable interrupts around this function.
  68:Generated_Source\PSoC4/di9.c ****     *
  69:Generated_Source\PSoC4/di9.c ****     * \funcusage
  70:Generated_Source\PSoC4/di9.c ****     *  \snippet di9_SUT.c usage_di9_SetDriveMode
  71:Generated_Source\PSoC4/di9.c ****     *******************************************************************************/
  72:Generated_Source\PSoC4/di9.c ****     void di9_SetDriveMode(uint8 mode)
  73:Generated_Source\PSoC4/di9.c ****     {
  28              		.loc 1 73 0
  29              		.cfi_startproc
  30              		@ args = 0, pretend = 0, frame = 0
  31              		@ frame_needed = 0, uses_anonymous_args = 0
  32              		@ link register save eliminated.
  33              	.LVL0:
  74:Generated_Source\PSoC4/di9.c **** 		di9_SetP4PinDriveMode(di9__0__SHIFT, mode);
  34              		.loc 1 74 0
  35 0000 034A     		ldr	r2, .L2
  36 0002 1168     		ldr	r1, [r2]
  37 0004 034B     		ldr	r3, .L2+4
  38 0006 0B40     		ands	r3, r1
  39 0008 0003     		lsls	r0, r0, #12
  40              	.LVL1:
ARM GAS  C:\Users\Usuario\AppData\Local\Temp\ccPV47L5.s 			page 3


  41 000a 1843     		orrs	r0, r3
  42 000c 1060     		str	r0, [r2]
  75:Generated_Source\PSoC4/di9.c ****     }
  43              		.loc 1 75 0
  44              		@ sp needed
  45 000e 7047     		bx	lr
  46              	.L3:
  47              		.align	2
  48              	.L2:
  49 0010 08010440 		.word	1074004232
  50 0014 FF8FFFFF 		.word	-28673
  51              		.cfi_endproc
  52              	.LFE0:
  53              		.size	di9_SetDriveMode, .-di9_SetDriveMode
  54              		.section	.text.di9_Write,"ax",%progbits
  55              		.align	2
  56              		.global	di9_Write
  57              		.code	16
  58              		.thumb_func
  59              		.type	di9_Write, %function
  60              	di9_Write:
  61              	.LFB1:
  76:Generated_Source\PSoC4/di9.c **** #endif
  77:Generated_Source\PSoC4/di9.c **** 
  78:Generated_Source\PSoC4/di9.c **** 
  79:Generated_Source\PSoC4/di9.c **** /*******************************************************************************
  80:Generated_Source\PSoC4/di9.c **** * Function Name: di9_Write
  81:Generated_Source\PSoC4/di9.c **** ****************************************************************************//**
  82:Generated_Source\PSoC4/di9.c **** *
  83:Generated_Source\PSoC4/di9.c **** * \brief Writes the value to the physical port (data output register), masking
  84:Generated_Source\PSoC4/di9.c **** *  and shifting the bits appropriately. 
  85:Generated_Source\PSoC4/di9.c **** *
  86:Generated_Source\PSoC4/di9.c **** * The data output register controls the signal applied to the physical pin in 
  87:Generated_Source\PSoC4/di9.c **** * conjunction with the drive mode parameter. This function avoids changing 
  88:Generated_Source\PSoC4/di9.c **** * other bits in the port by using the appropriate method (read-modify-write or
  89:Generated_Source\PSoC4/di9.c **** * bit banding).
  90:Generated_Source\PSoC4/di9.c **** *
  91:Generated_Source\PSoC4/di9.c **** * <b>Note</b> This function should not be used on a hardware digital output pin 
  92:Generated_Source\PSoC4/di9.c **** * as it is driven by the hardware signal attached to it.
  93:Generated_Source\PSoC4/di9.c **** *
  94:Generated_Source\PSoC4/di9.c **** * \param value
  95:Generated_Source\PSoC4/di9.c **** *  Value to write to the component instance.
  96:Generated_Source\PSoC4/di9.c **** *
  97:Generated_Source\PSoC4/di9.c **** * \return 
  98:Generated_Source\PSoC4/di9.c **** *  None 
  99:Generated_Source\PSoC4/di9.c **** *
 100:Generated_Source\PSoC4/di9.c **** * \sideeffect
 101:Generated_Source\PSoC4/di9.c **** *  If you use read-modify-write operations that are not atomic; the Interrupt 
 102:Generated_Source\PSoC4/di9.c **** *  Service Routines (ISR) can cause corruption of this function. An ISR that 
 103:Generated_Source\PSoC4/di9.c **** *  interrupts this function and performs writes to the Pins component data 
 104:Generated_Source\PSoC4/di9.c **** *  register can cause corrupted port data. To avoid this issue, you should 
 105:Generated_Source\PSoC4/di9.c **** *  either use the Per-Pin APIs (primary method) or disable interrupts around 
 106:Generated_Source\PSoC4/di9.c **** *  this function.
 107:Generated_Source\PSoC4/di9.c **** *
 108:Generated_Source\PSoC4/di9.c **** * \funcusage
 109:Generated_Source\PSoC4/di9.c **** *  \snippet di9_SUT.c usage_di9_Write
 110:Generated_Source\PSoC4/di9.c **** *******************************************************************************/
ARM GAS  C:\Users\Usuario\AppData\Local\Temp\ccPV47L5.s 			page 4


 111:Generated_Source\PSoC4/di9.c **** void di9_Write(uint8 value)
 112:Generated_Source\PSoC4/di9.c **** {
  62              		.loc 1 112 0
  63              		.cfi_startproc
  64              		@ args = 0, pretend = 0, frame = 0
  65              		@ frame_needed = 0, uses_anonymous_args = 0
  66              		@ link register save eliminated.
  67              	.LVL2:
 113:Generated_Source\PSoC4/di9.c ****     uint8 drVal = (uint8)(di9_DR & (uint8)(~di9_MASK));
  68              		.loc 1 113 0
  69 0000 0449     		ldr	r1, .L5
  70 0002 0A68     		ldr	r2, [r1]
  71 0004 D2B2     		uxtb	r2, r2
  72 0006 1023     		movs	r3, #16
  73 0008 9A43     		bics	r2, r3
  74              	.LVL3:
 114:Generated_Source\PSoC4/di9.c ****     drVal = (drVal | ((uint8)(value << di9_SHIFT) & di9_MASK));
  75              		.loc 1 114 0
  76 000a 0001     		lsls	r0, r0, #4
  77              	.LVL4:
  78 000c 1840     		ands	r0, r3
  79 000e 1043     		orrs	r0, r2
  80              	.LVL5:
 115:Generated_Source\PSoC4/di9.c ****     di9_DR = (uint32)drVal;
  81              		.loc 1 115 0
  82 0010 0860     		str	r0, [r1]
 116:Generated_Source\PSoC4/di9.c **** }
  83              		.loc 1 116 0
  84              		@ sp needed
  85 0012 7047     		bx	lr
  86              	.L6:
  87              		.align	2
  88              	.L5:
  89 0014 00010440 		.word	1074004224
  90              		.cfi_endproc
  91              	.LFE1:
  92              		.size	di9_Write, .-di9_Write
  93              		.section	.text.di9_Read,"ax",%progbits
  94              		.align	2
  95              		.global	di9_Read
  96              		.code	16
  97              		.thumb_func
  98              		.type	di9_Read, %function
  99              	di9_Read:
 100              	.LFB2:
 117:Generated_Source\PSoC4/di9.c **** 
 118:Generated_Source\PSoC4/di9.c **** 
 119:Generated_Source\PSoC4/di9.c **** /*******************************************************************************
 120:Generated_Source\PSoC4/di9.c **** * Function Name: di9_Read
 121:Generated_Source\PSoC4/di9.c **** ****************************************************************************//**
 122:Generated_Source\PSoC4/di9.c **** *
 123:Generated_Source\PSoC4/di9.c **** * \brief Reads the associated physical port (pin status register) and masks 
 124:Generated_Source\PSoC4/di9.c **** *  the required bits according to the width and bit position of the component
 125:Generated_Source\PSoC4/di9.c **** *  instance. 
 126:Generated_Source\PSoC4/di9.c **** *
 127:Generated_Source\PSoC4/di9.c **** * The pin's status register returns the current logic level present on the 
 128:Generated_Source\PSoC4/di9.c **** * physical pin.
ARM GAS  C:\Users\Usuario\AppData\Local\Temp\ccPV47L5.s 			page 5


 129:Generated_Source\PSoC4/di9.c **** *
 130:Generated_Source\PSoC4/di9.c **** * \return 
 131:Generated_Source\PSoC4/di9.c **** *  The current value for the pins in the component as a right justified number.
 132:Generated_Source\PSoC4/di9.c **** *
 133:Generated_Source\PSoC4/di9.c **** * \funcusage
 134:Generated_Source\PSoC4/di9.c **** *  \snippet di9_SUT.c usage_di9_Read  
 135:Generated_Source\PSoC4/di9.c **** *******************************************************************************/
 136:Generated_Source\PSoC4/di9.c **** uint8 di9_Read(void)
 137:Generated_Source\PSoC4/di9.c **** {
 101              		.loc 1 137 0
 102              		.cfi_startproc
 103              		@ args = 0, pretend = 0, frame = 0
 104              		@ frame_needed = 0, uses_anonymous_args = 0
 105              		@ link register save eliminated.
 138:Generated_Source\PSoC4/di9.c ****     return (uint8)((di9_PS & di9_MASK) >> di9_SHIFT);
 106              		.loc 1 138 0
 107 0000 024B     		ldr	r3, .L8
 108 0002 1868     		ldr	r0, [r3]
 109 0004 0009     		lsrs	r0, r0, #4
 110 0006 0123     		movs	r3, #1
 111 0008 1840     		ands	r0, r3
 139:Generated_Source\PSoC4/di9.c **** }
 112              		.loc 1 139 0
 113              		@ sp needed
 114 000a 7047     		bx	lr
 115              	.L9:
 116              		.align	2
 117              	.L8:
 118 000c 04010440 		.word	1074004228
 119              		.cfi_endproc
 120              	.LFE2:
 121              		.size	di9_Read, .-di9_Read
 122              		.section	.text.di9_ReadDataReg,"ax",%progbits
 123              		.align	2
 124              		.global	di9_ReadDataReg
 125              		.code	16
 126              		.thumb_func
 127              		.type	di9_ReadDataReg, %function
 128              	di9_ReadDataReg:
 129              	.LFB3:
 140:Generated_Source\PSoC4/di9.c **** 
 141:Generated_Source\PSoC4/di9.c **** 
 142:Generated_Source\PSoC4/di9.c **** /*******************************************************************************
 143:Generated_Source\PSoC4/di9.c **** * Function Name: di9_ReadDataReg
 144:Generated_Source\PSoC4/di9.c **** ****************************************************************************//**
 145:Generated_Source\PSoC4/di9.c **** *
 146:Generated_Source\PSoC4/di9.c **** * \brief Reads the associated physical port's data output register and masks 
 147:Generated_Source\PSoC4/di9.c **** *  the correct bits according to the width and bit position of the component 
 148:Generated_Source\PSoC4/di9.c **** *  instance. 
 149:Generated_Source\PSoC4/di9.c **** *
 150:Generated_Source\PSoC4/di9.c **** * The data output register controls the signal applied to the physical pin in 
 151:Generated_Source\PSoC4/di9.c **** * conjunction with the drive mode parameter. This is not the same as the 
 152:Generated_Source\PSoC4/di9.c **** * preferred di9_Read() API because the 
 153:Generated_Source\PSoC4/di9.c **** * di9_ReadDataReg() reads the data register instead of the status 
 154:Generated_Source\PSoC4/di9.c **** * register. For output pins this is a useful function to determine the value 
 155:Generated_Source\PSoC4/di9.c **** * just written to the pin.
 156:Generated_Source\PSoC4/di9.c **** *
ARM GAS  C:\Users\Usuario\AppData\Local\Temp\ccPV47L5.s 			page 6


 157:Generated_Source\PSoC4/di9.c **** * \return 
 158:Generated_Source\PSoC4/di9.c **** *  The current value of the data register masked and shifted into a right 
 159:Generated_Source\PSoC4/di9.c **** *  justified number for the component instance.
 160:Generated_Source\PSoC4/di9.c **** *
 161:Generated_Source\PSoC4/di9.c **** * \funcusage
 162:Generated_Source\PSoC4/di9.c **** *  \snippet di9_SUT.c usage_di9_ReadDataReg 
 163:Generated_Source\PSoC4/di9.c **** *******************************************************************************/
 164:Generated_Source\PSoC4/di9.c **** uint8 di9_ReadDataReg(void)
 165:Generated_Source\PSoC4/di9.c **** {
 130              		.loc 1 165 0
 131              		.cfi_startproc
 132              		@ args = 0, pretend = 0, frame = 0
 133              		@ frame_needed = 0, uses_anonymous_args = 0
 134              		@ link register save eliminated.
 166:Generated_Source\PSoC4/di9.c ****     return (uint8)((di9_DR & di9_MASK) >> di9_SHIFT);
 135              		.loc 1 166 0
 136 0000 024B     		ldr	r3, .L11
 137 0002 1868     		ldr	r0, [r3]
 138 0004 0009     		lsrs	r0, r0, #4
 139 0006 0123     		movs	r3, #1
 140 0008 1840     		ands	r0, r3
 167:Generated_Source\PSoC4/di9.c **** }
 141              		.loc 1 167 0
 142              		@ sp needed
 143 000a 7047     		bx	lr
 144              	.L12:
 145              		.align	2
 146              	.L11:
 147 000c 00010440 		.word	1074004224
 148              		.cfi_endproc
 149              	.LFE3:
 150              		.size	di9_ReadDataReg, .-di9_ReadDataReg
 151              		.section	.text.di9_SetInterruptMode,"ax",%progbits
 152              		.align	2
 153              		.global	di9_SetInterruptMode
 154              		.code	16
 155              		.thumb_func
 156              		.type	di9_SetInterruptMode, %function
 157              	di9_SetInterruptMode:
 158              	.LFB4:
 168:Generated_Source\PSoC4/di9.c **** 
 169:Generated_Source\PSoC4/di9.c **** 
 170:Generated_Source\PSoC4/di9.c **** /*******************************************************************************
 171:Generated_Source\PSoC4/di9.c **** * Function Name: di9_SetInterruptMode
 172:Generated_Source\PSoC4/di9.c **** ****************************************************************************//**
 173:Generated_Source\PSoC4/di9.c **** *
 174:Generated_Source\PSoC4/di9.c **** * \brief Configures the interrupt mode for each of the Pins component's
 175:Generated_Source\PSoC4/di9.c **** *  pins. Alternatively you may set the interrupt mode for all the pins
 176:Generated_Source\PSoC4/di9.c **** *  specified in the Pins component.
 177:Generated_Source\PSoC4/di9.c **** *
 178:Generated_Source\PSoC4/di9.c **** *  <b>Note</b> The interrupt is port-wide and therefore any enabled pin
 179:Generated_Source\PSoC4/di9.c **** *  interrupt may trigger it.
 180:Generated_Source\PSoC4/di9.c **** *
 181:Generated_Source\PSoC4/di9.c **** * \param position
 182:Generated_Source\PSoC4/di9.c **** *  The pin position as listed in the Pins component. You may OR these to be 
 183:Generated_Source\PSoC4/di9.c **** *  able to configure the interrupt mode of multiple pins within a Pins 
 184:Generated_Source\PSoC4/di9.c **** *  component. Or you may use di9_INTR_ALL to configure the
ARM GAS  C:\Users\Usuario\AppData\Local\Temp\ccPV47L5.s 			page 7


 185:Generated_Source\PSoC4/di9.c **** *  interrupt mode of all the pins in the Pins component.       
 186:Generated_Source\PSoC4/di9.c **** *  - di9_0_INTR       (First pin in the list)
 187:Generated_Source\PSoC4/di9.c **** *  - di9_1_INTR       (Second pin in the list)
 188:Generated_Source\PSoC4/di9.c **** *  - ...
 189:Generated_Source\PSoC4/di9.c **** *  - di9_INTR_ALL     (All pins in Pins component)
 190:Generated_Source\PSoC4/di9.c **** *
 191:Generated_Source\PSoC4/di9.c **** * \param mode
 192:Generated_Source\PSoC4/di9.c **** *  Interrupt mode for the selected pins. Valid options are documented in
 193:Generated_Source\PSoC4/di9.c **** *  \ref intrMode.
 194:Generated_Source\PSoC4/di9.c **** *
 195:Generated_Source\PSoC4/di9.c **** * \return 
 196:Generated_Source\PSoC4/di9.c **** *  None
 197:Generated_Source\PSoC4/di9.c **** *  
 198:Generated_Source\PSoC4/di9.c **** * \sideeffect
 199:Generated_Source\PSoC4/di9.c **** *  It is recommended that the interrupt be disabled before calling this 
 200:Generated_Source\PSoC4/di9.c **** *  function to avoid unintended interrupt requests. Note that the interrupt
 201:Generated_Source\PSoC4/di9.c **** *  type is port wide, and therefore will trigger for any enabled pin on the 
 202:Generated_Source\PSoC4/di9.c **** *  port.
 203:Generated_Source\PSoC4/di9.c **** *
 204:Generated_Source\PSoC4/di9.c **** * \funcusage
 205:Generated_Source\PSoC4/di9.c **** *  \snippet di9_SUT.c usage_di9_SetInterruptMode
 206:Generated_Source\PSoC4/di9.c **** *******************************************************************************/
 207:Generated_Source\PSoC4/di9.c **** void di9_SetInterruptMode(uint16 position, uint16 mode)
 208:Generated_Source\PSoC4/di9.c **** {
 159              		.loc 1 208 0
 160              		.cfi_startproc
 161              		@ args = 0, pretend = 0, frame = 0
 162              		@ frame_needed = 0, uses_anonymous_args = 0
 163              		@ link register save eliminated.
 164              	.LVL6:
 209:Generated_Source\PSoC4/di9.c ****     uint32 intrCfg;
 210:Generated_Source\PSoC4/di9.c ****     
 211:Generated_Source\PSoC4/di9.c ****     intrCfg =  di9_INTCFG & (uint32)(~(uint32)position);
 165              		.loc 1 211 0
 166 0000 034A     		ldr	r2, .L14
 167 0002 1368     		ldr	r3, [r2]
 168 0004 8343     		bics	r3, r0
 169              	.LVL7:
 212:Generated_Source\PSoC4/di9.c ****     di9_INTCFG = intrCfg | ((uint32)position & (uint32)mode);
 170              		.loc 1 212 0
 171 0006 0840     		ands	r0, r1
 172              	.LVL8:
 173 0008 1843     		orrs	r0, r3
 174 000a 1060     		str	r0, [r2]
 213:Generated_Source\PSoC4/di9.c **** }
 175              		.loc 1 213 0
 176              		@ sp needed
 177 000c 7047     		bx	lr
 178              	.L15:
 179 000e C046     		.align	2
 180              	.L14:
 181 0010 0C010440 		.word	1074004236
 182              		.cfi_endproc
 183              	.LFE4:
 184              		.size	di9_SetInterruptMode, .-di9_SetInterruptMode
 185              		.section	.text.di9_ClearInterrupt,"ax",%progbits
 186              		.align	2
ARM GAS  C:\Users\Usuario\AppData\Local\Temp\ccPV47L5.s 			page 8


 187              		.global	di9_ClearInterrupt
 188              		.code	16
 189              		.thumb_func
 190              		.type	di9_ClearInterrupt, %function
 191              	di9_ClearInterrupt:
 192              	.LFB5:
 214:Generated_Source\PSoC4/di9.c **** 
 215:Generated_Source\PSoC4/di9.c **** 
 216:Generated_Source\PSoC4/di9.c **** /*******************************************************************************
 217:Generated_Source\PSoC4/di9.c **** * Function Name: di9_ClearInterrupt
 218:Generated_Source\PSoC4/di9.c **** ****************************************************************************//**
 219:Generated_Source\PSoC4/di9.c **** *
 220:Generated_Source\PSoC4/di9.c **** * \brief Clears any active interrupts attached with the component and returns 
 221:Generated_Source\PSoC4/di9.c **** *  the value of the interrupt status register allowing determination of which
 222:Generated_Source\PSoC4/di9.c **** *  pins generated an interrupt event.
 223:Generated_Source\PSoC4/di9.c **** *
 224:Generated_Source\PSoC4/di9.c **** * \return 
 225:Generated_Source\PSoC4/di9.c **** *  The right-shifted current value of the interrupt status register. Each pin 
 226:Generated_Source\PSoC4/di9.c **** *  has one bit set if it generated an interrupt event. For example, bit 0 is 
 227:Generated_Source\PSoC4/di9.c **** *  for pin 0 and bit 1 is for pin 1 of the Pins component.
 228:Generated_Source\PSoC4/di9.c **** *  
 229:Generated_Source\PSoC4/di9.c **** * \sideeffect
 230:Generated_Source\PSoC4/di9.c **** *  Clears all bits of the physical port's interrupt status register, not just
 231:Generated_Source\PSoC4/di9.c **** *  those associated with the Pins component.
 232:Generated_Source\PSoC4/di9.c **** *
 233:Generated_Source\PSoC4/di9.c **** * \funcusage
 234:Generated_Source\PSoC4/di9.c **** *  \snippet di9_SUT.c usage_di9_ClearInterrupt
 235:Generated_Source\PSoC4/di9.c **** *******************************************************************************/
 236:Generated_Source\PSoC4/di9.c **** uint8 di9_ClearInterrupt(void)
 237:Generated_Source\PSoC4/di9.c **** {
 193              		.loc 1 237 0
 194              		.cfi_startproc
 195              		@ args = 0, pretend = 0, frame = 0
 196              		@ frame_needed = 0, uses_anonymous_args = 0
 197              		@ link register save eliminated.
 238:Generated_Source\PSoC4/di9.c **** 	uint8 maskedStatus = (uint8)(di9_INTSTAT & di9_MASK);
 198              		.loc 1 238 0
 199 0000 034A     		ldr	r2, .L17
 200 0002 1068     		ldr	r0, [r2]
 201 0004 1023     		movs	r3, #16
 202 0006 1840     		ands	r0, r3
 203              	.LVL9:
 239:Generated_Source\PSoC4/di9.c **** 	di9_INTSTAT = maskedStatus;
 204              		.loc 1 239 0
 205 0008 1060     		str	r0, [r2]
 240:Generated_Source\PSoC4/di9.c ****     return maskedStatus >> di9_SHIFT;
 206              		.loc 1 240 0
 207 000a 0009     		lsrs	r0, r0, #4
 208              	.LVL10:
 209 000c C0B2     		uxtb	r0, r0
 241:Generated_Source\PSoC4/di9.c **** }
 210              		.loc 1 241 0
 211              		@ sp needed
 212 000e 7047     		bx	lr
 213              	.L18:
 214              		.align	2
 215              	.L17:
ARM GAS  C:\Users\Usuario\AppData\Local\Temp\ccPV47L5.s 			page 9


 216 0010 10010440 		.word	1074004240
 217              		.cfi_endproc
 218              	.LFE5:
 219              		.size	di9_ClearInterrupt, .-di9_ClearInterrupt
 220              		.text
 221              	.Letext0:
 222              		.file 2 "Generated_Source\\PSoC4\\cytypes.h"
